:1000000000000420E1020000090300000B030000CF
:100010000D0300000F0300001103000000000000AA
:1000200000000000000000000000000013030000BA
:100030001503000000000000170300001903000072
:10004000512C0000A93503005D3200001B030000A5
:100050001B0300001B0300008D2F00001B0300008A
:100060001B0300001B030000F53500001B0300000C
:100070001B030000493300001B0300001B030000AA
:100080001B0300001B0300001B0300001B030000F8
:100090001B0300001B0300001B0300001B030000E8
:1000A0001B0300001B030000093600001B030000B7
:1000B0001B0300001B030000000000000000000004
:1000C0001B0300001B0300001B0300001B030000B8
:1000D0000D5303001B0300001B0300001B03000063
:1000E0001B0300001B0300001B03000000000000B6
:1000F000000000001B030000000000001B030000C4
:1001000000000000000000000000000000000000EF
:1001100000000000000000000000000000000000DF
:1001200000000000000000000000000000000000CF
:1001300000000000000000000000000000000000BF
:1001400000000000000000000000000000000000AF
:10015000000000000000000000000000000000009F
:10016000000000000000000000000000000000008F
:10017000000000000000000000000000000000007F
:10018000000000000000000000000000000000006F
:10019000000000000000000000000000000000005F
:1001A000000000000000000000000000000000004F
:1001B000000000000000000000000000000000003F
:1001C000000000000000000000000000000000002F
:1001D000000000000000000000000000000000001F
:1001E000000000000000000000000000000000000F
:1001F00000000000000000000000000000000000FF
:1002000010B5054C237833B9044B13B10448AFF350
:1002100000800123237010BDF805002000000000BD
:10022000CC9503000C4B43B10C480D4910B5AFF30E
:1002300000800C48036823B910BD0A48036833B92D
:100240007047094B002BF7D0BDE810401847064B0C
:10025000002BF5D0184700BF00000000CC9503002C
:10026000FC0500206805002000000000154B002B55
:1002700008BF134B9D46A3F5803A00218B460F46DD
:100280001348144A121A35F095FB0F4B002B00D07F
:1002900098470E4B002B00D0984700200021040007
:1002A0000D000D48002802D00C48AFF3008035F057
:1002B00009FB2000290004F015F835F0DDFA00BF35
:1002C0000000080000000420000000000000000002
:1002D000F8050020984E00200000000000000000FB
:1002E0000649074A074B9B1A03DD043BC858D05008
:1002F000FBDC04F009F9FFF7B9FF0000909603005A
:1003000000000020F8050020FEE7FEE7FEE7FEE71C
:10031000FEE7FEE7FEE7FEE7FEE7FEE7F0B595B095
:100320001C4608460D46164602F048F91A9B0994E9
:1003300000240D930822234605A9284608960A940E
:100340008DF82C400C9402F057F9079B0293BDF8EE
:100350001830ADF80C30BDF81A30ADF80E309DF8FD
:1003600014308DF8114003F00302012A1DD1BDF8AD
:100370001440059EC3F3C203C4F383148DF81030F8
:10038000A20008230EA9284602F036F9C6F39526E6
:1003900008AB0093224602AB0EA9304600F002FDE6
:1003A000284602F00FF915B0F0BD022AF8D1BDF8C9
:1003B0001640C3F3C203C4F389148DF81030082724
:1003C000082C264628BF08263B4632460EA928465A
:1003D00002F012F9A41B08AB02AA31460EA837445A
:1003E00000F044FD002CEBD1DAE70000014B0122C4
:1003F0001A707047550600207047000070B50F4D09
:1004000006460FCD88B06C460FC495E80F00002E4D
:1004100084E80F004FF006030093094A09484FF0A3
:10042000805308BF00226946069302F0EDFA08B136
:1004300001F0DCF8044B1E7008B070BD246E0300A0
:10044000ED030000000000201406002007B5044B57
:100450000093044A4023FFF761FF03B05DF804FBFB
:10046000690400001506002038B50D4B0D4D002025
:1004700018700D4804782D5DD2B21C4665B1043069
:1004800003F03EFD08B101F0B1F8084B1A7812B143
:100490002378002BFBD038BD0C3003F0F5FAF1E7E0
:1004A00055060020F62F0020000000201406002032
:1004B00008B50848084A0378D35C3BB1043003F020
:1004C000C5FC0020BDE80840FFF798BF0C3003F0E2
:1004D00081FAF6E700000020F62F00200120FFF748
:1004E0008DBF000008B5FFF7F9FF0421034800F0B5
:1004F000B7FB034B01225A7108BD00BF6096030091
:1005000014000020037813F0040216D003F0030354
:10051000012B03D0022B09D0012070470A68008804
:100520000232C0F3831002440A60F5E70B68428888
:10053000023303EB92130B60EEE7104670470000A6
:100540002DE9F04F494C87B00F460646851C002028
:10055000019201F029FB23683B606268A3681344A1
:10056000226801339B1A04F21C4704F5836A04F2E3
:100570001448AB4219D3019A0023002A6ED00122FD
:1005800062F3010343F0040366F389132168A26850
:100590000A4003320D44002044F82230256001F067
:1005A00005FB012007B0BDE8F08F0121384601F0BE
:1005B0003FFB504601F059FB404601F056FB0DF160
:1005C00018096068D4F808B049F8100D00EA0B006B
:1005D000033004EB80004946FFF794FF029BB8B953
:1005E0000BEA030204EB8202D16803919A1C0133E7
:1005F00003EA0B0B04EB8B0E0292DEF80C30049333
:1006000001F00303012B21D0022B04D083460CE020
:100610000BEA0300DCE7BDF80E30BDF812B0C3F3FF
:100620008913033302EB93030293404601F020FB4E
:1006300008B1029B63605946384601F0F9FA6268D6
:10064000A3681344226801339B1A92E7BDF80C306B
:10065000BDF812B0C3F383131344E5E7022262F33B
:10066000010343F0040366F39F538FE7280700203C
:1006700030B50A4B0A4A0B49D21AD20800239A42D3
:1006800001D1052030BD31F823500468A54202D1C4
:100690000360002030BD0133F1E700BFE89503009F
:1006A000609603006C0500202DE9F84F224B23488B
:1006B000FF229A600022C3F818241A605A60C3F817
:1006C000142483F8202401F030FF804688B91C48A8
:1006D0001C4E1D4DDFF874B002F05EF8AD1BED0846
:1006E0004446AC4208D10023184919481A469C4296
:1006F0001BD14046BDE8F88F4FF000094F4606EB8E
:10070000C40ABC420AD0142256F83710DAF80000A6
:1007100035F098FC0028C8BF09F101090137BD4236
:10072000EFD12BF824900134DBE701EB830540F88F
:1007300023206A800133DAE728070020709603003F
:10074000646E0300E8950300609603006C050020CA
:10075000A805002007B5019031B9074B019A53F85D
:10076000320003B05DF804FB01A8FFF781FF002809
:10077000F3D00020F5E700BFE8950300094B0139ED
:1007800003EBC000032909D8DFE801F00A020406E0
:100790000420704700797047407970470020704707
:1007A00002207047E895030030B5124C00EB400082
:1007B00054F821508240072303FA00F06A400240B7
:1007C0006A40C2F3C20302F00700834238BF034607
:1007D000C2F38210834238BF0346074844F8212001
:1007E000C2F3422200EB81019A4238BF1A464A8086
:1007F00030BD00BFA80500206C050020034B5868E1
:100800001B68C31A58425841704700BF2807002090
:100810002DE9FF47FFF7F2FF0646002840F00B8165
:100820008D4DC5F81804BFF34F8F6868AC6804AFEE
:1008300047F8100D2040033005EB80003946FFF7E4
:1008400061FE009B18B1D5F81824002A62D004EA92
:10085000030205EB8202D66801969A1C01332340FD
:1008600005EB8303F6B2DB68029306F00303022B69
:10087000009261D1BDF806307848C3F389194F461C
:10088000502FA8BF502767F38F1307F10801ADF869
:10089000063001F062FEC6F3C2068046002800F072
:1008A000D28001F08BFE082201A90023404601F00E
:1008B00098FE009924EA010201329200974234D94D
:1008C000002A00F0BA8021405FFA82FA0331A7EBD8
:1008D0000A07634C05EB8101FFB2082352464046EC
:1008E00001F07FFE34B10AF108033A462146404642
:1008F00001F077FE009B09F1030903EB99030093D4
:10090000D5F81834002B4ED1D5F81044554F4FF080
:10091000070968E02A689A4204D86A60304604B041
:10092000BDE8F08704EA030085E70C40E11C0823DA
:100930003A4605EB8101DAE7012B40F08480BDF8EF
:1009400004604648C6F38311062928BF062161F3D7
:10095000891602318900ADF8046001F0FEFDC6F38E
:10096000C206804600286ED001F028FE002308222F
:1009700001A9404601F035FE0027BDF80420C2F36E
:100980008312BB1C97424FEA8303B9D200994A1CD9
:1009900021400331009205EB81010422404601F021
:1009A00020FE0137E9E7404601F00CFEFFF726FF85
:1009B00080F00100C6B2B1E7E3685A798AB11B79C9
:1009C000BDF8081003EB430257F8211009FA02F3AF
:1009D000052E03EA010323FA02F308BF0326B342FC
:1009E00034D2E3681C68002CE6D1404601F0EAFDF1
:1009F000204601F0D9F8D5F818340BB9009B6B608C
:100A0000002001F0D3F8D1E7236820469B6898477F
:100A1000E3681C68002CF7D1134B5B88012BC5D908
:100A2000124B13481349C01AC008000440F00200DA
:100A300000F07AF8BAE7002670E75FFA87FA144602
:100A40000749174649E7D5F81044E3E723684146CC
:100A50001B6820469847C4E72807002070960300CB
:100A600034070020A80500208C050020E89503002D
:100A700028960300706E03002DE9F74F284C80463E
:100A80000F46924601A9012218469B46A568FFF72A
:100A900057FD88B3DDF80490002609F102025E4597
:100AA00034D100211F4801F083F880F3100009F1D0
:100AB00001022A4004EB8202000405EA0903033321
:100AC00040EA1840D06014F8232068F3C50204F807
:100AD000232034F8232066F3891224F8232054F8C5
:100AE0002320012167F39F2244F8232061F30102B0
:100AF0006FF3820204F8232094F820341BB1FFF72F
:100B000087FE0028FBD103B0BDE8F08F02EA0501A3
:100B100004EB81015AF82630CB6001360132BEE782
:100B200028070020440B002000231A46FFF7A4BF2B
:100B300013B502AC012344F8042D2246FFF79CFFB5
:100B400002B010BD07B58DE80C0002236A46FFF71E
:100B500093FF03B05DF804FB1FB50293069B01925F
:100B6000039301AA0323FFF787FF05B05DF804FB99
:100B70001FB58DE80C00069B0293079B03936A4602
:100B80000423FFF779FF05B05DF804FB2DE9F34777
:100B90008046314CD01C8A46174601A900228008A5
:100BA000A568FFF7CDFC002840D0DDF80490A668CA
:100BB00009F10200019001362840361AB600B7420A
:100BC00000F103003CD83A46514604EB800034F073
:100BD000CCFE0021214800F0EBFF80F3100009F16A
:100BE00001032B4004EB8303000440EA1840D86063
:100BF00005EA0903033304EB830214F8231068F3B6
:100C0000C50104F8231034F823106FF38F1124F872
:100C10002310518867F38F11518014F8232002218B
:100C200061F301026FF3820204F8232094F8203468
:100C30001BB1FFF7EDFD0028FBD102B0BDE8F08746
:100C40003246514604EB800034F08FFEBA1B0AEBAB
:100C5000060104F10C00BAE728070020440B00202D
:100C60002DE9F8431F4B8846D3F81014054600249D
:100C70000A469AB9E9680C71D3F81014A1B9C3F8FF
:100C80001054EB681A60184F184EF61BF6084FF018
:100C90000009B14511D12046BDE8F883D26810792A
:100CA000A04218D01268E4E7C968EA6809681160D0
:100CB000D3F81034DB681D60E5E707EBC90349464C
:100CC000DA79EB68424528BF42461879FFF76CFD98
:100CD00009F10109DDE701340A2CC9D14FF0FF34D5
:100CE000D9E700BF28070020E895030060960300BD
:100CF00073B5C38804460D4633B1144A00921449B3
:100D0000144A284601F013F8217A05291CD0637A89
:100D10004BB1A088FFF732FD0F4B104953F820204C
:100D2000284601F004F8227A0D4BA08853F822607F
:100D30000021FFF70FFD0B4903463246284602B05B
:100D4000BDE8704000F0F3BF02B070BDEB6E030071
:100D5000D36E0300CB6E0300986E0300F06E0300A9
:100D6000006F0300F36E030010B5037A052B0C46E9
:100D70000FD0437A23B1084A0849204600F0D7FF34
:100D80000749204600F0D3FF2046BDE8104000F0A0
:100D9000C3BF002AF8D0F3E7EB6E0300F06E030048
:100DA000E86E03002DE9F04385B01F460C9D00233B
:100DB00006460C46904695F80C902B73294638460B
:100DC000FFF796FFB8F1060F09D8DFE808F0041224
:100DD000181F283340003146284600F0A8FF0022A3
:100DE00029463846FFF7C0FF85F80C9005B0BDE8EE
:100DF000F08322683146284600F099FFEFE794E837
:100E00000C003146284600F092FFE8E7A368009303
:100E1000314694E80C00284600F089FFDFE7E368DC
:100E20000193A3680093314694E80C00284600F033
:100E30007EFFD4E723690293E3680193A3680093DC
:100E4000314694E80C00284600F071FFC7E763695B
:100E5000039323690293E3680193A36800933146E7
:100E600094E80C00284600F062FFB8E708292DE955
:100E7000F84F80460E4617461C4638D8002593F892
:100E80000C901D7319461046FFF732FFDFF880A063
:100E9000DFF880B0AE422CD918F80520594620461C
:100EA00000F045FF0135082DF4D11749DFF868B08F
:100EB000204600F03CFF0025AE421FD918F805A0DF
:100EC00034F024FD50445946437813F0970F14BF73
:100ED00052462E22204600F02AFF0135082DEBD184
:100EE000012221463846FFF73FFF84F80C90BDE809
:100EF000F88F5146204600F01AFFD3E703492046F9
:100F000000F015FFE9E700BFC66E0300C46E0300E2
:100F1000C26E0300BC6E0300C86E0300074B1B5C6F
:100F20001F2B86BF03F01F0305494FF0A04101228C
:100F300002FA03F3C1F80C35704700BF696F030074
:100F400000030050074B1B5C1F2B86BF03F01F03E1
:100F500005494FF0A041012202FA03F3C1F8083518
:100F6000704700BF696F03000003005008B5002000
:100F7000FFF7E8FF0120FFF7E5FF0220FFF7E2FFA0
:100F80000320BDE80840FFF7DDBF0000014B185CFF
:100F9000704700BF696F0300C20770B5044614D5DF
:100FA000154D164E00220320535D1F2B86BF03F004
:100FB0001F0331464FF0A04103F5E0730132042ACC
:100FC00041F82300F0D1FFF7D1FFA30712D50C4C55
:100FD0000A4D00220C20135D1F2B86BF03F01F0358
:100FE00029464FF0A04103F5E0730132042A41F88D
:100FF0002300F0D170BD00BF696F030000030050F3
:10100000656F03000D4930B5A1F50E7202259142BE
:1010100001D8002030BD8B1ADB1093FBF5F302EBF7
:10102000C30452F83330834205DC02DA04F10802CB
:10103000EDE7606830BD2146E9E700BF04770300B3
:1010400008B5FFF7DFFF024B002808BF184608BDB0
:101050006D6F030008B500F089FA00F087F80020F2
:1010600001F066FC10B100F0D7F8FCE701F00AFDD2
:1010700010B900F0D1F8FCE708BD08B500F0CCF8D5
:10108000FCE762B6704772B6704713B502AC002336
:1010900004F8053D01939DF80330032B08D9042182
:1010A0000DEB010001F06EFC30B9019802B010BDEB
:1010B000204601F05DFCEEE70020F7E708B510F0F0
:1010C000B3FB4FF47053584308BD0000034A431A62
:1010D000934288BF0B1A1846704700BFFEFFFF7F80
:1010E00010B50446FFF7EAFF0444FFF7E7FF844228
:1010F00004D2FFF7E3FF8442FBD310BDFFF7DEFF0E
:101100008442FBD810BD38B50D4614465AB151B1D2
:1011100048B101F0FBFC2946204601F0CDFC10B996
:1011200000F07AF8FCE738BDEFF30580003018BF17
:101130000120704737B54FF08053094D1C6E596E32
:1011400000220A4304F0FF03002422432B4302A998
:1011500061E90223082234F008FC03B030BD00BF6F
:10116000000E010B40BF20BF20BF704708B50CF038
:10117000D3FB48B9054B1B7813B9054B1B781BB142
:10118000BDE808400CF0CEBB08BD00BF280200201F
:101190002C0200202DE9F84307460E460CF0BCFB5C
:1011A00058B1184B184CDFF86890DFF86880E41AE3
:1011B000E408240444F003040EB9BDE8F883D9F828
:1011C0000000C0F10805B542A8BF35462A46394699
:1011D000404434F0CAFBD9F800202A44082AC9F850
:1011E00000202F44A6EB0506E6D1084B5B88022BB6
:1011F00003D941462046FFF7C9FC0023C9F8003057
:10120000DAE700BFE895030058960300A405002024
:10121000EC0B0020E40B002010B50C4C226882B1CE
:101220000B4B5B88022B0AD90A4B0B480B49C01A9F
:10123000C008000492B240F00300FFF7A7FC0023AF
:101240002360BDE81040FFF7E3BA00BFEC0B0020BD
:10125000A4050020E895030058960300E40B002045
:101260004FF0102358694FF08053411C1A695B6995
:1012700008BF03FB02F070470378022B01D80CF083
:101280005FBB704710B5FFF7EBFF0A4C2061FFF71B
:10129000E7FF094B0949A0F54040E06000222046E5
:1012A000C3F8082100F0FAFE18B1BDE81040FFF7BE
:1012B000E4BE10BDE4050020F00B0020047903001B
:1012C0004FF4804070470220704708B513460A4625
:1012D00031B143B10146184634F047FB002008BD48
:1012E0006FF00A0008BD6FF00B0008BD0128F8B5CB
:1012F00007460C4616461D4612D80B44B3F5804FE0
:1013000011D29AB1ADB1FFF7ABFFA4F5404101EBAB
:10131000873101442A46304634F027FB0020F8BDCF
:101320006FF03800F8BD6FF01600F8BD6FF00B00DD
:10133000F8BD6FF00C00F8BD0128F7B507460C4664
:1013400016461D4626D80B44B3F5804F25D23AB336
:10135000AB0828D0FFF784FFA4F5404404EB8734A2
:1013600004440CF0F5FA07460028FAD10CF0E0FA34
:10137000214600972B4632460C4800F0CBFE04462F
:101380000CF0E6FA0028FBD1201C18BF01204042D7
:1013900003B0F0BD6FF03800FAE76FF01600F7E722
:1013A0006FF00B00F4E76FF00C00F1E7E4050020AC
:1013B00001282DE9F041064626D8FFF751FF00EB42
:1013C0008630A0F54044DFF8508004F580470CF0EB
:1013D000BFFA05460028FAD10CF0AAFA2B460122E2
:1013E0002146404600F05CFF90B90CF0B1FA05468A
:1013F0000028FAD104F58054BC42E8D130460CF004
:10140000AFFA2846BDE8F0816FF03800BDE8F08102
:101410004FF0FF30BDE8F081E405002010B5084C26
:10142000D4F8083153B19BB22246D4F8041194F891
:101430000001FFF781FF0023C4F8083110BD00BF91
:10144000F00B00202DE9F8431C4C1E46D4F808315F
:1014500081460F46904693B194F80021824207D10D
:10146000D4F804211A44914202D1B3F5807F06D109
:10147000FFF7D4FF03E0FFF7D1FF2F44A844D4F8CF
:10148000080118B984F80091C4F80471C0F580759A
:10149000B54234BFADB235464DB12A46414620442F
:1014A00034F063FAD4F808312B44C4F80831761BC1
:1014B000B6B2002EDFD13046BDE8F883F00B002035
:1014C00007B50C4B18680090FFF7CAFE0422A0F580
:1014D00080410DEB020034F048FA042269460DEB1E
:1014E000020034F033FAB0FA80F0400903B05DF83E
:1014F00004FB00BF0A77030070B506460D4614468C
:10150000FFF7AEFEA4F57F543C3C3246294620440A
:10151000BDE87040FFF7D9BE004870471077030060
:101520000422032102708170002206214270C170E2
:1015300042607047B0F5A27F01D10CF013BA70473A
:1015400008B5FFF7E9FF01F0C1FFFFF7E5FF01F084
:10155000C9FF024B00221A7008BD00BFFC0C00201E
:10156000014B1878704700BFFC0C00201FB502A883
:10157000FFF7D6FFFFF7D0FF104A02A901F024FFC2
:1015800008B1FFF77AFDFFF7C7FF0368D3F81045EE
:10159000FFF7C2FFE2B24FF47031012421FA02F2E8
:1015A00002232146009401F0F0FFFFF7B5FF01F0A0
:1015B0007FFF034B1C7004B010BD00BF3515000049
:1015C000FC0C002008B5084B1B780BB9FFF7CEFFC9
:1015D000FFF7A2FF01F0AEFF28B9FFF79DFFBDE8BE
:1015E000084001F065BF08BDFC0C00201FB50021BC
:1015F000039001AA44F20100019102912CF09AFBA0
:1016000005B05DF804FB2DE9F8430468054694F83D
:10161000200001F0BBFD04F11807FF264FF0FF3951
:101620004FF00008207AFF2802D001F0AFFD2672AB
:10163000607AFF2802D001F0A9FD66722068431C81
:1016400003D001F027FCC4F8009084F80B800C3420
:10165000A742E7D16868BDE8F84301F043BF000046
:101660002DE9F041134DDFF850800E46002401278C
:1016700005EB41052B5D5BB12B5D013BDBB22B55CF
:101680002B5D93B958F826301B683046DB699847C4
:101690000134022CEED157B1074B53F826302146C6
:1016A0005868BDE8F04101F09CBF0027F0E7BDE8B5
:1016B000F08100BFEC2F0020000D002040680C4995
:1016C00002798B5CDBB2FF2B0DD0FE2B0DD00068B6
:1016D00003F5A87350F82330064850F822009842CA
:1016E00003D1FF238B54002070470120704700BFB7
:1016F000140D00201C0D00202DE9F74F03689046C3
:1017000093F82120022A04460F4640F09C800C25C5
:101710004D435A195268904509D1DB691BB9002025
:1017200003B0BDE8F08F426810799847F7E7FFF7FC
:10173000C5FF8346002840F088806368DFF8189171
:101740001B79FE2209F80320266896F8200001F094
:101750006FFDCA46B8F1000F1FD13544687A01F019
:1017600067FD287A01F04EFD63681B79FF2209F8B6
:1017700003200C2303FB0766C6F804802368DB699B
:10178000002BCCD063681A79314B03EB4203022162
:10179000D955606801F011FFC1E7B169884507D3E9
:1017A00035441FFA81F8287A01F042FD687AD9E7BA
:1017B00007EB47094FEA890906EB09035A6891428A
:1017C0003BD0002A39D0904537D25B466068032170
:1017D00001F0C0FE636896F820B01B6856F8090057
:1017E000354403F5A6730193AB7A1BB301F0A8FB54
:1017F00002460199584601F0E5FC96F8200001F0F8
:1018000001FD63681B790AF8037063681A79114B4C
:1018100043F822800C2505FB076500234246394624
:10182000606801F097FE287A01F0ECFC687A01F01C
:10183000E9FC9EE701F076FBDAE763681B79FF229B
:101840000AF80320E6E708206AE7112068E700BFEE
:10185000EC2F00201C0D0020140D002003681B8BB2
:101860005A436423B2FBF3F292B2FFF745BF000084
:101870002DE9F04F89B0044603928946002900F013
:101880003381066896F82130002B40F02F8101F05B
:1018900033F808B1852821D101F07EFA00B3954BC9
:1018A0001B6803F0F003302B20D10023924A002163
:1018B0001370FF234FF0FF3286F82030F17233723D
:1018C00073723260F17532757375F26006F1200043
:1018D00001F030FC60B12046FFF795FE0425E9E0F9
:1018E00001F022FA0028DAD00325E3E00123DDE746
:1018F0004FF0090A0746FBB2029359F827305A1CE9
:1019000000F08680256895F82110002940F0F080CD
:1019100009EB0702184692F808B004930C2202FB68
:1019200007F805EB0802516082F80AB003228DF82F
:1019300018202268424406A9927AB2FA82F2520929
:101940008DF8192001228DF81A20059201F02EFA47
:10195000049B059A20B104252046FFF754FEA9E018
:1019600045F80830BBF1000F00F0A8801F2B86BFA0
:1019700003F01F0361494FF0A0419A40C1F80C25C4
:101980000AF1FF30284401F0D5FB0028E3D105EB34
:101990000A0001F0CFFB0028DDD10C2303FB075325
:1019A0000493187A01F044FC049B587A01F040FC3F
:1019B00055F80800BBF1000F00F08B8001F0C0FA71
:1019C000834655F8080001F0ADFA63680C2202FB6B
:1019D00007551B6807F1500103EB810180465A4609
:1019E000287A01F0EFFB6368687A1968424601F5CE
:1019F000A47101F0E7FB0123EB726368404A1B7995
:101A0000029902EB430320460022DA55FFF774FEE9
:101A10000AF10C0ABAF1210F07F101077FF46BAF4D
:101A2000D9F810200023B2F5805F01D3092B58D1DB
:101A3000314A127812B1002B08BF01238DF81830FB
:101A400000238DF819308DF81A3060682D4A07236D
:101A50008DF81B300379079306A901F0B5FC054604
:101A600000287FF479AF6368D9F810701B68D3F849
:101A700010253F01D2B2D740B76160684FF001082E
:101A800001F064FD04233A4602216068CDF800802D
:101A900001F07BFD0221606801F0A3FD039BF3616F
:101AA0006368194A1B7986F8218042F82340174A57
:101AB000FF21D154284609B0BDE8F08F1F2B86BF07
:101AC00003F01F030D494FF0A0419A40C1F80825CB
:101AD00056E701F027FA834655F8080001F030FA7E
:101AE00073E7520801339EE70B25E3E70825E1E79A
:101AF000082531E7E80F00F0300D0020000300500A
:101B0000EC2F002061160000000D0020140D0020B5
:101B10002DE9F0470768DFF86890002405463E4647
:101B2000A0464FF00C0A6B681B7909EB430303F8DE
:101B30000480F37A73B12B6830680AFB0433997A16
:101B4000B1FA81F1490901F009FA306801F0D8F9D8
:101B5000C6F804800134022C06F10C06E3D16B6850
:101B6000064A1B79FF21D154686801F0EFFC6868D0
:101B700001F09EFC87F82140BDE8F087140D00209D
:101B8000EC2F002072B6024A1368013313607047CD
:101B9000340D0020034A1368013B136003B962B699
:101BA000704700BF340D0020FFF7ECBFFFF7F2BF16
:101BB00000B550E8002F0B4640E8003E9EF0000FB5
:101BC000F7D110465DF804FB00B550E8002F42EA5B
:101BD000010340E8003E9EF0000FF6D110465DF88C
:101BE00004FB00B550E8003F43EA010240E8002E44
:101BF0009EF0000FF6D110465DF804FB00B550E8EA
:101C0000002F02EA010340E8003E9EF0000FF6D1EB
:101C100010465DF804FB00B550E8003F03EA0102FE
:101C200040E8002E9EF0000FF6D110465DF804FB50
:101C300000B550E8003F03EB010240E8002E9EF0A3
:101C4000000FF6D110465DF804FB00B550E8003FE8
:101C5000A3EB010240E8002E9EF0000FF6D11046E3
:101C60005DF804FB0121FFF7AFBF0121FFF7B9BF0A
:101C70000021FFF7C3BF0021FFF7CDBF10B590B122
:101C80004268836801689B1ADBB20A60013BDBB2E1
:101C9000FF2B026802D10020107110BD11684C1C8E
:101CA00014600B70F2E70E2010BD38B5044600201A
:101CB000FFF77AFF2268616813688B4215D9591EB5
:101CC000116013F8015CA28AE36802FB0535226803
:101CD000A36811685B1A1179DBB2994200D21371C3
:101CE0000020FFF763FF284638BD0025F8E738B528
:101CF000054600200C46FFF757FF2A681368591C59
:101D00001160E968641AA98AB4FBF1F41C70002020
:101D1000BDE83840FFF74ABF10B5826804462AB1D3
:101D200043690168006998470023A36010BD0EB4A1
:101D300003B5039929B102AA04AB42F8043D00F0AF
:101D40006DF802B05DF804EB03B07047826830B400
:101D50000468551C8560A154826843689A4202D386
:101D600030BCFFF7D9BF30BC704700002DE9F84FF9
:101D70000A9C99460B9B1746824688460A460126CE
:101D8000BA420FD24E4538BF4E4613F0010B01D177
:101D900064B900240125B9F1010F1AD909F1FF39FD
:101DA0007D43F8E7B2FBF7F20136E9E79B070ED572
:101DB000B9F1000F0CBF30252025A642EAD2013C24
:101DC00029465046FFF7C2FF002CF6D1E1E7202557
:101DD000F3E7B8FBF5F39F42E2D9DFF83C90B8FB9C
:101DE000F5F3504619F8031005FB1388FFF7AEFF13
:101DF000B5FBF7F5002DF2D1BBF1000F0AD03CB9CD
:101E0000BDE8F88F013C20215046FFF79FFF0CB141
:101E1000A642F7D3BDE8F88F187703002DE9F74FF6
:101E2000054617460C46002900F0358114F8011BC1
:101E300049B92B7B002B00F02E81284603B0BDE86A
:101E4000F04FFFF769BF252940F021812346002686
:101E5000194611F8012B2D2A24D0302A26D02B2AFE
:101E600027D000242A2A994603F1010124D13B6896
:101E70001A1D3A601B6889461C4499F800302E2BC5
:101E800025D109F101014FF00008894611F8012B15
:101E9000A2F1300009281CD80A2303FB0823A3F170
:101EA0003008F2E746F001060B46D1E746F002069D
:101EB000FAE746F00406F7E71A780B46A2F130017C
:101EC0000929DAD80A2101FB0424303CCAE74FF083
:101ED000000899F8001001F0FB02682A02D119F8F5
:101EE000011FF8E769290FD04BD8582965D007D8CA
:101EF00025296ED009F101042378002B96D198E7AB
:101F0000632962D06429F5D13A68111D3960D2F88D
:101F100000A08AEAEA72A2EBEA724FF0010B092AEA
:101F20005BDCC34538BFC3462CB1BAF1000F01DBFF
:101F3000710700D5013CB20702D5B8F1000F04D0FB
:101F4000F30702D4002C4ED10024BAF1000F52DA6C
:101F5000CAF1000A2D212846FFF7F8FE06F0030219
:101F6000022A05D1B8F1000F02D1002C47D100247C
:101F70008DE8500043460A2251462846FFF7F6FEF8
:101F8000B8E773294CD014D87029B3D13B681A1D17
:101F90003A60302128461C68FFF7D8FE7821284691
:101FA000FFF7D4FE0023019308230093102221465B
:101FB000E3E775292BD078299CD139680A1D3A604E
:101FC00043468DE85000102228E03B681A1D3A6015
:101FD00019782846FFF7BAFE8CE70A230BF1010BAC
:101FE00092FBF3F29BE7A345AFD220212846013CA8
:101FF000FFF7ACFEA6E77007B0D52B21ABE7A345F2
:10200000B6D230212846013CFFF7A0FEADE7396883
:102010000A1D3A608DE8500043460A220968ACE781
:102020003B681A1D3A60F107D3F800A012D5564656
:10203000A6EB0A0B16F8011B41B95C457FF65AAFB7
:1020400020212846013CFFF781FEF6E72846FFF7EE
:102050007DFEEDE7BAF1000F11D0504633F0EAFFF4
:102060000646B44200D964B90AF1FF3A1AF8011FD2
:1020700000293FF43FAF2846FFF768FEF6E75646D3
:10208000EFE720212846013CFFF760FEE9E72846FC
:10209000FFF75CFE30E703B0BDE8F08F07B50B46F5
:1020A000A0B9154B5B886BB1144B1548154AC01A83
:1020B0000E23C0080093144B0004144940F00100A3
:1020C000FEF74AFD0E2003B05DF804FB6BB90A4B26
:1020D0005B88002BF6D0094B09480D4AC01AC0088E
:1020E0000E2300930004084BE7E703601B681146CA
:1020F00003B05DF804EB184798050020E89503004D
:1021000040960300D577030028770300DA770300B1
:10211000517803002DE9F743DDF828C0B0B9534BDF
:102120005B88002B00F09580514B5248524AC01AF0
:10213000C0080E24514B00940004514940F00100A6
:10214000FEF70AFD204603B0BDE8F0836AB9474BAD
:102150005B88002B7DD0464B46484A4AC01AC008CF
:102160000E2400040094454BE7E7D0F800E0BEF1F0
:10217000000F0DD13D4B5B88002B6CD03C4B3D4894
:10218000414AC01AC0080824000400943B4BD4E71D
:102190006BB9364B5B88002B5FD0354B35483B4ADB
:1021A000C01AC008092400040094344BC5E74768EE
:1021B000D7F80490B3FBF9F709FB17376FB12B4B36
:1021C0005B88002B49D02A4B2A48314AC01AC008E4
:1021D000092400040094294BAFE78F070DD0234B4F
:1021E0005B88002B3FD0224B22482A4AC01AC008E5
:1021F000102400040094214B9FE712F0030F0DD030
:102200001A4B5B88002B2ED0194B1A48224AC01A51
:10221000C008102400040094184B8EE7C768B94228
:102220001DD34C1E05691C44AC4218D8CDF828C0FB
:10223000DEF80C40A44603B0BDE8F04360470C4B09
:102240000C48164AC01AC0081024000400940B4B16
:1022500073E70E2476E7082474E7092472E7034B3A
:102260005B88002BEBD110246CE700BF98050020A1
:10227000E895030040960300D57703003A77030002
:10228000DA770300577803004B7803000A780300DD
:102290005D780300877803009F780300C27803000D
:1022A000F7B5A0B9384B5B88002B60D0374B384866
:1022B000384AC01AC0080E24374B0094000437492E
:1022C00040F00100FEF748FC204603B0F0BDD0F816
:1022D00000E0BEF1000F0DD12B4B5B88002B48D0E6
:1022E0002A4B2B482E4AC01AC00808240004009428
:1022F000294BE4E76AB9244B5B88002B3BD0234B86
:102300002348284AC01AC008092400040094224B1C
:10231000D5E74768D7F800C00CF1FF370F420CD063
:10232000194B5B886BB3194B19481F4AC01AC00878
:10233000102400040094184BC1E7C768B9421CD3AD
:102340004C1E05690CFB0244AC4216D8DEF8104066
:10235000A44603B0BDE8F04060470C4B0C48134A5C
:10236000C01AC0081024000400940B4BA7E70E24E9
:10237000AAE70824A8E70924A6E7034B5B88002BFB
:10238000EBD11024A0E700BF98050020E8950300DA
:1023900040960300D57703004D770300DA770300FA
:1023A0004B7803000A780300607703008677030008
:1023B000014B436000207047F878030008467047DF
:1023C00000207047024B1868003018BF012070478A
:1023D000380D002008B50248FFF74DFC002008BD6D
:1023E000380D002008B510461A4633F0BEFA00201A
:1023F00008BD00002DE9F041804686B014480E4625
:1024000015461F46FFF72EFC0446F0B9A54214D12D
:102410000F48FFF730FCD8F8083000249BB10222A7
:1024200068468DF800200194029603940495059760
:102430009847204606B0BDE8F08106EB043000F076
:1024400075FB0134E2E71846F4E71120F2E700BF1C
:10245000380D00202DE9F041804686B012480F4625
:1024600016461D46FFF7FEFB0446D8B9AA083146BA
:10247000384600F073FB0C48FFF7FDFBD8F8083036
:1024800073B101228DF800200C9A019468460297DE
:102490000396049505929847204606B0BDE8F08162
:1024A0001846FAE71120F8E7380D00202DE9F0472B
:1024B000B0F806804479D2F800909DF8207008FBAF
:1024C00004F4043C03EB090E744538BFA4EB030984
:1024D0000E46191DC2F80090B1FBF8F5044608FB42
:1024E00015114DB9A8EB010ACA4528BFCA46B9F172
:1024F000000F04D1BDE8F0872468013DF1E7043105
:102500007019631852466FB11946A9EB0A0933F0E6
:102510002CFAC84555442468C2464FF0000128BF34
:10252000CA46E4E701461846EFE7FFF7A7BBF8B550
:1025300046790446721E00239342246804D3014660
:102540000025B54202D3F8BD0133F5E70F682046F8
:10255000FFF7CDFB01353946F3E72DE9F843CD1CF4
:10256000878A8046FFF7A1FB043F3D440446B5FB44
:10257000F7F5002650B10123EDB206714371C78013
:10258000013DC0F800808146AE4202D32046BDE83E
:10259000F8834046FFF789FB074648B1637901336A
:1025A00063710136C9F80000C0F800808146EBE78E
:1025B0002046FFF7BCFF3846BDE8F8830121043010
:1025C000FFF736BB10B5012104460430FFF73DFB91
:1025D00010F0FF0F04D12046BDE81040FFF7A7BF61
:1025E00010BD1FB504AC44F8042D00220092224611
:1025F000FFF75CFF04B010BD1FB504AC44F8042D18
:10260000012200922246FFF751FF04B010BD02687C
:1026100013685268934291BFD01A806801308018C5
:1026200088BFC01A70472DE9F84303681D685C68CD
:10263000A54284BF836801331746884694BF641B54
:102640005C1BC2684168BC42064602FB05110CD304
:102650007A43404633F089F9B46833683D44A54273
:1026600088BF00251D60BDE8F88302FB04F94A46D7
:10267000404633F07AF9F26871683C1B624308EB1C
:10268000090033F072F933681C60BDE8F883036811
:1026900081681A685B688B4234BF01330023D31A08
:1026A000584258417047F8B5044600200D46FFF7E0
:1026B0007BFA2046FFF7EBFF10B1237C002B3DD1C6
:1026C0002168A6684B684A68B24234BF01320022D2
:1026D0004A6038B12168A0680A68824234BF01327A
:1026E00000220A60E2686068511E072920D8DFE8EE
:1026F00001F004101F141F1F1F182A78C25420460F
:10270000FFF785FF23689A68904200D998600024FB
:1027100015E02A8820F81320F1E72A6840F82320E2
:10272000EDE7D5E9006700EBC300C0E90067E6E725
:10273000294602FB030033F018F9E0E704240020E7
:10274000FFF734FA2046F8BD70B505460E4614462C
:1027500082B10020FFF728FA2846FFF758FF84428D
:102760000AD8224631462846FFF75DFF00240020A4
:10277000FFF71CFA204670BD0524F8E710B50446A3
:102780000020FFF711FA2046FFF741FF0446002022
:10279000FFF70CFA204610BD826800239360826820
:1027A0001361826853618268D36082685360826873
:1027B0001360704738B5084C04F10803054600283B
:1027C00018BF1C4623682BB11A6822605B68284634
:1027D0009847F7E738BD00BF440D002020B9054BEE
:1027E00001225A70FFF7E6BF012802D1014A90701A
:1027F000F8E770473C0D002038B5094C23786BB9D9
:1028000008486360A3602361E36000F0D1F90546E6
:1028100000F0DCF901232370284638BD8525FBE74D
:102820003C0D0020DD27000038B5134CA378054689
:1028300003F0FF0073B115B16B68012098470020C9
:10284000FFF7B2F9E3680133E3600020BDE83840E8
:10285000FFF7ACB9FFF7A8F925B1226913463BB9D8
:102860002A602561E368002BECD100F0C3F9E9E7A9
:102870009D42F7D01B68F2E73C0D002038B5134CA1
:102880006378054603F0FF0073B115B16B68002053
:1028900098470020FFF788F96368013363600020E0
:1028A000BDE83840FFF782B9FFF77EF925B1A2688D
:1028B00013463BB92A60A5606368002BECD100F099
:1028C000A6F9E9E79D42F7D01B68F2E73C0D00202E
:1028D00038B5084C0020FFF767F96368013B636077
:1028E000656815B900F0A0F965700020BDE83840B2
:1028F000FFF75CB93C0D0020034B187810B901229A
:102900001A70704785207047500D002007B502A946
:1029100001F8010D0548FFF7C6FE0448FFF7B7FEB2
:1029200008B100F009FD03B05DF804FBD095030089
:1029300038B50C4D2B7893B90B4B0C49002808BFC8
:1029400018460388284620F8013F00F0B3FC0446EF
:1029500018B900F0DFFC01232B70204638BD852418
:10296000FBE700BFA00D00202A7903000D2900001D
:1029700010B504460248FFF701FF207010BD00BFEC
:10298000D095030010B50A4601460448FFF7DCFE67
:10299000044600F0BFFC204610BD00BFD0950300E8
:1029A0001FB503788DF8003043680193037A8DF8E2
:1029B0000830C3680393054A054B684653F8213035
:1029C00052F82110984705B05DF804FBA40D0020D3
:1029D000AC0D00201FB503788DF8003043680193DB
:1029E00083688DF80830C3680393054A054B684631
:1029F00053F8213052F82110984705B05DF804FBD8
:102A0000A40D0020AC0D0020F0B5194B0778DFF8BD
:102A100070C043F82720174B96460A6943F82720D1
:102A20004B7F0CF807300C4606460FCC89B06D463C
:102A30000FC594E80F0085E80F00337804971CF861
:102A4000033053B1BEF1000F0B4A694608BF0022A4
:102A5000301D01F005F909B0F0BDBEF1000F074AC5
:102A6000694608BF002206F10C0000F0C5FEF2E73F
:102A7000AC0D0020A40D0020A1290000D5290000E4
:102A8000F62F0020074A084B1360084A03F1100193
:102A90001160074A03F120011160064A0120C2F8C3
:102AA00004357047EC0D0020BC0D0020B80D00204F
:102AB000B40D002000E0004010B5114B044618682A
:102AC000884202D0102232F050FF0E4B0022C3F891
:102AD000002101221A604FF08070D3F8002162B10A
:102AE0000022C3F80021084B1968A14203D010222C
:102AF000204632F03AFF012001E00138EDD110BD4F
:102B0000B80D002000E00040B40D0020024B01464B
:102B10001022186832F029BFEC0D0020024AD2F8CA
:102B20000034002BFBD0704700E001400A4908B593
:102B30000223C1F80435BFF36F8FBFF34F8FC1F885
:102B40000805FFF7EBFF0023C1F80435BFF36F8FD3
:102B5000BFF34F8F08BD00BF00E0014070B50E4DC0
:102B600016460122C5F80425BFF36F8FBFF34F8FC0
:102B70000024B44207D10023C5F80435BFF36F8F9A
:102B8000BFF34F8F70BD51F8243040F82430FFF769
:102B9000C5FF0134EDE700BF00E0014000F18040D7
:102BA0000023036082B003680193019B02B0704769
:102BB000054A13792BB90121106011715371184620
:102BC00070478520704700BFF00D0020084B1A6841
:102BD000D20706D4C02283F800230122C3F8802143
:102BE0001A604FF080430122C3F81825704700BFD8
:102BF00000E100E008B54FF48270FFF7CFFF4FF01F
:102C000080430222C3F8042301229A6008BD08B55C
:102C10004FF48070FFF7C2FF4FF080430122C3F8EA
:102C200004231A6008BD0000074B01221A604FF010
:102C30008042D2F80C3403F00113B3F1011FF8D035
:102C4000024B00225A71704704000040F00D002032
:102C500010B5124B1B6873B14FF48070FFF79EFFE5
:102C60004FF080430122C3F808230D4B587910B967
:102C70005A711B6898470B4B1B6873B14FF48270F5
:102C8000FFF78CFF4FF080430222C3F80823044B68
:102C900001201B68BDE81040184710BD000100402E
:102CA000F00D00200401004000F1804000F5C0401C
:102CB000002382B0036003680193019B02B0704758
:102CC00003681F2B83BF03F01F03036001484FF00D
:102CD000A04070470003005007B502AB43F8040D55
:102CE0001846FFF7EDFF019B00EB8300D0F800379B
:102CF00023F44033C0F80037D0F8003743EA0141ED
:102D0000C0F8001703B05DF804FB0000054B4FF05E
:102D1000FF32072843F8202084BF1B1883F84C207B
:102D2000704700BFF80D002010B5174C94F85B30C9
:102D300043BBFF21E2180133302B82F82410F9D174
:102D40000021C8B2FFF7E2FF01310929F9D10021C2
:102D500006220E4832F02EFE0D4BC02283F80623C9
:102D60004022C3F880214FF4BE701A60FFF79CFF29
:102D7000084B4FF00042C3F80423012384F85B3072
:102D8000002010BD082010BDF80D00204D0E0020C1
:102D900000E100E000600040034B93F85B0000306E
:102DA00018BF0120704700BFF80D002030B5374C28
:102DB0002318024693F92400013085B064D1887845
:102DC000002852D0002354F8235001354FEA8300E5
:102DD00045D1A51800F1804085F82430002500F584
:102DE000C04044F82350D0F810550B784C7825F4A7
:102DF00099151B04240525F4F85504F4801403F4F4
:102E00004033C0F8105523431402D0F8105504F491
:102E10007C5423432B43C0F810354978012928D12D
:102E200004A840F80C2DFFF74BFF019B9940C0F818
:102E3000081504A840F8042DFFF742FF039B03F593
:102E4000E073032140F82310D308114902F0070072
:102E500001228240C85C0243CA54002003E00133CF
:102E6000082BB0D1042005B030BDFE2083F824002B
:102E7000D3E704A840F8082DFFF722FF02990123A9
:102E80008B40C0F80C35D4E70820ECE7F80D0020A3
:102E90004D0E002037B517490D18044695F824004B
:102EA000072809D8FFF732FF95F92430124A03F5B5
:102EB000A273002042F823000B19FF220F4D83F864
:102EC0002420E10804F0070301229A406B5C1342BE
:102ED0000ED002A840F8044DFFF7F2FE019B03F567
:102EE000E073022440F823406B5C23EA02026A5438
:102EF00003B030BDF80D0020006000404D0E0020F2
:102F0000074B184490F924309B0003F1804303F5EC
:102F1000C043D3F8102542F00302C3F810257047D0
:102F2000F80D0020054B184490F924000C30800067
:102F3000C0B200F1804000F5C0407047F80D00209D
:102F4000054B184490F9240018308000C0B200F1FD
:102F5000804000F5C0407047F80D00200A4B18442F
:102F6000003190F924304FEA830303F1804303F5E5
:102F7000C04318BF0121D3F8102522F4801242EA81
:102F80000152C3F810257047F80D00202DE9F047D5
:102F900088B00024614A624E624D0294039401217C
:102FA000A2F5C04052F8043B012B80B206D1D6F8FE
:102FB00004330B4202D0FFF777FE0C43AA424FEADC
:102FC0004101EDD1584B1B68012B0ED14FF4BE705F
:102FD000FFF76AFE4FF0A04344F00044D3F81035E9
:102FE0000293524BD3F81035039314F0FF0F30D1F6
:102FF000002C80F2888004AD002304936B604C4E5B
:10300000DFF828814FF0FF3306930793012796F9E5
:103010005420531C77D0D2B222F0C00408ABE00891
:1030200003EB000A02F007011AF8083C07FA01F165
:103030000B4268D03319920993F9243056F8239043
:10304000B9F1000F21D1032A5DD12B5C0B432B5426
:103050001DE0374F01260025344210D0AB0003F1AC
:10306000804303F5C043D3F81005D3F8101557F883
:10307000253023B1C1F30141C0F305209847013544
:10308000082D4FEA4606E7D1B2E7032ADDD008A8AB
:1030900040F81C4DFFF714FE019B03F5E07350F858
:1030A00023301AF8180C0842C3F3014305D0022B51
:1030B00029D1032A1CD1114604E0032B23D1032A72
:1030C00016D102212046FFF707FEB9F1000F1DD1EE
:1030D0004FF0A0430299D3F81025D8F8103591424B
:1030E00017D002920393049A059B069207938EE7EA
:1030F000B9F1000F07D04FF0000A11462046C8472B
:10310000BAF1000FE4D108B0BDE8F0874FF0010A32
:10311000F3E703999942F6D0E3E700BF006100406E
:1031200000600040206100407C61004000030050CE
:10313000F80D00202DE9F84F124D134F80464FF047
:10314000000A04264FF001095FFA8AFB002009FA01
:103150000BF4FEF729FD2C4208D03B6814EA030269
:1031600001BF23433B6088F800B016460020FEF7FD
:103170001DFD1EB1A5430AF1010AE5D13046BDE8A7
:10318000F88F00BFFFFF0F00540E002010B5012480
:103190008440C4F313037BB1084B0020C3F80845F7
:1031A000FEF702FD064A1368002023EA04041460B7
:1031B000FEF7FCFC002010BD072010BD00F0014010
:1031C000540E002010B5A1B19AB101238340C3F37E
:1031D000130484B10A4C246823420ED0C00000F1CD
:1031E000804000F5F830C0F81015C0F81425002014
:1031F00010BD0E2010BD072010BD082010BD00BF5F
:10320000540E0020012303FA00F0C0F313031BB196
:10321000054B1B68184204D0044BC3F8040500207A
:1032200070470820704700BF540E002000F0014096
:10323000012303FA00F0C0F313031BB1054B1B6815
:10324000184204D0044BC3F808050020704708203A
:10325000704700BF540E002000F00140014B1B6876
:10326000184700BF580E002038B50A4B98420D464B
:103270000CD10020FEF798FC074B1C7914B90122F1
:103280001D601A710020FEF791FC0CB9002038BDBA
:10329000112038BD00200040580E0020034B9842FA
:1032A00001BF034B00221A601A71704700200040D2
:1032B000580E002010B5134C22780ABB124B19602F
:1032C000037813F0010F114B1EBFD3F8042542F011
:1032D0000102C3F80425D3F8002222F00102C3F84A
:1032E000002243780A4A5B01DBB282F80D334FF4C7
:1032F0000053C2F88031136001232370002010BDF9
:10330000852010BD640E0020600E002000D000401B
:1033100000E100E0064B00221A6082B01B680193B6
:10332000019B044B0122C3F804231A6002B07047CA
:1033300000D1004000D00040024A0123C2F8083307
:103340005360704700D0004007B5084B00221A6058
:103350001B680193019B064BD3F80805054BC0B2CF
:103360001B68984703B05DF804FB00BF00D1004024
:1033700000D00040600E00202DE9F34700240646EF
:103380000F46904600F5A0754FF48039A24644459B
:1033900002D102B0BDE8F08704F150002B68800034
:1033A00080B26BB1D6F8043309FA04F21A4207D09E
:1033B000C5F800A02B680193019B79683B6898478A
:1033C00001340435E3E70000F7B50579364C0C26E7
:1033D0006E43A7193B7A002B63D1A2514A687A60E9
:1033E0001A461F464379D6B2B34202F1010203687E
:1033F0004FD81A0B56B2CB78002E4FEA4313AFBF0B
:1034000006F1604202F00F02284EDBB2A9BF02F5BE
:103410006142B354DBB282F8003303681B0B03F044
:103420001F0643F3C40323F0604323F0030303F1B7
:10343000604303F56143012202FA06F6C3F8806196
:103440001E6007684B78D7F8046503F0030326F085
:1034500003063343C7F8043507688B78D7F8086547
:1034600003F0030326F003063343C7F80835066864
:103470000B78D6F8100503F00F0320F00F010B4373
:10348000C6F810350C2303FB05440020227203B05C
:10349000F0BDB60006F5A0769F519B590193019BA4
:1034A000A0E70820F3E700BF680E002014ED00E05D
:1034B000036801221A600379034A0C2101FB0323EC
:1034C00002221A72704700BF680E00200368044988
:1034D00001221A6103790C2000FB03131A72704752
:1034E000680E002038B503681B0B5AB2012152093F
:1034F00003F01F0301FA03F320320C4941F8223094
:1035000003680025D3F80022C3F8005203684FF087
:10351000FF320446C3F80823FFF7D8FF2379044A93
:103520000C2101FB03231D7238BD00BF00E100E048
:10353000680E00200379044A0C2101FB0323187A4A
:10354000831E584258417047680E002003680122CC
:10355000DA60704773B54FF480348C4005688BB1E6
:103560008B0003F5A0730026EE50EB580193019BEE
:103570000368C3F80443036801F5A87143F82120E8
:1035800002B070BDC5F80843F5E7F0B507689DF8CF
:1035900014E0D7F8004240F201158D4024EA0504FA
:1035A000C7F800420568D5F800422343C5F8003249
:1035B0007346BDE8F040FFF7CDBF01F1500313B5EE
:1035C0009B0002689BB20024D450D3580193019B06
:1035D00002684FF4803303FA01F1C2F8041302B019
:1035E00010BD02684FF4803303FA01F1C2F80813EA
:1035F00070470000042202490248FFF7BDBE00BF29
:10360000680E002000A00040062202490248FFF791
:10361000B3BE00BF740E002000A001400023435041
:1036200082B043580193019B02B070470A4610B51F
:103630004FF48E71FFF7F2FF136A9168C95C136A49
:1036400001331362C0F81C1510BD10B58B690A4612
:103650004FF4847123B9FFF7E1FFD0F8183510BD9E
:10366000FFF7DCFF536AD168D0F81805C854536AD5
:103670000133536210BD00001FB501238DF80030E7
:10368000044B02900191684693E80600904705B00C
:103690005DF804FB800E002030B54D4AD2F80433AB
:1036A00013F4007F85B015464FD0D2F82431002B9B
:1036B0004BD04FF492711046FFF7B0FF4FF40173F7
:1036C000C2F80833434B93F8291009B9012151601E
:1036D0003F4902228DF80020D1F88024C1F88024CF
:1036E00003929A690292DA68019200229A61DA6181
:1036F000684693E8060090473548D0F81C315BB126
:1037000034490A6A4B699A420A464CD291F82830E9
:10371000002B48D1FFF78AFF2D4AD2F8443193B1EC
:103720004FF4A2711046FFF779FF2A4B93F8291046
:1037300009B1012111609A692AB100229A61586A7F
:10374000D968FFF799FF05B030BDD5F804335B07A2
:10375000D2D5D5F80831002BCED01E4C1C482146BE
:10376000FFF773FF636AA2699A422346C4D1E269F4
:1037700052B12369E168E3600023606AA261E361FA
:103780006362FFF779FFB7E794F829200AB90122AD
:103790006A600F4A4FF40171C2F8081300229A615F
:1037A000586AD968EDE74FF48E710948FFF736FF84
:1037B00051690029B0D00023029191688DF8003042
:1037C00001915361684692E80A009847A4E700BF58
:1037D00000200040800E00201F2886BF00F01F0040
:1037E000044B4FF0A04300F5E070022243F8202084
:1037F000704700BF000300502DE9F843704B067975
:1038000091462C2202FB0632054692F82A200C46ED
:103810009846002A40F0D0806A490068FFF724FDEE
:103820000746002840F0CA8023685A1C19D01F2B75
:103830004FF001028ABF64494FF0A04103F01F031B
:1038400002FA03F3C1F8083523681F2B86BF03F083
:103850001F035D4A4FF0A04203F5E073032142F8D5
:1038600023106368581C0BD01F2B86BF03F01F0367
:10387000554A4FF0A04203F5E073002142F82310AF
:103880002B68A269C3F82425217D637D2A680B4338
:10389000C2F86C3594E806002B68C3F81425C3F809
:1038A0000C15237D012B32D1A368591C0BD01F2B83
:1038B00086BF03F01F03444A4FF0A04203F5E073B4
:1038C000002142F82310E3685A1C19D01F2B4FF037
:1038D00001028ABF3C494FF0A04103F01F0302FAE6
:1038E00003F3C1F80835E3681F2B86BF03F01F03FD
:1038F000354A4FF0A04203F5E073032142F823104C
:103900002B68E268A168C3F80825C3F810152C23BA
:10391000734308EB0302C2F80490226948F80320BD
:10392000B9F1000F35D04FF48E712868227FFFF770
:1039300075FE4FF4A2712868FFF770FE2B682349CB
:10394000C3F804132868000B41B200294FEA421360
:10395000B7BF00F00F0001F160421D4ADBB2A9BF02
:1039600002F561421354DBB282F800332B681B0B63
:1039700003F01F0143F3C40323F0604323F0030368
:1039800003F1604303F5614301228A40C3F88021BB
:103990001A602B680422C3F800252C2303FB06833E
:1039A00000229A61DA6183F829205A61012283F8A2
:1039B0002A203846BDE8F8830827FAE71127F8E7F8
:1039C000800E0020993600000003005080000200A5
:1039D00014ED00E02DE9F04103680479274D002241
:1039E000C3F800252C2303FB045301465B6883B115
:1039F0000368234AC3F8082303681B0B5AB201204B
:103A0000520903F01F0300FA03F320321D4840F867
:103A100022300B684FF0FF32D3F80C05D3F8148531
:103A2000D3F80865D3F81075C3F81425C3F80C252E
:103A30000B689042C3F80825C3F8102501D0FFF7A2
:103A4000CBFEB8F1FF3F02D04046FFF7C5FE7A1C1F
:103A500002D03846FFF7C0FE731C02D03046FFF795
:103A6000BBFE0868FFF71AFC2C2303FB0454002359
:103A700084F82A306360BDE8F08100BF800E00202A
:103A80008402020000E100E02DE9F843234B0779AE
:103A90004FF02C0909FB0734064665699846002D4E
:103AA00035D16261A160256284F828504FF48E718F
:103AB0000068FFF7B3FD336801229A602146306841
:103AC000FFF7B4FD6368A14623BB3568226A6369CA
:103AD0009A4211D33368D3F81C21002AFBD001226B
:103AE000DA6000202C2303FB078700237B61BDE8FD
:103AF000F88394F8283043B9D5F81C31002BF8D05E
:103B000049462846FFF792FDE0E70F20EAE711203B
:103B1000BDE8F8832846BDE8F88300BF800E00208A
:103B20000023435082B043580193019B02B0704779
:103B30001FB501238DF80030054B8DF80800019169
:103B4000684693E80600904705B05DF804FB00BFA7
:103B5000AC0E00207FB5384AD2F82461002E49D03F
:103B600010464FF49271FFF7DBFF02238DF800300F
:103B7000D2F88034C2F880340393D2F83C358DF803
:103B800008302E4BDA68019200229A61DA616846A9
:103B900093E806009047284AD2F8443173B14FF4B5
:103BA000A2711046FFF7BCFF244B996931B1002187
:103BB0009961D2F83C05D968FFF7BAFF1E4AD2F8DE
:103BC0002031ABB14FF490711046FFF7A9FF1B4BAA
:103BD000596969B1D2F84C158DF80810002299681E
:103BE0008DF8002001915A61684693E806009047DD
:103BF00004B070BDD2F81031002BCCD04FF48871D6
:103C00001046FFF78DFF0D4BD2F83C0599698842AD
:103C1000C1D1DC696CB1D2F80052D96825F0200519
:103C2000C2F800521A699C61DA60DE61FFF780FF1A
:103C3000B1E79C61D968F9E700200040AC0E002094
:103C40001F2886BF00F01F00044B4FF0A04300F573
:103C5000E070022243F82020704700BF00030050AC
:103C60002DE9F843744B06799146242202FB063273
:103C7000054692F820200C469846002A40F0D8804D
:103C80006E490068FFF7F0FA0746002840F0D2803E
:103C900023685A1C19D01F2B4FF001028ABF6849B4
:103CA0004FF0A04103F01F0302FA03F3C1F80835F7
:103CB00023681F2B86BF03F01F03614A4FF0A04209
:103CC00003F5E073032142F823106368581C0BD0FE
:103CD0001F2B86BF03F01F03594A4FF0A04203F584
:103CE000E073002142F823102B68A269C3F8242551
:103CF000217D637D2A680B43C2F86C352B682268EE
:103D00006168C3F80C25C3F81415237D012B32D14B
:103D1000A368591C0BD01F2B86BF03F01F03484A12
:103D20004FF0A04203F5E073002142F82310E3684E
:103D30005A1C19D01F2B4FF001028ABF40494FF087
:103D4000A04103F01F0302FA03F3C1F80835E3684A
:103D50001F2B86BF03F01F03394A4FF0A04203F523
:103D6000E073032142F823102B68E268A168C3F8CE
:103D70000825C3F810152423734308EB0302C2F887
:103D80000490226948F80320B9F1000F3FD04FF4A6
:103D900088712868227FFFF7C3FE4FF4907128686E
:103DA000FFF7BEFE4FF492712868FFF7B9FE4FF49B
:103DB000A2712868FFF7B4FE2B682249C3F80413E8
:103DC0002868000B41B200294FEA4213B7BF00F048
:103DD0000F0001F160421C4ADBB2A9BF02F561424B
:103DE0001354DBB282F800332B681B0B03F01F0166
:103DF00043F3C40323F0604323F0030303F1604360
:103E000003F5614301228A40C3F880211A602B68C0
:103E10000822C3F80025242303FB068300229A61AD
:103E2000DA615A61012283F820203846BDE8F88320
:103E30000827FAE71127F8E7AC0E0020553B0000F1
:103E4000000300501003020014ED00E02DE9F041E2
:103E500003680479274D0022C3F80025242303FBBF
:103E6000045301465B6883B10368234AC3F80823FF
:103E700003681B0B5AB20120520903F01F0300FA1A
:103E800003F320321D4840F822300B684FF0FF3218
:103E9000D3F80C05D3F81485D3F80865D3F810755A
:103EA000C3F80C25C3F814250B689042C3F8082505
:103EB000C3F8102501D0FFF7C3FEB8F1FF3F02D0D1
:103EC0004046FFF7BDFE7A1C02D03846FFF7B8FE29
:103ED000731C02D03046FFF7B3FE0868FFF7DEF927
:103EE000242303FB0454002384F820306360BDE8DE
:103EF000F08100BFAC0E00201003020000E100E0E2
:103F000001F06043B3F1005F2DE9F041064635D181
:103F10001F4B0779242505FB073598466C69002C53
:103F20002FD16A61A96000684FF49071FFF7F8FD26
:103F30004FF4AC713068FFF7F3FD33686A69A96824
:103F4000C3F84415C3F84825336801229A606B68AA
:103F5000D3B93268D2F82011D2F8583149B9002BC0
:103F6000F8D00F20242303FB078700237B61BDE8E3
:103F7000F081002B14BF0F200020F3E71020BDE8D4
:103F8000F0811120BDE8F0812046BDE8F08100BF3E
:103F9000AC0E0020F8B5134B134D5B8885F87A0002
:103FA000022B06460AD9114B11481249C01AC00803
:103FB0000004324640F00300FCF7BAFD6424744369
:103FC00024120D4EA7B23A4600213046FDF746FCBA
:103FD0001128F8D014B985F87440F8BD012385F88C
:103FE0007430F8BD8C050020502D0020E8950300AA
:103FF00028960300747903006C790300F8B540F249
:104000005F1200214D4D09F0AFF9182109F0D2F8E7
:104010006B88022B04460AD9494B4A4822784A4900
:10402000C01AC008000440F00300FCF781FD002323
:10403000636023789BB1072B75D16B88022B0AD95B
:104040003F4B4048227A4149C01AC008000440F062
:104050000300FCF76DFD207AFFF79CFF2DE0227A2C
:10406000A67A062A3CD16B88277B022B5FD9344B7A
:1040700034483749C01AC00800043A4640F00300EB
:10408000FCF756FDCEB96A88324E022A86F8747063
:104090000AD92B4B2B483049C01AC00800043A46B5
:1040A00040F00300FCF744FDBFB92C4E002211463E
:1040B0003046FDF7D3FB1128F8D06B88022B38D996
:1040C0001F4B204862682649C01AC008000440F00F
:1040D0000300BDE8F840FCF72BBD96F87A00BBE77B
:1040E000082A12D16B88A789022B23D9144B1548B3
:1040F0001C49C01AC00800043A4640F00300FCF70F
:1041000017FD002ED9D13846A6E76B88022B10D9AF
:104110000B4B0C481449C01AC008000440F00300BF
:10412000FCF706FDC9E74FF0FF336360C5E7002EDB
:10413000A9D0F8BD002EFCD1E5E700BF8C0500201A
:10414000E8950300289603009C7A0300B17A0300E7
:10415000CD7A0300502D0020ED7A03006C79030026
:104160004C7B0300027B0300297B030008B503F0AE
:10417000E1FE437B33B1FCF74BFB18B9BDE80840C7
:10418000FCF7F0BF08BD000037B50021044614F06D
:1041900039FB40F29D1205460021204609F0E4F863
:1041A000052DB0F9043003D3062D11D9142D71D08B
:1041B000424A5288022A1DD9414A42484249801A3D
:1041C000C00800042A4640F00300FCF7BBFC11E0E5
:1041D0003A4DE3B96B88022B09D9394B39483B4931
:1041E000C01AC008000440F00300FCF79DFC022048
:1041F000FCF794FE002C5ED040F2C1120021204654
:1042000009F0B2F803B0BDE8304008F077BE6A8824
:1042100052B12B4A2B482E49801AC00800041A4676
:1042200040F00100FCF784FC0220FCF78BFE02202A
:1042300000F000FE0128DDD06B8863B1204B2148DF
:10424000244A2549C01AC00800044FF4D77340F02F
:104250000100FCF777FC6B889BB10120FCF7F0FEB6
:10426000184D174B1D49ED1AED084FF4D7732D0467
:1042700001930122174B0093034645EA0200FCF725
:1042800077FCFCF7C5FA0028FBD144F62160FDF766
:10429000ADF9AFE7002BADD0084B5B88012BA9D956
:1042A000074B08480E49C01AC008000440F002003D
:1042B000FCF73AFC9EE703B030BD00BF8C05002040
:1042C000E8950300289603007C7A0300BF79030079
:1042D000DB790300FE7903000E7A0300397A0300CC
:1042E000507A03002DE9F047002188B00846FCF71A
:1042F000DBF908B1FDF77AF9FCF7F4F80320FCF7D5
:1043000045FE4FF0FF33002403900493012041F257
:10431000883306908DF814408DF815400793FCF70C
:104320003BFE224603A96048FDF7A2FA08B1FDF75B
:104330005DF95D485C4CFDF7EBFB632200212046F4
:10434000FDF78CFA1128F8D0584B594C00251D70F8
:10435000584B1D80584B1D7009F0C2F909F0C2F985
:1043600003A8FCF7E7FE03A80DF0DAFA4FF480305B
:104370000DF0FFFA0A200DF0FFFA28460DF0D8FAEA
:10438000C3200CF0B7F829467E22204631F012FBFC
:104390000EF0ECF9494BC0F8A030494800F084FA1F
:1043A000012602230B274FF00A08062245492370F5
:1043B0004FF0060A601D6670E77084F8028031F0E5
:1043C000D4FA1222404984F804A004F1250031F007
:1043D000CCFA122384F8243008223C494FF0080913
:1043E00004F1450031F0C1FA04233A46384984F813
:1043F000449004F1560084F8543031F0B6FA84F851
:10440000557008AFFF2307F8156D84F86650A4F8BF
:10441000685084F86A5084F8746084F87A30A4F89C
:104420007C502B46324601955146009740460DF090
:10443000BDFD94F87A308DF80B3032462B46494654
:104440000195009740460DF0B1FD94F87A00FFF712
:10445000A1FD0DF097FA45420646FDB11D4B5B8864
:104460009BB12846FCF7ECFD1B4C1C4B1C49E41A85
:10447000E4084FF4F873240401931A4B00932A467E
:10448000034644F00100FCF773FBFCF7C1F9002878
:10449000FBD1C6F59C402030FDF7A8F80DF074FA6A
:1044A000FCF7B6F9FAE700BF6C7903002802002098
:1044B000502D00202A0200202C020020FD3F000089
:1044C000EB0000209079030097790300AA7903009C
:1044D000B37903008C05002028960300E8950300BB
:1044E000397A0300FE790300054B1B68082B01BFD6
:1044F000044B1868B0FA80F0400918BF00207047DC
:10450000300100103401001008B54FF08043002244
:10451000C3F80C21C3F81021C3F838254FF080529E
:1045200003F54043D2F80414C3F82015D2F8081458
:10453000C3F82415D2F80C14C3F82815D2F81014B7
:10454000C3F82C15D2F81414C3F83015D2F8181487
:10455000C3F83415D2F81C14C3F84015D2F820144F
:10456000C3F84415D2F82414C3F84815D2F8281417
:10457000C3F84C15D2F82C14C3F85015D2F83014E7
:10458000C3F85415D2F83414C3F86015D2F83814AF
:10459000C3F86415D2F83C14C3F86815D2F8401477
:1045A000C3F86C15D2F84424C3F87025FFF79CFFBC
:1045B00010B1384B384A1A60FFF796FF18B1374BE5
:1045C000FB22C3F81825FFF78FFF48B13449354B5C
:1045D0000A681B6822F00F0203F00F0313430B60FD
:1045E000FFF782FF18B1304B4FF400721A604FF0A2
:1045F0008043D3F80024D20744BF6FF00102C3F810
:1046000000242A4AD2F8883043F47003C2F8883074
:10461000BFF34F8FBFF36F8F4FF01023D3F80022FB
:10462000002A03DBD3F80432002B2FDA204B0122BF
:10463000C3F80425D3F80024002AFBD04FF0102241
:104640001221C2F80012D3F80024002AFBD04FF048
:1046500010231222C3F80422154B1A46D3F8001473
:104660000029FBD00021C3F80415D2F80034002B38
:10467000FBD0BFF34F8F0D490E4BCA6802F4E062C6
:104680001343CB60BFF34F8F00BFFDE70A4B0B4ACC
:104690001A6008BD8C5600404881030000F00040BD
:1046A000E40E0040580200104096024000ED00E089
:1046B00000E001400400FA05240200200090D0032D
:1046C00070B5194CB4F8565884F8623825F00705CF
:1046D000054305F0E70545F48045A4F85658DD018B
:1046E000022845EA810134BF0226002641EAC201C0
:1046F0003143342284F8581884F8592800211222B2
:1047000084F85A2888424FF06C0284F85B2842F6FD
:10471000412218BF4FF42852A4F85C18A4F85E2870
:10472000A4F8601870BD00BF8C30002030B50A4D71
:10473000B5F8634824F00F04204320F0F00040EA6D
:10474000011020F4706040EA0220C0F30B0040EA40
:104750000330A5F8630830BD8C30002070B5837934
:104760008B4205460C46164604D8A9214FF44960F1
:1047700008F02CFE043425F8146070BD70B5C379C0
:104780008B4205460C46164604D8B7214FF44960C3
:1047900008F01CFEAB791C44043425F8146070BD8D
:1047A00070B51C4D1C4E95F86A280023082102F0B4
:1047B000F00285F86B1863F30712092185F8653854
:1047C000A5F86638A5F8683885F86C1885F86A2861
:1047D00085F8A8381C4605F6650536F81420E1B2C0
:1047E00028460134FFF7BAFF082CF6D10B4E0C4DCA
:1047F0000024325DE1B228460134FFF7BFFF092CE7
:10480000F7D10C23032207210020BDE87040FFF7F9
:104810008DBF00BF8C300020667B0300767B0300D9
:10482000F1380020031C4FF0010218BF012311468C
:10483000FFF746BF08B50A4B93F8CD21003218BFE9
:104840000122114601230220FFF73AFF01220C2327
:1048500011460020FFF76AFFBDE80840FFF7A0BF40
:104860008C30002007B50F4B93F8A828052A0AD8EA
:10487000511C83F8A81803EB8203C3F890080020AA
:1048800003B05DF804FB0423019200934FF0FF3066
:1048900040F219134FF4496201210CF03FFF6FF011
:1048A0001C00EDE78C300020F7B50DF029F90DF074
:1048B0005DFF83681B780193042300934FF44962E2
:1048C00040F2271301214FF0FF300CF027FF0025A5
:1048D0000DF04CFF83681B78ECB2A3420CD80DF0AE
:1048E00033F900284FD14FF49D714FF4496003B064
:1048F000BDE8F04008F06ABD0DF038FF8368D3F8DA
:10490000013053F82430D3F81500FFF7ABFF0DF05A
:104910002DFFD0F8B030A70063B10DF027FFD0F81D
:10492000B0600DF023FF8368D3F8013053F82430D2
:104930001878B04700260DF019FF8368D3F80130CE
:10494000DB591B7CF4B2A34201D80135C0E70DF05E
:104950000DFF8368D3F80130DB59D3F81130C4EB75
:1049600004142344D3F80B305BB10DF0FFFE8368D1
:10497000D3F80130DB59D3F811301C44D4F80B3094
:1049800098470136D7E703B0F0BD000013B5224ABF
:1049900092F8CD43014604F00E000228134614D1CC
:1049A000D2F8B40390B123466FF3430382F8CD33BA
:1049B000012382F8AF33C2F8BC03002317480093E9
:1049C0001A460CF09FFA02B010BD88B9D3F8B8238C
:1049D00072B1012283F8AF2393F8CD23032060F353
:1049E000430283F8CD23D3F8B823C3F8BC23E4E70C
:1049F000052283F8AF2393F8CD23012060F343020F
:104A000083F8CD2393F8C523824083F8C523002380
:104A100000931A460248D4E78C300020497B0100FD
:104A20006D4A000013B540F217224FF4D5710446C9
:104A300008F09AFC052108F0BDFB0A4BD3F8BC2313
:104A4000026093F8C423027193F8A92883F8AC2874
:104A5000002300931A46214603480CF053FA02B093
:104A600010BD00BF8C300020E55F00002DE9F34150
:104A7000774E96F8C53305463446DBB996F8AE2333
:104A8000402A13D096F8CD23C6F8BC33012161F338
:104A9000430286F8AF1301466E4886F8CD23009393
:104AA0001A460CF02FFA02B0BDE8F08186F8C52353
:104AB000009388E0402B05D10023014600931A465D
:104AC0006548EEE7102B1ED1202386F8C53396F8F3
:104AD000AF33012B08D196F8D333002262F30003E1
:104AE00086F8AF2386F8D33394F8AF2394F8CF1326
:104AF00000235242284613F06DFB002300931A4610
:104B000029465648CDE796F8AE231340DA0705D577
:104B10000023014600931A465148C2E79F0767D514
:104B200018F044FD0746002856D196F8AF83B8F137
:104B3000030F0DD196F8B033D80727D50A2339468D
:104B4000284686F8D03102B0BDE8F04103F074BBCE
:104B5000B8F10A0F1AD11023D9224FF4D571284683
:104B600086F8C53308F000FC414608F023FB082214
:104B70003946044630F01EFF28462772677286F8D1
:104B8000D08102B0BDE8F04105F0D0BC94F8B0137C
:104B900011F001010AD094F8C53313F0020387D055
:104BA000002300931A4629462E487AE794F8D32327
:104BB00012F002030BD0102384F8C533032384F8CA
:104BC000AF3300910B461A462946274869E7009300
:104BD0001A462946254864E74FF485724FF4D5718B
:104BE000284608F0C1FB02B0BDE8F04108F086B9E4
:104BF00059071AD596F8B033DA0716D496F8D83094
:104C0000012B09D094F82533DB070ED50023009340
:104C10001A462946164844E70822164906F54D70FB
:104C200030F094FE0028EDD1F0E794F8C5331F2B47
:104C300004D85B0084F8C533002339E7202384F8C7
:104C4000C533002D3FF42FAF40F22D12C6E700BF51
:104C50008C3000201150000085560000D9990100C9
:104C600095570000714D00006D4A0000794C00001E
:104C70008D4900009F81030037B53A4C94F8CD333D
:104C800003F00E010229054638D1D4F8B423AAB3A3
:104C900094F8252312F0010230D162F3430384F823
:104CA000CD33012384F8AF3314F0B0FF10B394F880
:104CB0001139012B1ED1D4F8BC23DAB994F8CE21D6
:104CC00003FA02F2C4F8BC2394F8CD2363F3430241
:104CD00084F8CD23D4F8BC331BB9D4F8B433C4F86A
:104CE000BC330023204800931A4629460CF00AF9E9
:104CF00003B030BD0023C4F8BC33EBE794F8253390
:104D0000DB0719D479B9D4F8B833ABB194F8CD3303
:104D1000032262F3430384F8CD33012384F8AF33D5
:104D2000D4F8B833DBE7022906D1D4F8B8331BB185
:104D3000D4F8B433002BE9D0032384F8AF3394F8CC
:104D4000CD330A48012262F3430384F8CD3394F84B
:104D5000C533934084F8C533002300931A4629468F
:104D6000C4E700BF8C300020254A00006D4A0000D7
:104D700038B54FF422724FF4D571054608F0F4FAB5
:104D8000042108F017FA00210446042230F012FE34
:104D90006FF0030323704FF0FF336370B423A370ED
:104DA0000123E37028460249BDE8384016F0C4BF2D
:104DB000B54D0000F7B540F29A224FF4D571044684
:104DC00008F0D2FAB0F90460184D5EBB95F8D830FF
:104DD000012B18D84FF429724FF4D571204608F0F2
:104DE000C3FA042108F0E6F904220746314630F000
:104DF000E1FDB423BB70B5F8C0313B8020460C49BF
:104E000016F09AFF344695F8C5335B0085F8C53334
:104E100034B1002300931A46214605480CF072F87D
:104E200003B0F0BD092385F8AF33ECE78C300020E8
:104E30006D4A000007B5144A92F8C53313F0DF033A
:104E400020D182F8C53392F8B03382F8AE0313F064
:104E5000010309D100931A4619460C480CF052F888
:104E6000012003B05DF804FB022807D1012382F87A
:104E7000AF330A2382F8C50382F8CF33044808F021
:104E800038F8EDE70020ECE78C300020398701008E
:104E90006D4A000008B50B4B93F82523520706D442
:104EA0001DF0B6FE437843F00103437008BD93F84C
:104EB000193E9B07F4D41DF0ABFE437823F00103A9
:104EC000F3E700BF8C30002070B54C4C86B0FFF784
:104ED000E1FF94F8D33302216FF3820304F54D70A0
:104EE00084F8D33318F04CFF002867D094F8D333FC
:104EF00043F0040384F8D33394F8D830032B07D15C
:104F000094F82533DB074CBF0023012384F8D83005
:104F100008223B493B4830F019FD002864D094F842
:104F2000E455C5F3800594F86033142B5ED8EDB2D8
:104F30006DB108223449354830F008FD94F8CD337E
:104F4000B0FA80F0400960F3000384F8CD3394F8A0
:104F5000D33365F3410384F8D3332DB11DF058FEEC
:104F6000437823F00103437094F8CD332449254856
:104F700094F8D86043F08003082284F8CD3330F0F1
:104F8000E5FC94F8D3330295C3F38003059394F8BA
:104F9000E43501960030C3F3800318BF0120049369
:104FA0001423039000934FF4D5724FF4CF73012173
:104FB0004FF0FF300CF0B2FB06B070BD082204F5D4
:104FC000E27104F54D7030F0C1FC00288ED094F8E9
:104FD000CD33DA078AD408220B4904F54D7030F03E
:104FE000B5FC002882D087E705469CE7002D9ED0BF
:104FF00094F8D353C5F3800599E700BF8C300020A7
:10500000A78103005C3100209F810300C033002092
:10501000F7B50546FFF758FF5D4B93F8D36316F0DD
:10502000020F1C4653D093F8B023D70714D593F83A
:10503000AE23042A10D10B2283F8CF23102283F849
:10504000C523002D00F08E80002300931A462946C8
:1050500050480BF057FF85E094F8D870A7B994F842
:10506000B0334D4843F0010384F8B0333A4600971B
:105070003B4629460BF046FF0025062384F8CF3334
:10508000012384F8C533DCE7012F0ED116F00106A9
:105090000BD194F8B033414843F0010384F8B033A6
:1050A0003246009633462946E4E794F8AE33012BA6
:1050B000E3D04FF4E8724FF4D571284608F054F964
:1050C0000123D4F82823364913F092FCD4E70822B0
:1050D000344903F1D00030F039FC10BB94F8E435CA
:1050E00058071ED494F8D333590705D494F8AE3337
:1050F000042B39D10B23C1E7082204F5E27104F532
:105100004D7030F023FC0028F0D094F8CD33DA074E
:10511000ECD40822244904F54D7030F017FC002827
:10512000E4D008221F491E4830F010FCF0B194F87A
:105130006033142B03D994F8D3335B0716D54FF49F
:10514000FE724FF4D571284608F00EF90023D4F80A
:105150002823134913F04CFC062384F8CF33012392
:1051600084F8C53303B0F0BD052387E7002400941D
:1051700040F206234FF4D57201214FF0FF300CF0BE
:10518000CDFA2146284603B0BDE8F04003F054B8FC
:105190008C3000206D4A0000795D0000397A0100F2
:1051A0005C310020A78103009F81030038B50221F4
:1051B0001B481C4C18F0E4FDB0B1012508221A4927
:1051C0001A4830F0C3FB18B194F8E405C0F380002E
:1051D00094F86033142B1ED894F8D333C0B260F324
:1051E000410384F8D33338BD04F5E271082201F598
:1051F000B87030F0ABFB0028DFD094F8CD33DB077C
:10520000DBD408220A4904F54D7030F09FFBB0FA58
:1052100080F56D09D2E7002818BF2846DCE700BFFB
:10522000C03300208C300020A78103005C310020B7
:105230009F81030007B5124B93F8AF230A2A05D1CB
:10524000104803B05DF804EB07F053BE032A0CD1FD
:10525000012283F8AF23002300931A4619460A4817
:105260000BF050FE03B05DF804FB202283F8C52349
:10527000032283F8AF2303B05DF804EB13F0ECBA1C
:105280008C3000206D4A00003987010073B5C222BE
:1052900040F60901274C054608F066F81DF0B8FCF9
:1052A00094F8CE3180F8543094F8D830032B08BFEE
:1052B00001234FF0D80240F60901284608BF84F8C0
:1052C000D83008F051F894F8D830022B06460ED1A9
:1052D00094F8CE2194F8E435012101FA02F216493E
:1052E000C3F3800302B0BDE8704013F081BB94F8B3
:1052F000B0330E2143F0010384F8B03307F05AFFB6
:10530000082205460C4930F030FBB4F8C2312B813D
:1053100094F8CE31AB72B4F8C031AB81304607F0AF
:105320006DFD0023014600931A4604480BF0EAFD88
:1053300002B070BD8C3000205C310020D95D0200CD
:1053400037B50B4C4FF6FF730546A4F8C0310BF090
:10535000D5FB084B00930130A4F8C201022304F5E9
:10536000E1725021284605F001FC03B030BD00BFBA
:105370008C300020212C0200F7B5704C94F8CD330E
:10538000C3F342030546052B00F2C980DFE803F0B2
:105390004003C76095A294F898315B0706D068482F
:1053A00018F0F2FA10B1664818F03EF9052384F8B7
:1053B000D13394F8CD33002666F3430384F8CD331C
:1053C000012784F8AF7384F8D2631DF025FC4FF4F5
:1053D0009072314630F0EEFA1DF01EFC07601DF0B1
:1053E0001BFC0223036194F8CE33564A13F0010FDD
:1053F00009BFD4F82833C4F8BC231340C4F8BC3325
:105400000023514800931A4629460BF07BFD42E0E9
:1054100094F9CD33002B1BDA94F8CE334B4A13F0BA
:10542000010F0ABFD4F82833C4F8BC23134094F802
:10543000CD2308BFC4F8BC330321012384F8D13342
:1054400061F34302002384F8D23384F8CD23D8E7F4
:105450001DF0E2FB067D06BB092384F8CF33082349
:1054600084F8AF3394F8C5335B0084F8C5331DF07E
:10547000CFFB90F85530002B48D01DF0C9FB90F8B9
:10548000553084F8CE31324B0093324A01233146F5
:10549000284605F06BFB03B0F0BD94F8CD33042231
:1054A00062F3430384F8CD331DF0B6FB002343754C
:1054B0001A46009329462848A7E794F8CD330522D9
:1054C00062F3430384F8CD330023014600931A4668
:1054D00022489AE7092340F29D1240F6090184F818
:1054E000CF3307F041FFB0F90430A3B1042384F8AF
:1054F000AF3394F8C5335B0084F8C53394F8CD33EB
:10550000012262F3430384F8CD33002300931A464B
:1055100029460F4879E784F8AF331023ECE70024DD
:1055200040F2B113009440F6090201214FF0FF3020
:105530000CF0F4F800942346E9E700BF8C3000201B
:10554000C3310020008810028D5500000070EF0567
:105550006D4A00005A32002045340200352F020007
:1055600008B54FF4F17240F6090107F0FDFE054958
:105570001EF052FD102200210348BDE808400BF048
:105580003BBD00BF355600008D550000F7B528B96A
:10559000234803B0BDE8F04007F0ABBC214B93F8C3
:1055A000D12302B3013A83F8D123D3F8BC6393F833
:1055B000D21300240127CAB21F2A27D807FA01F5FF
:1055C000354201F1010114D00CB183F8D22393F8D4
:1055D000CE1191420FD100230146134800931A4681
:1055E0000BF090FC10E093F8D223013283F8D22321
:1055F000DBE70124DFE783F8CE210B4B00930B4A56
:105600000123002105F0B2FA03B0F0BD0CB183F81C
:10561000D2230023014600931A460548E0E700BF65
:105620008D5500008C300020615500005A3200205A
:105630006D4A000013B540F2E91240F60901044634
:1056400007F092FE03798BB10022FF210A480BF08C
:10565000A3FE0A4B0A48032283F8AF2300230093DA
:105660001A4621460BF04EFC02B010BD02B0BDE858
:10567000104007F043BC00BF8D5500008C30002067
:105680006D4A000037B50546394890F8C533402BC0
:1056900004462DD190F8AF33012B18D11DF0BCFA80
:1056A0000369052B0CBF0F230E2384F8CF3300238F
:1056B0001A4694F8CF13284612F08CFD00232D488B
:1056C00000931A4629460BF01DFC03B030BD032B96
:1056D0000ED1012380F8AF330822274900F54D7021
:1056E00030F043F9002300931A4629462348EAE79D
:1056F000FFF7D0FB402384F8C533012384F8AF3390
:1057000094F8B033D90705D5002300931A462946EB
:105710001B48D8E794F898315A071AD094F8D85013
:1057200005F0FD05012D14D108221349154830F06C
:105730001CF994F8253384F8D85043F0020384F818
:10574000253394F8CD3343F0010384F8CD3318F0BA
:1057500029F91DF05DFA43780B48DB074CBF0B4B72
:105760000B4BC4F81632002300931A461946AAE7D9
:105770008C300020D99901009F810300655B0200F5
:105780006D4A0000C03300203987010041530000FA
:105790008D52000013B504461DF03AFA437843F0E9
:1057A000100343701DF034FA437813F0010310D056
:1057B0000BF0A4F90A4A0B4B0130A2F8C2015021A8
:1057C000009302F5E1720223204605F0CFF902B002
:1057D00010BD00931A46214602480BF093FBF6E7F2
:1057E0008C300020795300001FB504AA0F2302F863
:1057F000013D044B00934621012305F0B7F905B0A4
:105800005DF804FB9558000073B54FF4C67240F67E
:10581000B801064607F0A8FD072107F0CBFC0822D7
:1058200004461749174830F091F828B9164908225C
:10583000A1F1F40030F099F8144D07220021204620
:1058400030F0B8F8B5F8C231238095F8CE31A370A6
:105850000023E37095F82513A2790D4861F3000247
:1058600063F38202A2710F222271627131460093AA
:105870001A460BF047FB042385F8D03102B070BD07
:10588000A78103005C310020503200208C300020C2
:10589000C1C8020073B54FF40E7240F6B801064657
:1058A00007F062FD1A2107F0DBFB45230446037075
:1058B00000210F22254B41708270C0F803300B305D
:1058C00030F078F8237B224D2249022262F3030351
:1058D00062F30713237395F83621637B0F2A94BF75
:1058E00062F3C60343F078036373082204F10E00E9
:1058F00030F03BF803224FF0FF3104F1160030F096
:1059000059F895F8351195F8343195F83321124846
:105910000B449A42D8BF95F8CC21637BDDBF62F37C
:105920008203637395F8CC2143F08403D8BF62F3FC
:10593000C713637395F8D9306376002300931A4632
:1059400031460BF0DFFA02B070BD00BF5D590000B8
:105950008C3000205C3100209DE3020073B5134DB4
:10596000D5F812320646ABB140F27F2240F6B801BC
:1059700007F0FAFC00248480D5F812020094234634
:10598000224631460BF0BEFAA5F81242A5F81442A1
:1059900002B070BD40F2852240F6B80107F0E4FC89
:1059A00002B0BDE8704007F0A9BA00BF8C300020FB
:1059B0007FB5344C94F8D031064623B994F8B053EF
:1059C00015F0010518D0462240F6B801304607F020
:1059D000CBFCC2238380462240F6B801304607F054
:1059E000C3FC07F00BFA0023014600931A46264831
:1059F0000BF088FA04B070BD622240F6B80107F0DF
:105A0000B3FC082107F0D6FB0822014604F5E97033
:105A10002FF0ABFF6F2240F6B801304607F0A4FC30
:105A2000082107F0C7FBD4F8D2314360D4F8D23153
:105A30005A1E1A420CBF01230023037094F8D6317A
:105A4000437094F8D6310293D4F8D23101930823ED
:105A5000009340F6B802732301214FF0FF300BF0A2
:105A60005DFE2B462A460095314608480BF04AFA5F
:105A7000D4F8D2315A1E1A420CBF0323022384F8F1
:105A8000D031B7E78C300020E18B010019E602002D
:105A90002DE9F3411721334C064607F08BFBD4F870
:105AA000D231074623B98A2140F6B80007F08EFCB0
:105AB0003FB9902140F6B80002B0BDE8F04107F0D0
:105AC00085BC10224FF0FF3127482FF073FF0022D2
:105AD000134611464FF0FF0E4FF40060D4F8D25138
