:1000000000000420E1020000090300000B030000CF
:100010000D0300000F0300001103000000000000AA
:1000200000000000000000000000000013030000BA
:100030001503000000000000170300001903000072
:10004000752F0000D5600200293400001B0300005A
:100050001B0300001B030000813200001B03000093
:100060001B0300001B0300001B0300001B03000018
:100070001B0300003D3500001B0300001B030000B4
:100080001B0300000D1A00001B0300001B030000EF
:10009000A91A00001B0300001B0300001B03000043
:1000A0001B0300001B030000593700001B03000066
:1000B0001B0300001B030000000000000000000004
:1000C0001B0300001B0300001B0300001B030000B8
:1000D000317C02001B0300001B0300001B03000017
:1000E0001B0300001B0300001B03000000000000B6
:1000F000000000001B030000000000001B030000C4
:1001000000000000000000000000000000000000EF
:1001100000000000000000000000000000000000DF
:1001200000000000000000000000000000000000CF
:1001300000000000000000000000000000000000BF
:1001400000000000000000000000000000000000AF
:10015000000000000000000000000000000000009F
:10016000000000000000000000000000000000008F
:10017000000000000000000000000000000000007F
:10018000000000000000000000000000000000006F
:10019000000000000000000000000000000000005F
:1001A000000000000000000000000000000000004F
:1001B000000000000000000000000000000000003F
:1001C000000000000000000000000000000000002F
:1001D000000000000000000000000000000000001F
:1001E000000000000000000000000000000000000F
:1001F00000000000000000000000000000000000FF
:1002000010B5054C237833B9044B13B10448AFF350
:1002100000800123237010BD400400200000000076
:10022000D8BC02000C4B43B10C480D4910B5AFF3DC
:1002300000800C48036823B910BD0A48036833B92D
:100240007047094B002BF7D0BDE810401847064B0C
:10025000002BF5D0184700BF00000000D8BC0200FA
:1002600044040020B403002000000000154B002BC4
:1002700008BF134B9D46A3F5803A00218B460F46DD
:100280001348144A121A28F027F80F4B002B00D0FD
:1002900098470E4B002B00D0984700200021040007
:1002A0000D000D48002802D00C48AFF3008027F065
:1002B0009BFF2000290004F0F3FD27F06FFF00BF33
:1002C0000000080000000420000000000000000002
:1002D000400400200438002000000000000000005E
:1002E0000649074A074B9B1A03DD043BC858D05008
:1002F000FBDC04F06DFEFFF7B9FF000094BD0200C7
:100300000000002040040020FEE7FEE7FEE7FEE7D5
:10031000FEE7FEE7FEE7FEE7FEE7FEE7F0B595B095
:100320001C4608460D46164602F0C4FA1A9B09946C
:1003300000240D930822234605A9284608960A940E
:100340008DF82C400C9402F0D3FA079B0293BDF871
:100350001830ADF80C30BDF81A30ADF80E309DF8FD
:1003600014308DF8114003F00302012A1DD1BDF8AD
:100370001440059EC3F3C203C4F383148DF81030F8
:10038000A20008230EA9284602F0B2FAC6F3952669
:1003900008AB0093224602AB0EA9304600F002FDE6
:1003A000284602F08BFA15B0F0BD022AF8D1BDF84C
:1003B0001640C3F3C203C4F389148DF81030082724
:1003C000082C264628BF08263B4632460EA928465A
:1003D00002F08EFAA41B08AB02AA31460EA83744DD
:1003E00000F044FD002CEBD1DAE70000014B0122C4
:1003F0001A7070479D0400207047000070B50F4DC3
:1004000006460FCD88B06C460FC495E80F00002E4D
:1004100084E80F004FF006030093094A09484FF0A3
:10042000805308BF00226946069302F07FFC08B1A2
:1004300001F07AFA044B1E7008B070BD8C97020070
:10044000ED030000000000205C04002007B5044B11
:100450000093044A4023FFF761FF03B05DF804FBFB
:10046000690400005D04002038B50D4B0D4D0020DF
:1004700018700D4804782D5DD2B21C4665B1043069
:1004800003F006FE08B101F04FFA084B1A7812B1DA
:100490002378002BFBD038BD0C3003F0BDFBF1E717
:1004A0009D040020D41F0020000000205C040020D8
:1004B00008B50848084A0378D35C3BB1043003F020
:1004C0008DFD0020BDE80840FFF798BF0C3003F019
:1004D00049FBF6E700000020D41F00200120FFF7B1
:1004E0008DBF000008B5FFF7F9FF0421034800F0B5
:1004F000B7FB034B01225A7108BD00BF64BD020067
:1005000014000020037813F0040216D003F0030354
:10051000012B03D0022B09D0012070470A68008804
:100520000232C0F3831002440A60F5E70B68428888
:10053000023303EB92130B60EEE7104670470000A6
:100540002DE9F04F494C87B00F460646851C002028
:10055000019201F0A5FC23683B606268A368134424
:10056000226801339B1A04F21C4704F5836A04F2E3
:100570001448AB4219D3019A0023002A6ED00122FD
:1005800062F3010343F0040366F389132168A26850
:100590000A4003320D44002044F82230256001F067
:1005A00081FC012007B0BDE8F08F0121384601F041
:1005B000BBFC504601F0D5FC404601F0D2FC0DF1E9
:1005C00018096068D4F808B049F8100D00EA0B006B
:1005D000033004EB80004946FFF794FF029BB8B953
:1005E0000BEA030204EB8202D16803919A1C0133E7
:1005F00003EA0B0B04EB8B0E0292DEF80C30049333
:1006000001F00303012B21D0022B04D083460CE020
:100610000BEA0300DCE7BDF80E30BDF812B0C3F3FF
:100620008913033302EB93030293404601F09CFCD1
:1006300008B1029B63605946384601F075FC626858
:10064000A3681344226801339B1A92E7BDF80C306B
:10065000BDF812B0C3F383131344E5E7022262F33B
:10066000010343F0040366F39F538FE770050020F6
:1006700030B50A4B0A4A0B49D21AD20800239A42D3
:1006800001D1052030BD31F823500468A54202D1C4
:100690000360002030BD0133F1E700BFF4BC02006D
:1006A00064BD0200B80300202DE9F84F224B234817
:1006B000FF229A600022C3F818241A605A60C3F817
:1006C000142483F8202402F0ACF8804688B91C4832
:1006D0001C4E1D4DDFF874B002F0E9F9AD1BED08BA
:1006E0004446AC4208D10023184919481A469C4296
:1006F0001BD14046BDE8F88F4FF000094F4606EB8E
:10070000C40ABC420AD0142256F83710DAF80000A6
:1007100028F02AF90028C8BF09F101090137BD42B4
:10072000EFD12BF824900134DBE701EB830540F88F
:1007300023206A800133DAE77005002074BD0200CF
:10074000CC970200F4BC020064BD0200B803002094
:10075000F003002007B5019031B9074B019A53F817
:10076000320003B05DF804FB01A8FFF781FF002809
:10077000F3D00020F5E700BFF4BC0200094B0139BB
:1007800003EBC000032909D8DFE801F00A020406E0
:100790000420704700797047407970470020704707
:1007A00002207047F4BC020030B5124C00EB400050
:1007B00054F821508240072303FA00F06A400240B7
:1007C0006A40C2F3C20302F00700834238BF034607
:1007D000C2F38210834238BF0346074844F8212001
:1007E000C2F3422200EB81019A4238BF1A464A8086
:1007F00030BD00BFF0030020B8030020034B586851
:100800001B68C31A58425841704700BF700500204A
:100810002DE9FF47FFF7F2FF0646002840F00B8165
:100820008D4DC5F81804BFF34F8F6868AC6804AFEE
:1008300047F8100D2040033005EB80003946FFF7E4
:1008400061FE009B18B1D5F81824002A62D004EA92
:10085000030205EB8202D66801969A1C01332340FD
:1008600005EB8303F6B2DB68029306F00303022B69
:10087000009261D1BDF806307848C3F389194F461C
:10088000502FA8BF502767F38F1307F10801ADF869
:10089000063001F0DEFFC6F3C2068046002800F0F5
:1008A000D28002F007F8082201A90023404602F096
:1008B00014F8009924EA010201329200974234D9D7
:1008C000002A00F0BA8021405FFA82FA0331A7EBD8
:1008D0000A07634C05EB8101FFB2082352464046EC
:1008E00001F0FBFF34B10AF108033A4621464046C5
:1008F00001F0F3FF009B09F1030903EB9903009357
:10090000D5F81834002B4ED1D5F81044554F4FF080
:10091000070968E02A689A4204D86A60304604B041
:10092000BDE8F08704EA030085E70C40E11C0823DA
:100930003A4605EB8101DAE7012B40F08480BDF8EF
:1009400004604648C6F38311062928BF062161F3D7
:10095000891602318900ADF8046001F07AFFC6F310
:10096000C206804600286ED001F0A4FF00230822B2
:1009700001A9404601F0B1FF0027BDF80420C2F3F1
:100980008312BB1C97424FEA8303B9D200994A1CD9
:1009900021400331009205EB81010422404601F021
:1009A0009CFF0137E9E7404601F088FFFFF726FF8B
:1009B00080F00100C6B2B1E7E3685A798AB11B79C9
:1009C000BDF8081003EB430257F8211009FA02F3AF
:1009D000052E03EA010323FA02F308BF0326B342FC
:1009E00034D2E3681C68002CE6D1404601F066FF73
:1009F000204601F055FAD5F818340BB9009B6B600E
:100A0000002001F04FFAD1E7236820469B68984701
:100A1000E3681C68002CF7D1134B5B88012BC5D908
:100A2000124B13481349C01AC008000440F00200DA
:100A300000F07AF8BAE7002670E75FFA87FA144602
:100A40000749174649E7D5F81044E3E723684146CC
:100A50001B6820469847C4E77005002074BD02005B
:100A60007C050020F0030020D4030020F4BC020029
:100A70002CBD0200D89702002DE9F74F284C804684
:100A80000F46924601A9012218469B46A568FFF72A
:100A900057FD88B3DDF80490002609F102025E4597
:100AA00034D100211F4801F0FFF980F3100009F153
:100AB00001022A4004EB8202000405EA0903033321
:100AC00040EA1840D06014F8232068F3C50204F807
:100AD000232034F8232066F3891224F8232054F8C5
:100AE0002320012167F39F2244F8232061F30102B0
:100AF0006FF3820204F8232094F820341BB1FFF72F
:100B000087FE0028FBD103B0BDE8F08F02EA0501A3
:100B100004EB81015AF82630CB6001360132BEE782
:100B2000700500208C09002000231A46FFF7A4BF9F
:100B300013B502AC012344F8042D2246FFF79CFFB5
:100B400002B010BD07B58DE80C0002236A46FFF71E
:100B500093FF03B05DF804FB1FB50293069B01925F
:100B6000039301AA0323FFF787FF05B05DF804FB99
:100B70001FB58DE80C00069B0293079B03936A4602
:100B80000423FFF779FF05B05DF804FB2DE9F34777
:100B90008046314CD01C8A46174601A900228008A5
:100BA000A568FFF7CDFC002840D0DDF80490A668CA
:100BB00009F10200019001362840361AB600B7420A
:100BC00000F103003CD83A46514604EB800027F080
:100BD0005EFB0021214801F067F980F3100009F164
:100BE00001032B4004EB8303000440EA1840D86063
:100BF00005EA0903033304EB830214F8231068F3B6
:100C0000C50104F8231034F823106FF38F1124F872
:100C10002310518867F38F11518014F8232002218B
:100C200061F301026FF3820204F8232094F8203468
:100C30001BB1FFF7EDFD0028FBD102B0BDE8F08746
:100C40003246514604EB800027F021FBBA1B0AEB29
:100C5000060104F10C00BAE7700500208C090020A1
:100C60002DE9F8431F4B8846D3F81014054600249D
:100C70000A469AB9E9680C71D3F81014A1B9C3F8FF
:100C80001054EB681A60184F184EF61BF6084FF018
:100C90000009B14511D12046BDE8F883D26810792A
:100CA000A04218D01268E4E7C968EA6809681160D0
:100CB000D3F81034DB681D60E5E707EBC90349464C
:100CC000DA79EB68424528BF42461879FFF76CFD98
:100CD00009F10109DDE701340A2CC9D14FF0FF34D5
:100CE000D9E700BF70050020F4BC020064BD02001B
:100CF00073B5C38804460D4633B1144A00921449B3
:100D0000144A284601F08FF9217A05291CD0637A0C
:100D10004BB1A088FFF732FD0F4B104953F820204C
:100D2000284601F080F9227A0D4BA08853F8226002
:100D30000021FFF70FFD0B4903463246284602B05B
:100D4000BDE8704001F06FB902B070BD5398020069
:100D50003B98020033980200009802005898020065
:100D6000689802005B98020010B5037A052B0C46C8
:100D70000FD0437A23B1084A0849204601F053F9BD
:100D80000749204601F04FF92046BDE8104001F028
:100D90003FB9002AF8D0F3E75398020058980200B0
:100DA000509802002DE9F04385B01F460C9D0023AA
:100DB00006460C46904695F80C902B73294638460B
:100DC000FFF796FFB8F1060F09D8DFE808F0041224
:100DD000181F283340003146284601F024F900222C
:100DE00029463846FFF7C0FF85F80C9005B0BDE8EE
:100DF000F08322683146284601F015F9EFE794E8C0
:100E00000C003146284601F00EF9E8E7A36800938C
:100E1000314694E80C00284601F005F9DFE7E36865
:100E20000193A3680093314694E80C00284601F032
:100E3000FAF8D4E723690293E3680193A368009367
:100E4000314694E80C00284601F0EDF8C7E76369E5
:100E5000039323690293E3680193A36800933146E7
:100E600094E80C00284601F0DEF8B8E708292DE9DF
:100E7000F84F80460E4617461C4638D8002593F892
:100E80000C901D7319461046FFF732FFDFF880A063
:100E9000DFF880B0AE422CD918F80520594620461C
:100EA00001F0C1F80135082DF4D11749DFF868B019
:100EB000204601F0B8F80025AE421FD918F805A069
:100EC00027F0B6F950445946437813F0970F14BFF2
:100ED00052462E22204601F0A6F80135082DEBD10E
:100EE000012221463846FFF73FFF84F80C90BDE809
:100EF000F88F5146204601F096F8D3E70349204683
:100F000001F091F8E9E700BF2E9802002C9802004A
:100F10002A9802002498020030980200074B1B5CBC
:100F20001F2B8ABF064A4FF0A04203F01F03D2F8DE
:100F30000405D840C04300F001007047D19802007A
:100F400000030050074B1B5C1F2B86BF03F01F03E1
:100F500005494FF0A041012202FA03F3C1F80C3514
:100F6000704700BFD198020000030050074B1B5C84
:100F70001F2B86BF03F01F0305494FF0A04101223C
:100F800002FA03F3C1F80835704700BFD198020098
:100F90000003005008B50020FFF7E8FF0120FFF72D
:100FA000E5FF0220FFF7E2FF0320BDE80840FFF75E
:100FB000DDBF08B50020FFF7C5FF0120FFF7C2FF26
:100FC0000220FFF7BFFF0320BDE80840FFF7BABFCC
:100FD0000A4B185C1F288ABF094B4FF0A04300F052
:100FE0001F00D3F804250121814021EA02000A40B4
:100FF000C3F80805C3F80C25704700BFD19802005C
:1010000000030050074B1B5C1F2B8ABF064A4FF0A2
:10101000A04203F01F03D2F81005D840C04300F0EF
:1010200001007047CD980200000300500B2809D042
:101030000C2809D0182809D019280CBF03204FF01C
:10104000FF30704700207047012070470220704732
:10105000C20770B5044614D5154D164E0022032064
:10106000535D1F2B86BF03F01F0331464FF0A04195
:1010700003F5E0730132042A41F82300F0D1FFF7B1
:1010800089FFA30712D50C4C0A4D00220C20135DDA
:101090001F2B86BF03F01F0329464FF0A04103F525
:1010A000E0730132042A41F82300F0D170BD00BF83
:1010B000D198020000030050CD9802000D4930B5D0
:1010C000A1F50E720225914201D8002030BD8B1A85
:1010D000DB1093FBF5F302EBC30452F83330834289
:1010E00005DC02DA04F10802EDE7606830BD214654
:1010F000E9E700BF6CA0020008B5FFF7DFFF024B75
:10110000002808BF184608BDD598020008B500F0B1
:101110007FFA00F07BF8002001F08CFD10B100F0A8
:10112000CBF8FCE701F040FE10B900F0C5F8FCE791
:1011300008BD704708B500F0BFF8FCE762B670471D
:1011400072B6704713B502AC002304F8053D019355
:101150009DF80330032B08D904210DEB010001F0A9
:10116000A3FD30B9019802B010BD204601F092FDF8
:10117000EEE70020F7E708B50EF0C2F84FF4705321
:10118000584308BD38B50D4614465AB151B148B15F
:1011900001F04EFE2946204601F020FE10B900F075
:1011A0008BF8FCE738BD00F073BAEFF30580003030
:1011B00018BF01207047000037B54FF08053094D2C
:1011C0001C6E596E00220A4304F0FF0300242243E0
:1011D0002B4302A961E90223082227F058F803B043
:1011E00030BD00BF000E010B40BF20BF20BF7047C5
:1011F00008B506F00DFC437B33B1FFF709FB18B9C6
:10120000BDE80840FFF7F0BF08BD000008B50AF0D0
:1012100063FD48B9054B1B7813B9054B1B781BB10F
:10122000BDE808400AF05EBD08BD00BF29010020EE
:101230002C0100202DE9F84307460E460AF04CFD2C
:1012400058B1184B184CDFF86890DFF86880E41A42
:10125000E408240444F003040EB9BDE8F883D9F887
:101260000000C0F10805B542A8BF35462A463946F8
:10127000404427F00CF8D9F800202A44082AC9F87D
:1012800000202F44A6EB0506E6D1084B5B88022B15
:1012900003D941462046FFF779FC0023C9F8003006
:1012A000DAE700BFF4BC02005CBD0200EC030020E2
:1012B000340A00202C0A002010B50C4C226882B1A0
:1012C0000B4B5B88022B0AD90A4B0B480B49C01AFF
:1012D000C008000492B240F00300FFF757FC00235F
:1012E0002360BDE81040FFF793BA00BF340A002026
:1012F000EC030020F4BC02005CBD02002C0A0020BC
:101300004FF0102358694FF08053411C1A695B69F4
:1013100008BF03FB02F070470378022B01D80AF0E4
:10132000EFBC704710B5FFF7EBFF0A4C2061FFF7E9
:10133000E7FF094B0949A0F54040E0600022204644
:10134000C3F8082101F026F818B1BDE81040FFF7F6
:10135000F1BE10BD28040020380A002080A202003F
:101360004FF4804070470220704708B513460A4684
:1013700031B143B10146184626F089FF002008BD6F
:101380006FF00A0008BD6FF00B0008BD0128F8B52A
:1013900007460C4616461D4612D80B44B3F5804F3F
:1013A00011D29AB1ADB1FFF7ABFFA4F5404101EB0B
:1013B000873101442A46304626F069FF0020F8BDF7
:1013C0006FF03800F8BD6FF01600F8BD6FF00B003D
:1013D000F8BD6FF00C00F8BD0128F7B507460C46C4
:1013E00016461D4626D80B44B3F5804F25D23AB396
:1013F000AB0828D0FFF784FFA4F5404404EB873402
:1014000004440AF085FC07460028FAD10AF070FC73
:10141000214600972B4632460C4800F0F7FF044661
:101420000AF076FC0028FBD1201C18BF01204042A6
:1014300003B0F0BD6FF03800FAE76FF01600F7E781
:101440006FF00B00F4E76FF00C00F1E728040020C8
:1014500001282DE9F041064626D8FFF751FF00EBA1
:101460008630A0F54044DFF8508004F580470AF04C
:101470004FFC05460028FAD10AF03AFC2B4601221F
:101480002146404601F088F890B90AF041FC054633
:101490000028FAD104F58054BC42E8D130460AF065
:1014A0003FFC2846BDE8F0816FF03800BDE8F081D0
:1014B0004FF0FF30BDE8F0812804002010B5084C43
:1014C000D4F8083153B19BB22246D4F8041194F8F1
:1014D0000001FFF781FF0023C4F8083110BD00BFF1
:1014E000380A00202DE9F8431C4C1E46D4F8083178
:1014F00081460F46904693B194F80021824207D16D
:10150000D4F804211A44914202D1B3F5807F06D168
:10151000FFF7D4FF03E0FFF7D1FF2F44A844D4F82E
:10152000080118B984F80091C4F80471C0F58075F9
:10153000B54234BFADB235464DB12A46414620448E
:1015400026F0A5FED4F808312B44C4F80831761BE8
:10155000B6B2002EDFD13046BDE8F883380A00204D
:1015600007B50C4B18680090FFF7CAFE0422A0F5DF
:1015700080410DEB020026F08AFE042269460DEB45
:10158000020026F075FEB0FA80F0400903B05DF865
:1015900004FB00BF72A0020070B506460D4614465B
:1015A000FFF7AEFEA4F57F543C3C3246294620446A
:1015B000BDE87040FFF7D9BE0048704778A0020030
:1015C0000422032102708170002206214270C17042
:1015D000426070477047B0F5A27F01D10AF0A2BB0C
:1015E0007047000008B5FFF7E7FF02F041F8FFF78A
:1015F000E3FF02F049F8024B00221A7008BD00BF59
:10160000580B0020014B1878704700BF580B002082
:101610001FB502A8FFF7D4FFFFF7CEFF104A02A9BB
:1016200001F0A4FF08B1FFF785FDFFF7C5FF0368D0
:10163000D3F81045FFF7C0FFE2B24FF47031012438
:1016400021FA02F202232146009402F06CF8FFF71F
:10165000B3FF01F0FFFF034B1C7004B010BD00BFCF
:10166000D7150000580B002008B5084B1B780BB9A4
:10167000FFF7CEFFFFF7A0FF02F02EF828B9FFF723
:101680009BFFBDE8084001F0E5BF08BD580B0020F6
:10169000F8B5044680B3FFF7A5FF01F0EBFA19484F
:1016A000194A0378D35C4BB3043002F097FC26F060
:1016B00033FC002706464FF47A751448144B8360B8
:1016C00039466C434460C760066026F031FC25F063
:1016D0005FFCFFF789FD25F049FC26F01DFC841B0B
:1016E000FFF7C2FF384601F0A5FA08B1FFF722FD67
:1016F000FEF7F4FEB4FBF5F42046F8BD0C3002F022
:1017000031FAD4E700000020D41F0020440B002051
:10171000D51500002DE9F84FDFF8A4B00025254BC2
:101720001B78ECB2A34201D8BDE8F88F224BD3F866
:10173000008018F8349001204A46002127F036FE38
:10174000DBE9002300EA020601EA03073E4308EB57
:10175000C40A2CD023EA010122EA0000CBE90001EF
:10176000484601F07DFD18F83440814622460120AC
:10177000002127F01BFE114BD3E9006722460640EB
:101780000F404846002127F011FE8F4208BF8642D5
:101790000DD1DAF8043053B19AF801104A1E5142C3
:1017A0005141A1EB09004142414120469847013592
:1017B000B5E700BF590B0020900B0020800B0020E4
:1017C000880B00202DE9F84307461F4800F046FB30
:1017D000002837D13A460120002127F0E7FD1B4BB6
:1017E00004460D46D3E9000104EA000805EA0109B0
:1017F00058EA09021E461FD1384601F031FD144B4C
:1018000098B1D3E9000120432943C3E90001D6E997
:10181000002314431D43C6E900450E4B0A481968CE
:101820000022BDE8F84300F0D5BAD3E9000120EA70
:10183000040021EA0501E8E720EA040421EA05059D
:10184000C3E90045BDE8F883600B0020880B002049
:10185000800B00205C0B0020042AF7B505460C46DF
:10186000164638D901F02AFCC8B11C4B1C491D6032
:101870001C4B1D4F1C701D4B00221E600023C1E934
:1018800000231B49C1E90023013CE4B20026FF2CE0
:101890000BD1184A1848002100F08AFA03E001F041
:1018A000D5FB0028E1D003B0F0BD23B205EBC302A5
:1018B000032192788DF804108DF8052001A93A468D
:1018C00015F833008DF8066001F002FC013CE4B22B
:1018D0000028DCD0E7E70720E5E700BF900B0020F9
:1018E000800B0020590B0020C51700005C0B002066
:1018F000880B00201517000080A0020070B5084D6D
:10190000084E00242B789C4201D3002070BD336820
:10191000012113F8340001F059FC0134F2E700BF53
:10192000590B0020900B00201FB50021039001AA45
:1019300044F201000191029121F09AFA05B05DF89C
:1019400004FB0000094A537891780133DBB29942D5
:1019500008BF0023117899421FBF037050781823E5
:1019600003FB002014BF043000207047940B0020BC
:1019700037B5044600200D4600F092FA0DF107003D
:10198000FFF7E0FF90B10570094B9DF80720446018
:101990005A700024002000F085FA24B9054B4FF45A
:1019A0008012C3F80021204603B030BD0424F1E7C3
:1019B000940B002000E100E0024B4FF43C6043F048
:1019C0000103184790A0020038B50C4B0C4C4FF4A3
:1019D0000032C3F8802001254FF48033C4F8483327
:1019E000C4F808336560FFF7E7FF064BA5600024E5
:1019F0001C60FFF7E1FF044B1C7038BD00E100E004
:101A000000100140B00C0020A10C0020F8B51F49C7
:101A10001F4B0025C1F84051C1F84451C1F848514D
:101A2000C1F84C51C1F80051C1F804511B684BB3C7
:101A3000D1F8044517490968641A24F07F442F46F9
:101A40001A68A24209D8A41A15441A7CDE691AB190
:101A50001F745A6998699047AEB90F4B0F4A1978AD
:101A600013788B4205D10133DBB2022B08BF002370
:101A7000137012780A4B43F822500A4B4FF480122D
:101A8000C3F80021F8BD3346DAE700BF001001407B
:101A9000B40C0020B00C0020AC0C0020AD0C0020D9
:101AA000A40C002000E100E02DE9F74F9C4A9D497D
:101AB000137809789C4E994257D00133DBB2022B40
:101AC00008BF0023137099491278994B0F6853F897
:101AD00022003B1823F07F4300220B603368154639
:101AE0001446964613B942B1336006E01968814244
:101AF00029D902B13360091A19604FF0010833681F
:101B00008C4FDFF83CB200934FF00009002D61D0FC
:101B10002C46ED69854B60681A68831A23F07F4173
:101B2000854B9942A36800F2B7800B4423600023E1
:101B30006360A360E361336801222274002B40F0EC
:101B4000B3803460E2E7401A0C44D968C3F800E07F
:101B5000D3F81CC031B13A1922F07F42DD615A60DE
:101B600099601D4663460122BCE70025A846C6E7EA
:101B7000531CB978DBB299423B704FF0180303FB5A
:101B8000027208BF3D7013799468022B1BD0032B9F
:101B900011D0012B1ED1217CE1B9D3686360136998
:101BA000A3605369E3609369A361644B1B78002BC6
:101BB000B0D06160AEE7002335681A46002D67D1CA
:101BC00043B1356006E0326813469246002B5AD185
:101BD000002323743A787B789342C9D1B9F1000F7E
:101BE00006D13368009A9A4202D1B8F1000F44D06E
:101BF0003368002B73D0D3F800A0514D4B4BD5F870
:101C000004751C68DFF840813E1B98F8003026F010
:101C10007F4603369BB94FF48033C5F84433C5F88B
:101C20000433484B4FF400324FF00109C3F88021D0
:101C30001A60C5F80090FFF7BFFE88F80090B24523
:101C40002CBF5444A41924F07F44C5F84045D5F86E
:101C50000435DB1B23F07F43E41B033324F07F4474
:101C6000A3420AD9D5F80435C5F84035FFF7A4FEDC
:101C7000344B4FF40032C3F80021304B00221A706D
:101C800003B0BDE8F08F9C422CD09A46DB699DE7FB
:101C90002A740123ED6991E7121A22F07F429A42D9
:101CA00034BF9B1A002341E7226819688A420BD887
:101CB0008A1A1A60E36144E7521AD969184661B971
:101CC0002260E161DC6121E7184619689142F3D393
:101CD000891A196019460346F2E70B46F5E7FFF744
:101CE00073FECAE754450DD1D369336053B90F4829
:101CF00001920121CBF808100360104B1970FFF717
:101D00005BFE019AE1692368CAF81C1011B10868EA
:101D100003440B6033689A4218BF4FF0010957E73C
:101D2000AC0C0020AD0C0020B40C0020B00C002046
:101D3000A40C0020940B0020FEFF7F00A00C0020CC
:101D40000010014000E100E0A10C002008B5FFF701
:101D50003BFE114B00200B2218709A7058700F4BED
:101D600018600F4B18700F4B18700F4B4FF4801208
:101D7000C021C3F8802183F814131A6002F1804255
:101D8000A2F56F22C2F8080583F81113074BD2F8A9
:101D900004251A6008BD00BF940B0020B40C00207D
:101DA000AC0C0020AD0C002000E100E0B00C0020E5
:101DB000074B9B784BB132B128B10368187C20B92E
:101DC00059745A617047072070470820704700BF58
:101DD000940B00202DE9F3411D4EB37804460D46C7
:101DE000174693B388B304292DD943696BB3437C59
:101DF0000020012B0CBF88464FF0000800F050F87F
:101E00000DF10700FFF79EFDD8B101230370114BC0
:101E10004460D3F8043583609DF80730C560C0F88E
:101E20001080476173700024002000F03BF824B953
:101E3000094B4FF48012C3F80021204602B0BDE8E0
:101E4000F0810424F0E70724F7E70824F5E700BF52
:101E5000940B00200010014000E100E0064A927857
:101E60003AB130B1426922B1002202740221FFF777
:101E70007FBD0820704700BF940B002072B6024A55
:101E80001368013313607047B80C0020034A1368CD
:101E9000013B136003B962B6704700BFB80C002065
:101EA000FFF7ECBFFFF7F2BF00B550E8002F0B467D
:101EB00040E8003E9EF0000FF7D110465DF804FBAD
:101EC00000B550E8002F42EA010340E8003E9EF0D2
:101ED000000FF6D110465DF804FB00B550E8003F56
:101EE00043EA010240E8002E9EF0000FF6D11046B2
:101EF0005DF804FB00B550E8002F02EA010340E85A
:101F0000003E9EF0000FF6D110465DF804FB00B5D0
:101F100050E8003F03EA010240E8002E9EF0000F67
:101F2000F6D110465DF804FB00B550E8003F03EB26
:101F3000010240E8002E9EF0000FF6D110465DF839
:101F400004FB00B550E8003FA3EB010240E8002E7F
:101F50009EF0000FF6D110465DF804FB0121FFF75B
:101F6000AFBF0121FFF7B9BF0021FFF7C3BF0021B9
:101F7000FFF7CDBF10B590B14268836801689B1A26
:101F8000DBB20A60013BDBB2FF2B026802D100200A
:101F9000107110BD11684C1C14600B70F2E70E201C
:101FA00010BD38B504460020FFF77AFF226861684B
:101FB00013688B4215D9591E116013F8015CA28A6F
:101FC000E36802FB05352268A36811685B1A117982
:101FD000DBB2994200D213710020FFF763FF28465D
:101FE00038BD0025F8E738B5054600200C46FFF758
:101FF00057FF2A681368591C1160E968641AA98A96
:10200000B4FBF1F41C700020BDE83840FFF74ABF74
:1020100010B5826804462AB143690168006998478F
:102020000023A36010BD0EB403B5039929B102AA21
:1020300004AB42F8043D00F06DF802B05DF804EB2B
:1020400003B07047826830B40468551C8560A154A1
:10205000826843689A4202D330BCFFF7D9BF30BCD4
:10206000704700002DE9F84F0A9C99460B9B1746D4
:10207000824688460A460126BA420FD24E4538BFEC
:102080004E4613F0010B01D164B900240125B9F1CA
:10209000010F1AD909F1FF397D43F8E7B2FBF7F2D6
:1020A0000136E9E79B070ED5B9F1000F0CBF3025CB
:1020B0002025A642EAD2013C29465046FFF7C2FF3E
:1020C000002CF6D1E1E72025F3E7B8FBF5F39F42BA
:1020D000E2D9DFF83C90B8FBF5F3504619F803104D
:1020E00005FB1388FFF7AEFFB5FBF7F5002DF2D126
:1020F000BBF1000F0AD03CB9BDE8F88F013C2021AC
:102100005046FFF79FFF0CB1A642F7D3BDE8F88F0A
:1021100096A002002DE9F74F054617460C46002908
:1021200000F0358114F8011B49B92B7B002B00F01E
:102130002E81284603B0BDE8F04FFFF769BF25297F
:1021400040F0218123460026194611F8012B2D2A43
:1021500024D0302A26D02B2A27D000242A2A994698
:1021600003F1010124D13B681A1D3A601B688946BE
:102170001C4499F800302E2B25D109F101014FF0B4
:102180000008894611F8012BA2F1300009281CD85B
:102190000A2303FB0823A3F13008F2E746F0010607
:1021A0000B46D1E746F00206FAE746F00406F7E7E9
:1021B0001A780B46A2F130010929DAD80A2101FB6D
:1021C0000424303CCAE74FF0000899F8001001F0F1
:1021D000FB02682A02D119F8011FF8E769290FD01C
:1021E0004BD8582965D007D825296ED009F10104AC
:1021F0002378002B96D198E7632962D06429F5D122
:102200003A68111D3960D2F800A08AEAEA72A2EB9E
:10221000EA724FF0010B092A5BDCC34538BFC346A5
:102220002CB1BAF1000F01DB710700D5013CB207F8
:1022300002D5B8F1000F04D0F30702D4002C4ED120
:102240000024BAF1000F52DACAF1000A2D21284603
:10225000FFF7F8FE06F00302022A05D1B8F1000FDD
:1022600002D1002C47D100248DE8500043460A22B9
:1022700051462846FFF7F6FEB8E773294CD014D82C
:102280007029B3D13B681A1D3A60302128461C687A
:10229000FFF7D8FE78212846FFF7D4FE00230193EC
:1022A0000823009310222146E3E775292BD07829D3
:1022B0009CD139680A1D3A6043468DE850001022CF
:1022C00028E03B681A1D3A6019782846FFF7BAFEE5
:1022D0008CE70A230BF1010B92FBF3F29BE7A3457A
:1022E000AFD220212846013CFFF7ACFEA6E77007DD
:1022F000B0D52B21ABE7A345B6D230212846013C0F
:10230000FFF7A0FEADE739680A1D3A608DE850007E
:1023100043460A220968ACE73B681A1D3A60F10798
:10232000D3F800A012D55646A6EB0A0B16F8011BEF
:1023300041B95C457FF65AAF20212846013CFFF7A2
:1023400081FEF6E72846FFF77DFEEDE7BAF1000FC4
:1023500011D0504626F000FB0646B44200D964B9BD
:102360000AF1FF3A1AF8011F00293FF43FAF28464F
:10237000FFF768FEF6E75646EFE720212846013CC6
:10238000FFF760FEE9E72846FFF75CFE30E703B0A1
:10239000BDE8F08F07B50B46A0B9154B5B886BB154
:1023A000144B1548154AC01A0E23C0080093144B4D
:1023B0000004144940F00100FEF7CEFB0E2003B0EC
:1023C0005DF804FB6BB90A4B5B88002BF6D0094B18
:1023D00009480D4AC01AC0080E2300930004084B98
:1023E000E7E703601B68114603B05DF804EB18478C
:1023F000E0030020F4BC020044BD020053A102002F
:10240000A6A0020058A10200CFA102002DE9F743C7
:10241000DDF828C0B0B9534B5B88002B00F09580E5
:10242000514B5248524AC01AC0080E24514B0094D6
:102430000004514940F00100FEF78EFB204603B036
:10244000BDE8F0836AB9474B5B88002B7DD0464BD3
:1024500046484A4AC01AC0080E2400040094454B5E
:10246000E7E7D0F800E0BEF1000F0DD13D4B5B88EF
:10247000002B6CD03C4B3D48414AC01AC008082490
:10248000000400943B4BD4E76BB9364B5B88002BC0
:102490005FD0354B35483B4AC01AC00809240004B8
:1024A0000094344BC5E74768D7F80490B3FBF9F7BD
:1024B00009FB17376FB12B4B5B88002B49D02A4B98
:1024C0002A48314AC01AC008092400040094294B44
:1024D000AFE78F070DD0234B5B88002B3FD0224BFB
:1024E00022482A4AC01AC008102400040094214B34
:1024F0009FE712F0030F0DD01A4B5B88002B2ED0F4
:10250000194B1A48224AC01AC0081024000400942B
:10251000184B8EE7C768B9421DD34C1E05691C4491
:10252000AC4218D8CDF828C0DEF80C40A44603B061
:10253000BDE8F04360470C4B0C48164AC01AC0086F
:102540001024000400940B4B73E70E2476E7082454
:1025500074E7092472E7034B5B88002BEBD110244E
:102560006CE700BFE0030020F4BC020044BD0200A1
:1025700053A10200B8A0020058A10200D5A1020098
:10258000C9A1020088A10200DBA1020005A202008D
:102590001DA2020040A20200F7B5A0B9384B5B882B
:1025A000002B60D0374B3848384AC01AC0080E2478
:1025B000374B00940004374940F00100FEF7CCFA95
:1025C000204603B0F0BDD0F800E0BEF1000F0DD101
:1025D0002B4B5B88002B48D02A4B2B482E4AC01A25
:1025E000C008082400040094294BE4E76AB9244B8E
:1025F0005B88002B3BD0234B2348284AC01AC008D5
:10260000092400040094224BD5E74768D7F800C09E
:102610000CF1FF370F420CD0194B5B886BB3194B91
:1026200019481F4AC01AC008102400040094184B0F
:10263000C1E7C768B9421CD34C1E05690CFB0244B4
:10264000AC4216D8DEF81040A44603B0BDE8F04016
:1026500060470C4B0C48134AC01AC00810240004F1
:1026600000940B4BA7E70E24AAE70824A8E7092447
:10267000A6E7034B5B88002BEBD11024A0E700BF3B
:10268000E0030020F4BC020044BD020053A102009C
:10269000CBA0020058A10200C9A1020088A102003B
:1026A000DEA0020004A10200014B4360002070473D
:1026B00074A202000846704700207047024B186859
:1026C000003018BF01207047BC0C002008B502483C
:1026D000FFF74DFC002008BDBC0C002008B51046DB
:1026E0001A4625F0D4FD002008BD00002DE9F04178
:1026F000804686B014480E4615461F46FFF72EFC4E
:102700000446F0B9A54214D10F48FFF730FCD8F8C1
:10271000083000249BB1022268468DF80020019405
:1027200002960394049505979847204606B0BDE8A5
:10273000F08106EB043000F08BFB0134E2E7184631
:10274000F4E71120F2E700BFBC0C00202DE9F041B6
:10275000804686B012480F4616461D46FFF7FEFB20
:102760000446D8B9AA083146384600F089FB0C481F
:10277000FFF7FDFBD8F8083073B101228DF8002077
:102780000C9A01946846029703960495059298471F
:10279000204606B0BDE8F0811846FAE71120F8E7B8
:1027A000BC0C00202DE9F047B0F806804479D2F83F
:1027B00000909DF8207008FB04F4043C03EB090E24
:1027C000744538BFA4EB03090E46191DC2F80090EA
:1027D000B1FBF8F5044608FB15114DB9A8EB010A49
:1027E000CA4528BFCA46B9F1000F04D1BDE8F08739
:1027F0002468013DF1E704317019631852466FB146
:102800001946A9EB0A0925F042FDC845554424683C
:10281000C2464FF0000128BFCA46E4E70146184609
:10282000EFE7FFF7A7BBF8B546790446721E002311
:102830009342246804D301460025B54202D3F8BD73
:102840000133F5E70F682046FFF7CDFB0135394628
:10285000F3E72DE9F843CD1C878A8046FFF7A1FBFB
:10286000043F3D440446B5FBF7F5002650B1012373
:10287000EDB206714371C780013DC0F8008081460A
:10288000AE4202D32046BDE8F8834046FFF789FBFD
:10289000074648B16379013363710136C9F8000016
:1028A000C0F800808146EBE72046FFF7BCFF3846C2
:1028B000BDE8F88301210430FFF736BB10B50121D4
:1028C00004460430FFF73DFB10F0FF0F04D1204613
:1028D000BDE81040FFF7A7BF10BD1FB504AC44F81A
:1028E000042D002200922246FFF75CFF04B010BDC9
:1028F0001FB504AC44F8042D012200922246FFF7D4
:1029000051FF04B010BD026813685268934291BF32
:10291000D01A80680130801888BFC01A70472DE92E
:10292000F84303681D685C68A54284BF836801336F
:102930001746884694BF641B5C1BC2684168BC4252
:10294000064602FB05110CD37A43404625F09FFC56
:10295000B46833683D44A54288BF00251D60BDE8CA
:10296000F88302FB04F94A46404625F090FCF268E1
:1029700071683C1B624308EB090025F088FC336852
:102980001C60BDE8F883036881681A685B688B4245
:1029900034BF01330023D31A584258417047F8B569
:1029A000044600200D46FFF77BFA2046FFF7EBFFB9
:1029B00010B1237C002B3DD12168A6684B684A6882
:1029C000B24234BF013200224A6038B12168A068A7
:1029D0000A68824234BF013200220A60E2686068FD
:1029E000511E072920D8DFE801F004101F141F1F13
:1029F0001F182A78C2542046FFF785FF23689A687B
:102A0000904200D99860002415E02A8820F813200D
:102A1000F1E72A6840F82320EDE7D5E9006700EBED
:102A2000C300C0E90067E6E7294602FB030025F082
:102A30002EFCE0E704240020FFF734FA2046F8BD1E
:102A400070B505460E46144682B10020FFF728FAFD
:102A50002846FFF758FF84420AD8224631462846C6
:102A6000FFF75DFF00240020FFF71CFA204670BD31
:102A70000524F8E710B504460020FFF711FA206896
:102A80000C22002125F028FC0020BDE81040FFF7B3
:102A900009BA10B504460020FFF702FA2046FFF7F6
:102AA00032FF04460020FFF7FDF9204610BD826882
:102AB0000023936082681361826853618268D360E7
:102AC00082685360826813607047000038B5084C14
:102AD00004F108030546002818BF1C4623682BB1E3
:102AE0001A6822605B6828469847F7E738BD00BF40
:102AF000C80C002020B9054B01225A70FFF7E6BF31
:102B0000012802D1014A9070F8E77047C00C0020FC
:102B100038B5094C23786BB908486360A36023611A
:102B2000E36000F0D7F9054600F0E2F901232370D5
:102B3000284638BD8525FBE7C00C0020F52A00009B
:102B400038B5134CA378054603F0FF0073B115B1F7
:102B50006B68012098470020FFF7A2F9E368013372
:102B6000E3600020BDE83840FFF79CB9FFF798F913
:102B700025B1226913463BB92A602561E368002B21
:102B8000ECD100F0C9F9E9E79D42F7D01B68F2E704
:102B9000C00C002038B5134C6378054603F0FF00E5
:102BA00073B115B16B68002098470020FFF778F9E2
:102BB0006368013363600020BDE83840FFF772B9F5
:102BC000FFF76EF925B1A26813463BB92A60A560EC
:102BD0006368002BECD100F0ACF9E9E79D42F7D037
:102BE0001B68F2E7C00C002038B5084C0020FFF746
:102BF00057F96368013B6360656815B900F0A6F991
:102C000065700020BDE83840FFF74CB9C00C0020CB
:102C100007B502A901F8010D0548FFF7C0FE0448F9
:102C2000FFF7B1FE08B100F06DFC03B05DF804FBE6
:102C3000DCBC020038B50C4D2B7893B90B4B0C491A
:102C4000002808BF18460388284620F8013F00F0F6
:102C500017FC044618B900F043FC01232B702046F2
:102C600038BD8524FBE700BF240D0020A6A202008A
:102C7000112C000008B500F045FC00F04BFC0348A7
:102C8000FFF7F8FE024B00221A7008BDDCBC020000
:102C9000240D002010B504460248FFF7FAFE20700C
:102CA00010BD00BFDCBC020010B50A460146044856
:102CB000FFF7C6FE044600F013FC204610BD00BF1F
:102CC000DCBC02001FB503788DF800304368019327
:102CD000037A8DF80830C3680393054A054B6846AC
:102CE00053F8213052F82110984705B05DF804FBE5
:102CF000280D0020300D00201FB503788DF800301E
:102D00004368019383688DF80830C3680393054ACC
:102D1000054B684653F8213052F82110984705B00A
:102D20005DF804FB280D0020300D0020F0B5194B94
:102D30000778DFF870C043F82720174B96460A69DA
:102D400043F827204B7F0CF807300C4606460FCC83
:102D500089B06D460FC594E80F0085E80F00337801
:102D600004971CF8033053B1BEF1000F0B4A6946BB
:102D700008BF0022301D01F03BF809B0F0BDBEF1E4
:102D8000000F074A694608BF002206F10C0000F058
:102D9000FBFDF2E7300D0020280D0020C52C0000BF
:102DA000F92C0000D41F0020074A084B1360084A82
:102DB00003F110011160074A03F120011160064A76
:102DC0000120C2F804357047700D0020400D00202E
:102DD0003C0D0020380D002000E0004010B5114BE4
:102DE00004461868884202D0102225F050FA0E4B93
:102DF0000022C3F8002101221A604FF08070D3F83E
:102E0000002162B10022C3F80021084B1968A142D9
:102E100003D01022204625F03AFA012001E00138C3
:102E2000EDD110BD3C0D002000E00040380D002029
:102E3000024B01461022186825F029BA700D0020B7
:102E4000024AD2F80034002BFBD0704700E001406A
:102E50000A4908B50223C1F80435BFF36F8FBFF3E9
:102E60004F8FC1F80805FFF7EBFF0023C1F80435C9
:102E7000BFF36F8FBFF34F8F08BD00BF00E001406D
:102E800070B50E4D16460122C5F80425BFF36F8FAD
:102E9000BFF34F8F0024B44207D10023C5F8043597
:102EA000BFF36F8FBFF34F8F70BD51F8243040F8E0
:102EB0002430FFF7C5FF0134EDE700BF00E001401B
:102EC00000F180400023036082B003680193019BFE
:102ED00002B07047054A13792BB9012110601171B6
:102EE0005371184670478520704700BF740D00204D
:102EF000084B1A68D20706D4C02283F800230122A7
:102F0000C3F880211A604FF080430122C3F81825CE
:102F1000704700BF00E100E008B54FF48270FFF792
:102F2000CFFF4FF080430222C3F8042301229A60AE
:102F300008BD08B54FF48070FFF7C2FF4FF0804323
:102F40000122C3F804231A6008BD0000074B0122C8
:102F50001A604FF08042D2F80C3403F00113B3F141
:102F6000011FF8D0024B00225A7170470400004044
:102F7000740D002010B5124B1B6873B14FF48070B4
:102F8000FFF79EFF4FF080430122C3F808230D4B4B
:102F9000587910B95A711B6898470B4B1B6873B16D
:102FA0004FF48270FFF78CFF4FF080430222C3F88A
:102FB0000823044B01201B68BDE81040184710BDD2
:102FC00000010040740D00200401004000F1804029
:102FD00000F5C040002382B0036003680193019BA9
:102FE00002B0704703681F2B83BF03F01F03036009
:102FF00001484FF0A04070470003005007B502ABF6
:1030000043F8040D1846FFF7EDFF019B00EB83002A
:10301000D0F8003723F44033C0F80037D0F8003739
:1030200043EA0141C0F8001703B05DF804FB00005B
:10303000054B4FF0FF32072843F8202084BF1B18B0
:1030400083F85820704700BF7C0D002010B5174C46
:1030500094F86A3043BBFF21E2180133302B82F829
:103060003010F9D10021C8B2FFF7E2FF01310C297D
:10307000F9D1002106220E4825F02EF90D4BC02271
:1030800083F806234022C3F880214FF4BE701A60F3
:10309000FFF79CFF084B4FF00042C3F804230123C5
:1030A00084F86A30002010BD082010BD7C0D00207F
:1030B000E00D002000E100E000600040034B93F8C9
:1030C0006A00003018BF0120704700BF7C0D00204F
:1030D000F7B53C4C2318064693F93030002B6FDAD5
:1030E0008878C0F3400000280BBF082300230C257C
:1030F0000825AB4202D1042003B0F0BD54F8237080
:10310000013745D1A7195DB287F8305044F8232024
:1031100010B9234483F858608B785A0718D4D8071D
:1031200038D502A840F8086DFFF75CFF009B00EB64
:103130008300D0F8003723F00203C0F8003722489C
:10314000F20806F007070123BB40875C3B4383542A
:1031500088780A7810F0020029D0AB0003F1804390
:1031600003F5C0433602D3F8101521F44F3121F492
:103170004071C3F810151204D3F8101506F47C56EC
:1031800002F4403216430E43C3F810650020B3E743
:103190000133AEE702A84A7840F8046DFFF722FF3A
:1031A000019B03F5E073920040F82320C7E7083D38
:1031B0002C4494F8606046EA821284F860209BE711
:1031C000082099E77C0D0020E00D002073B5224C0B
:1031D0002518064695F93020072A1ADD224492F870
:1031E00058309B09032B10D102A840F8046DFFF75B
:1031F000F9FE019AD0F81035D340DB0707D402213D
:103200003046FFF7FBFE02B070BD012BF7D0032163
:10321000F6E7D3B2072BF6D8930003F1804303F50A
:10322000C043D3F8100540F00100C3F8100502F1C7
:103230004000800080B2FFF7C9FE0029E3D095F975
:10324000303054F82330002BDDD0012303FA02F292
:10325000024BC3F80423D6E77C0D00200060004039
:1032600007B502AB43F8040D1846FFF7BBFE019B00
:10327000D0F81005D84000F0010003B05DF804FB61
:103280002DE9F04F89B00024614A624E624D0294EC
:1032900003940121A2F5C04052F8043B012B80B2F7
:1032A00006D1D6F804330B4202D0FFF78FFE0C4351
:1032B000AA424FEA4101EDD1584B1B68012B0ED1B8
:1032C0004FF4BE70FFF782FE4FF0A04344F000447D
:1032D000D3F810350293524BD3F81035039314F002
:1032E000FF0F34D1002C80F28F8004AE00230493B2
:1032F00073604C4F4FF0FF33069307934FF0010874
:10330000002425467B1993F96020531C63D0D2B268
:1033100022F0C00908AB4FEAD90003EB000B02F022
:1033200007011BF8083C08FA01F10B4253D007EBE8
:103330000903920993F9303057F823A0BAF1000F2E
:1033400021D1032A47D1335C0B4333541DE0354F61
:1033500001260025344210D0AB0003F1804303F571
:10336000C043D3F81005D3F8101557F8253023B112
:10337000C1F30141C0F3052098470135082D4FEAFC
:103380004606E7D1AEE7032ADDD001A8CDF80490C8
:10339000FFF728FE019B03F5E07350F823301BF87C
:1033A000180C0842C3F3014305D0022B13D1032AA2
:1033B0000BD1114604E0032B0DD1032A05D10221C4
:1033C0004846FFF71BFE0134E4B2BAF1000F02D009
:1033D00011464846D0470135042D93D1A4B14FF092
:1033E000A0430299D3F8102503F540739142D3F816
:1033F000103502D10399994206D002920393049AA0
:10340000059B069207937BE709B0BDE8F08F00BFEC
:103410000061004000600040206100407C6100408D
:10342000000300507C0D0020014B1B68184700BFB3
:10343000E80D002038B50A4B98420D460CD100200B
:10344000FEF72EFD074B1C7914B901221D601A717D
:103450000020FEF727FD0CB9002038BD112038BD33
:1034600000200040E80D0020034B984201BF034BB1
:1034700000221A601A71704700200040E80D0020F9
:1034800010B5134C22780ABB124B1960037813F065
:10349000010F114B1EBFD3F8042542F00102C3F8FF
:1034A0000425D3F8002222F00102C3F80022437859
:1034B0000A4A5B01DBB282F80D334FF40053C2F8C5
:1034C0008031136001232370002010BD852010BDC2
:1034D000F40D0020F00D002000D0004000E100E0DD
:1034E000064B00221A6082B01B680193019B044BBB
:1034F0000122C3F804231A6002B0704700D10040D3
:1035000000D00040024A0123C2F8083353607047DC
:1035100000D00040064A0123C2F808335360054B2F
:103520004FF40052C3F88020034B00221A707047FA
:1035300000D0004000E100E0F40D002007B5084B8A
:1035400000221A601B680193019B064BD3F8080503
:10355000054BC0B21B68984703B05DF804FB00BF81
:1035600000D1004000D00040F00D0020F7B50579F3
:10357000364C0C266E43A7193B7A002B63D1A2511F
:103580004A687A601A461F464379D6B2B34202F1BE
:10359000010203684FD81A0B56B2CB78002E4FEABF
:1035A0004313AFBF06F1604202F00F02284EDBB2B8
:1035B000A9BF02F56142B354DBB282F8003303685D
:1035C0001B0B03F01F0643F3C40323F0604323F0F7
:1035D000030303F1604303F56143012202FA06F697
:1035E000C3F880611E6007684B78D7F8046503F064
:1035F000030326F003063343C7F8043507688B78C6
:10360000D7F8086503F0030326F003063343C7F831
:10361000083506680B78D6F8100503F00F0320F084
:103620000F010B43C6F810350C2303FB05440020A3
:10363000227203B0F0BDB60006F5A0769F519B59EB
:103640000193019BA0E70820F3E700BFF80D0020DD
:1036500014ED00E0036801221A600379034A0C218B
:1036600001FB032302221A72704700BFF80D0020ED
:103670000368044901221A6103790C2000FB03133B
:103680001A727047F80D002038B503681B0B5AB248
:103690000121520903F01F0301FA03F320320C4900
:1036A00041F8223003680025D3F80022C3F8005205
:1036B00003684FF0FF320446C3F80823FFF7D8FF32
:1036C0002379044A0C2101FB03231D7238BD00BF7E
:1036D00000E100E0F80D00200379044A0C2101FB11
:1036E0000323187A831E584258417047F80D002072
:1036F00073B54FF480348C4005688BB18B0003F5B3
:10370000A0730026EE50EB580193019B0368C3F8A9
:103710000443036801F5A87143F8212002B070BD8D
:10372000C5F80843F5E7F0B507689DF814E0D7F849
:10373000004240F201158D4024EA0504C7F800421A
:103740000568D5F800422343C5F800327346BDE84A
:10375000F040FFF7CDBF00002DE9F341104C114FB1
:10376000114E00254FF48038236804F5C04080B224
:103770006BB1D7F8043308FA05F21A4207D00023D8
:10378000236023680193019B716833689847013572
:10379000062D04F10404E7D102B0BDE8F08100BFBA
:1037A00040A1014000A00140F80D0020002343503B
:1037B00082B043580193019B02B070470A4610B58E
:1037C0004FF48E71FFF7F2FF136A9168C95C136AB8
:1037D00001331362C0F81C1510BD10B58B690A4681
:1037E0004FF4847123B9FFF7E1FFD0F8183510BD0D
:1037F000FFF7DCFF536AD168D0F81805C854536A44
:103800000133536210BD00001FB501238DF8003055
:10381000044B02900191684693E80600904705B07A
:103820005DF804FB040E002030B54D4AD2F8043395
:1038300013F4007F85B015464FD0D2F82431002B09
:103840004BD04FF492711046FFF7B0FF4FF4017365
:10385000C2F80833434B93F8291009B9012151608C
:103860003F4902228DF80020D1F88024C1F880243D
:1038700003929A690292DA68019200229A61DA61EF
:10388000684693E8060090473548D0F81C315BB194
:1038900034490A6A4B699A420A464CD291F8283058
:1038A000002B48D1FFF78AFF2D4AD2F8443193B15B
:1038B0004FF4A2711046FFF779FF2A4B93F82910B5
:1038C00009B1012111609A692AB100229A61586AEE
:1038D000D968FFF799FF05B030BDD5F804335B0711
:1038E000D2D5D5F80831002BCED01E4C1C4821462D
:1038F000FFF773FF636AA2699A422346C4D1E26963
:1039000052B12369E168E3600023606AA261E36168
:103910006362FFF779FFB7E794F829200AB901221B
:103920006A600F4A4FF40171C2F8081300229A61CD
:10393000586AD968EDE74FF48E710948FFF736FFF2
:1039400051690029B0D00023029191688DF80030B0
:1039500001915361684692E80A009847A4E700BFC6
:1039600000200040040E00201F2886BF00F01F002A
:10397000044B4FF0A04300F5E070022243F82020F2
:10398000704700BF000300502DE9F843704B0679E3
:1039900091462C2202FB0632054692F82A200C465C
:1039A0009846002A40F0D0806A490068FFF742FD3F
:1039B0000746002840F0CA8023685A1C19D01F2BE4
:1039C0004FF001028ABF64494FF0A04103F01F038A
:1039D00002FA03F3C1F8083523681F2B86BF03F0F2
:1039E0001F035D4A4FF0A04203F5E073032142F844
:1039F00023106368581C0BD01F2B86BF03F01F03D6
:103A0000554A4FF0A04203F5E073002142F823101D
:103A10002B68A269C3F82425217D637D2A680B43A6
:103A2000C2F86C3594E806002B68C3F81425C3F877
:103A30000C15237D012B32D1A368591C0BD01F2BF1
:103A400086BF03F01F03444A4FF0A04203F5E07322
:103A5000002142F82310E3685A1C19D01F2B4FF0A5
:103A600001028ABF3C494FF0A04103F01F0302FA54
:103A700003F3C1F80835E3681F2B86BF03F01F036B
:103A8000354A4FF0A04203F5E073032142F82310BA
:103A90002B68E268A168C3F80825C3F810152C2329
:103AA000734308EB0302C2F80490226948F803202C
:103AB000B9F1000F35D04FF48E712868227FFFF7DF
:103AC00075FE4FF4A2712868FFF770FE2B6823493A
:103AD000C3F804132868000B41B200294FEA4213CF
:103AE000B7BF00F00F0001F160421D4ADBB2A9BF71
:103AF00002F561421354DBB282F800332B681B0BD2
:103B000003F01F0143F3C40323F0604323F00303D6
:103B100003F1604303F5614301228A40C3F8802129
:103B20001A602B680422C3F800252C2303FB0683AC
:103B300000229A61DA6183F829205A61012283F810
:103B40002A203846BDE8F8830827FAE71127F8E766
:103B5000040E0020293800000003005080000200FD
:103B600014ED00E02DE9F04103680479274D0022AF
:103B7000C3F800252C2303FB045301465B6883B183
:103B80000368234AC3F8082303681B0B5AB20120B9
:103B9000520903F01F0300FA03F320321D4840F8D6
:103BA00022300B684FF0FF32D3F80C05D3F81485A0
:103BB000D3F80865D3F81075C3F81425C3F80C259D
:103BC0000B689042C3F80825C3F8102501D0FFF711
:103BD000CBFEB8F1FF3F02D04046FFF7C5FE7A1C8E
:103BE00002D03846FFF7C0FE731C02D03046FFF704
:103BF000BBFE0868FFF738FC2C2303FB04540023AA
:103C000084F82A306360BDE8F08100BF040E002014
:103C10008402020000E100E02DE9F843234B07791C
:103C20004FF02C0909FB0734064665699846002DBC
:103C300035D16261A160256284F828504FF48E71FD
:103C40000068FFF7B3FD336801229A6021463068AF
:103C5000FFF7B4FD6368A14623BB3568226A636938
:103C60009A4211D33368D3F81C21002AFBD00122D9
:103C7000DA6000202C2303FB078700237B61BDE86B
:103C8000F88394F8283043B9D5F81C31002BF8D0CC
:103C900049462846FFF792FDE0E70F20EAE71120AA
:103CA000BDE8F8832846BDE8F88300BF040E002075
:103CB0000023435082B043580193019B02B07047E8
:103CC0001FB501238DF80030054B8DF808000191D8
:103CD000684693E80600904705B05DF804FB00BF16
:103CE000300E00207FB5384AD2F82461002E49D02A
:103CF00010464FF49271FFF7DBFF02238DF800307E
:103D0000D2F88034C2F880340393D2F83C358DF871
:103D100008302E4BDA68019200229A61DA61684617
:103D200093E806009047284AD2F8443173B14FF423
:103D3000A2711046FFF7BCFF244B996931B10021F5
:103D40009961D2F83C05D968FFF7BAFF1E4AD2F84C
:103D50002031ABB14FF490711046FFF7A9FF1B4B18
:103D6000596969B1D2F84C158DF80810002299688C
:103D70008DF8002001915A61684693E8060090474B
:103D800004B070BDD2F81031002BCCD04FF4887144
:103D90001046FFF78DFF0D4BD2F83C05996988421C
:103DA000C1D1DC696CB1D2F80052D96825F0200588
:103DB000C2F800521A699C61DA60DE61FFF780FF89
:103DC000B1E79C61D968F9E700200040300E00207F
:103DD0001F2886BF00F01F00044B4FF0A04300F5E2
:103DE000E070022243F82020704700BF000300501B
:103DF0002DE9F843744B06799146242202FB0632E2
:103E0000054692F820200C469846002A40F0D880BB
:103E10006E490068FFF70EFB0746002840F0D2808D
:103E200023685A1C19D01F2B4FF001028ABF684922
:103E30004FF0A04103F01F0302FA03F3C1F8083565
:103E400023681F2B86BF03F01F03614A4FF0A04277
:103E500003F5E073032142F823106368581C0BD06C
:103E60001F2B86BF03F01F03594A4FF0A04203F5F2
:103E7000E073002142F823102B68A269C3F82425BF
:103E8000217D637D2A680B43C2F86C352B6822685C
:103E90006168C3F80C25C3F81415237D012B32D1BA
:103EA000A368591C0BD01F2B86BF03F01F03484A81
:103EB0004FF0A04203F5E073002142F82310E368BD
:103EC0005A1C19D01F2B4FF001028ABF40494FF0F6
:103ED000A04103F01F0302FA03F3C1F80835E368B9
:103EE0001F2B86BF03F01F03394A4FF0A04203F592
:103EF000E073032142F823102B68E268A168C3F83D
:103F00000825C3F810152423734308EB0302C2F8F5
:103F10000490226948F80320B9F1000F3FD04FF414
:103F200088712868227FFFF7C3FE4FF490712868DC
:103F3000FFF7BEFE4FF492712868FFF7B9FE4FF409
:103F4000A2712868FFF7B4FE2B682249C3F8041356
:103F50002868000B41B200294FEA4213B7BF00F0B6
:103F60000F0001F160421C4ADBB2A9BF02F56142B9
:103F70001354DBB282F800332B681B0B03F01F01D4
:103F800043F3C40323F0604323F0030303F16043CE
:103F900003F5614301228A40C3F880211A602B682F
:103FA0000822C3F80025242303FB068300229A611C
:103FB000DA615A61012283F820203846BDE8F8838F
:103FC0000827FAE71127F8E7300E0020E53C00004B
:103FD000000300501003020014ED00E02DE9F04151
:103FE00003680479274D0022C3F80025242303FB2E
:103FF000045301465B6883B10368234AC3F808236E
:1040000003681B0B5AB20120520903F01F0300FA88
:1040100003F320321D4840F822300B684FF0FF3286
:10402000D3F80C05D3F81485D3F80865D3F81075C8
:10403000C3F80C25C3F814250B689042C3F8082573
:10404000C3F8102501D0FFF7C3FEB8F1FF3F02D03F
:104050004046FFF7BDFE7A1C02D03846FFF7B8FE97
:10406000731C02D03046FFF7B3FE0868FFF7FCF977
:10407000242303FB0454002384F820306360BDE84C
:10408000F08100BF300E00201003020000E100E0CC
:1040900001F06043B3F1005F2DE9F041064635D1F0
:1040A0001F4B0779242505FB073598466C69002CC2
:1040B0002FD16A61A96000684FF49071FFF7F8FD95
:1040C0004FF4AC713068FFF7F3FD33686A69A96893
:1040D000C3F84415C3F84825336801229A606B6819
:1040E000D3B93268D2F82011D2F8583149B9002B2F
:1040F000F8D00F20242303FB078700237B61BDE852
:10410000F081002B14BF0F200020F3E71020BDE842
:10411000F0811120BDE8F0812046BDE8F08100BFAC
:10412000300E00200220FCF753BF000008B5094BF9
:104130001B7853B10020FCF719FF0120FCF716FF94
:104140000320BDE80840FCF711BFBDE80840FCF7BC
:1041500021BF00BF550E0020F8B5784C23780546E6
:104160001BB100232370FFF7E1FF172D00F28780BA
:10417000DFE805F00C1717435464757F878C878C34
:10418000949898989898C2C6CDD4DEDEFFF7CEFFFB
:104190006B48FDF763FE6B4B002204461A70204605
:1041A000F8BD0020FCF7BAFEF8B10020FCF7DEFEF7
:1041B000022D0CBF4FF4E1614FF47A61614B1D7029
:1041C0004FF400404FF4FA740025E0FB01454FF432
:1041D0007A7200232046294625F044F90022014640
:1041E0005748BDE8F840FDF7F5BDFCF7ABFE022DE2
:1041F0000CBFC8214FF4C871E0E70020FCF78EFE29
:1042000040B10020FCF7B2FE4FF4487103224D4B41
:104210001A70D5E7FCF796FEC821F7E70020FCF7F7
:104220007DFE30B10020FCF7A1FE4FF47A6104223C
:10423000EDE7FCF787FE4FF4C871F8E70020FCF7C4
:104240006DFE48B10020FCF791FE3E4B05221A702E
:1042500041F69A110022C3E7FCF774FEF5E700204F
:10426000FCF7B6FE374B06221A70002240F6CD410D
:10427000B6E70020FCF766FE0722324B1A700024D6
:104280008DE701202070FCF7A3FEEEE701202070EF
:10429000FCF79EFE00224FF48041A1E7FCF789FE67
:1042A0000C22EAE72848294EFDF7D8FDD5F1110583
:1042B00004461CD0D8B9012D13D0C8235D434FF458
:1042C000FA7000214FF400474FF47A720023C7FBC5
:1042D000050125F0C7F8224601461B48FDF77AFD87
:1042E00004460220FCF72EFE0123337057E702201C
:1042F000FCF73CFE0023F8E7FFF718FF1222BCE7AB
:10430000FFF714FF0020FCF71DFE1322B5E7FFF7AF
:104310000DFF0120FCF716FE1422AEE7FFF706FFA3
:104320000020FCF70FFE0120FCF70CFE1522A4E78D
:10433000FCF73FFE034B1D70A1E700BFC80E002035
:10434000980E0020D00E0020580E0020550E0020A0
:104350002DE9F04781460D46FCF768FE0328044628
:1043600031D8012D04D022D3022D2ED0BDE8F08704
:10437000194D47003A18A918AE5C4A7852B1DFF8D7
:104380006880164842464FF40041FDF723FD08B906
:1043900088F800903B192B449A78114B1A5596B126
:1043A000104B1B687BB13046BDE8F04718470B48FF
:1043B000FDF754FD084B04EB440213449E78084B70
:1043C0001B5DB342EBD0BDE8F087034B00EB40042C
:1043D0001C446678E3E700BFB80E0020780E00208A
:1043E000D10E0020CC0E0020540E002002210078B7
:1043F000FFF7AEBF044B1B68DB0703D5034B1878F0
:10440000FFF7AABE704700BFC40E0020D00E0020E8
:10441000032801D8FCF7F6BD0020704738B51C4BC7
:1044200018601C4B10F00204054619601AD01A4B94
:104430001A480E221A700F22DA7010229A71112275
:104440005A72042140F26662FDF706FA044648B942
:10445000FDF754FA044628B90146114A1148FDF700
:10446000A7FC0446EB0711D50120FCF7F1FD6CB960
:1044700021460D4A0D48FDF79BFC044630B90C4A15
:104480000C480121BDE83840FDF792BC204638BDFC
:10449000C40E0020CC0E0020B80E0020E4A20200C2
:1044A000ED43000008A30200F54300000CA3020046
:1044B0002541000004A30200F7B50446002860D09F
:1044C000434D6B88022B09D9424B43484349C01ADC
:1044D000C008000440F00300FCF726FB82222146BE
:1044E0003F480AF0DDFA46420746F6B16B889BB1B9
:1044F0003046FCF701FE384C364B3A49E41AE408E2
:104500004FF4A17324040193374B009332460346C2
:1045100044F00100FCF72CFBFCF77AF90028FBD1F2
:10452000C7F59C402030FDF7FFF940F2451200210D
:104530002E480AF0B5FA46420746002E45D06B8851
:104540009BB13046FCF7D8FD234C224B2549E41A99
:10455000E4084FF4A27324040193234B00933246E2
:10456000034644F00100FCF703FBFCF751F9002877
:10457000FBD1C7F59C40203003B0BDE8F040FDF70B
:10458000D3B91A4806F01FFF45420646EDB1104B5D
:104590005B889BB12846FCF7AFFD0F4C0D4B1149D2
:1045A000E41AE40840F24913240401930E4B0093EB
:1045B0002A46034644F00100FCF7DAFAFCF728F932
:1045C0000028FBD1C6F59C40D5E703B0F0BD00BF85
:1045D000D4030020F4BC02002CBD02004CA3020056
:1045E000F145000066A302007DA30200B94400006B
:1045F00010B540F221120021044607F009F90C2100
:1046000006F098FF4FF0FF324270C2700422027130
:1046100001224271022282710622027208228272F3
:10462000074A00236FF0020101708170C371437269
:10463000C372538020460349BDE8104013F03FB8D1
:10464000CC1D002049460000F7B5FE22002105469A
:1046500007F0DEF801460646002007F0FCF80446A5
:104660001321304607F010F86378002B43D12379EB
:10467000002B40D027494B88002B3CD16379264C36
:10468000B0F801200B704A806188022909D92349BA
:104690002348401AC0080004224940F00300FCF7F8
:1046A00051FA0022FF2120480AF0CAFB4642074681
:1046B000F6B163889BB13046FCF71EFD184C174BD2
:1046C0001A49E41AE4084FF4887324040193184B40
:1046D00000933246034644F00100FCF749FAFCF728
:1046E00097F80028FBD1C7F59C402030FDF71CF956
:1046F0000320FCF727FC55B140F217120021284691
:1047000007F086F803B0BDE8F04006F061BE03B0E4
:10471000F0BD00BFCC1D0020D4030020F4BC02007B
:104720002CBD020031A30200B944000066A30200C0
:104730007DA30200F7B55F4E05460AF0E1FDB268C1
:104740005D4B841A9C4288BF141A412CB5FA85F738
:10475000284694BF002401247F09FFF759FE68BB57
:1047600044BB3B4601222146544806F0BFFD45426A
:104770000746FDB1524B5B889BB12846FCF7BCFC59
:10478000504C514B5149E41AE40840F2731324048D
:1047900001934F4B00932A46034644F00100FCF777
:1047A000E7F9FCF735F80028FBD1C7F59C4020302D
:1047B000FDF7BAF80023337103B0F0BD002C54D0DC
:1047C0003B4601220021434806F090FD4642074641
:1047D000FEB13B4B5B889BB13046FCF78DFC394CFE
:1047E000394B3A49E41AE40840F27F132404019358
:1047F000374B00933246034644F00100FCF7B8F90A
:10480000FCF706F80028FBD1C7F59C402030FDF7E7
:104810008BF82946132230480AF042F945420646F1
:10482000002DC9D0264B5B889BB12846FCF764FC61
:10483000244C254B2549E41AE40840F28113240452
:104840000193234B00932A46034644F00100FCF7F2
:104850008FF9FBF7DDFF0028FBD1C6F59C40203027
:1048600003B0BDE8F040FDF75FB8294603221A48BF
:104870000AF016F945420646002D9DD0104B5B8884
:104880009BB12846FCF738FC0E4C0F4B0F49E41A3D
:10489000E40840F28713240401930D4B00932A4649
:1048A000034644F00100FCF763F9FBF7B1FF002871
:1048B000FBD1D2E7CC1D0020FEFFFF7F694900003D
:1048C000D40300202CBD0200F4BC020066A3020049
:1048D0007DA30200DD4800003547000070B59B2233
:1048E0000C4686B0002106F093FF1A4B5B88B4FAA1
:1048F00084F5022B06464FEA55150AD9164B174880
:104900001749C01AC0080004224640F00300FCF713
:104910000FF90024224600940223112130460BF0A7
:10492000C7FB0F2343700822022305708370C470F5
:1049300003924FF48272029201220192094A049476
:1049400012F8021B0091011D30460BF063FA06B00D
:1049500070BD00BFD4030020F4BC02002CBD0200D7
:10496000D0A30200CC1D002070B57B220C4686B07F
:10497000002106F04DFF174B5B88261C18BF01264F
:10498000022B05460AD9144B14481549C01AC00811
:104990000004224640F00300FCF7CAF80024334626
:1049A00022460094112128460BF082FB0623039334
:1049B0004FF4827302930B4A04940123019312F87B
:1049C000023B00930146022328460BF023FA06B06F
:1049D00070BD00BFD4030020F4BC02002CBD020057
:1049E000B8A30200CC1D002073B50546D0B1C0228B
:1049F000002106F00DFF0B2106F046FE0B220021E0
:104A0000044623F069FC03F003F803882381A37AAA
:104A100000216FF3C7132846A37202B0BDE87040AF
:104A200013F07EBC144806F0CEFC454206460DB39A
:104A3000124B5B8893B12846FCF75EFB104C114B80
:104A40001149E41AE408CE23240401930F4B009388
:104A50002A46034644F00100FCF78AF8FBF7D8FE2B
:104A60000028FBD1C6F59C40203002B0BDE8704064
:104A7000FCF75ABF02B070BDE9490000D403002022
:104A80002CBD0200F4BC020066A302007DA302005C
:104A900013B5174C62885AB1164B1748174A184974
:104AA000C01AC0080004DD2340F00100FCF74AF8FA
:104AB000638893B10120FCF71FFB0F4C0D4B11498C
:104AC000E41AE408DD232404019301220B4B009334
:104AD000034644EA0200FCF74BF8FBF799FE002876
:104AE000FBD144F6216002B0BDE81040FCF71CBFCA
:104AF000D4030020F4BC02002CBD02007DA3020000
:104B00008DA3020066A3020073B5294C6388024698
:104B1000002B4BD00E2847D00F2834D10125237904
:104B2000002B43D1012323710AF0EAFB2946A06040
:104B30000322204809F0B4FF45420646002D35D037
:104B40001D4B5B889BB12846FCF7D6FA1B4C1C4BCF
:104B50001C49E41AE4084FF4D873240401931A4B57
:104B600000932A46034644F00100FCF701F8FBF7E6
:104B70004FFE0028FBD1C6F59C40203002B0BDE8B6
:104B80007040FCF7D1BE0C4B5B88022B0ED90C4851
:104B90000A4B0E491B1ADB081B0443F0030002B04A
:104BA000BDE87040FBF7C4BF0025B8E702B070BD98
:104BB000CC1D002035470000D40300202CBD02008E
:104BC000F4BC020066A302007DA3020010A3020051
:104BD00010B5044610F000FA20B12046BDE81040A0
:104BE000FFF702BF022000F0F5FD012801D0FFF71A
:104BF0004FFF44B12046F322002106F009FEBDE834
:104C0000104006F0E5BB10BDF0B585B004A9002545
:104C100041F8045D044610F0B7FC4FF4E972064613
:104C20002946204606F0F4FD062EB0F9042017D8D8
:104C3000052E8B4D2CD2032E00F0D280884B5B8842
:104C4000022B40F2C280874B87488849C01AC008AF
:104C50000004134640F003003246FBF773FFB4E054
:104C6000132E00F0E980142EE8D1002A00F0AD8068
:104C70007B4B5B88012B40F2A8807A4B7A487C49B9
:104C8000C01AC008000440F00200FBF74DFF9CE092
:104C90006B88002A64D1022B09D9724B724875497E
:104CA000C01AC008000440F00300FBF73DFF0220DB
:104CB000FCF748F9704B5B88002B40F0868082221D
:104CC00021466E4809F0ECFE46420746F6B16B8875
:104CD0009BB13046FCF710FA634C624B6849E41A0A
:104CE000E4084FF4F17324040193664B00933246B9
:104CF000034644F00100FBF73BFFFBF789FD00286A
:104D0000FBD1C7F59C402030FCF70EFE40F2451267
:104D100000215D4809F0C4FE46420746F6B16B88A3
:104D20009BB13046FCF7E8F94F4C4E4B5449E41A1E
:104D3000E4084FF4F27324040193524B009332467B
:104D4000034644F00100FBF713FFFBF761FD002869
:104D5000FBD1C7F59C402030FCF7E6FD05B0F0BD67
:104D60004BB1404B40484949C01AC008000440F0CC
:104D70000100FBF7DDFE0220FCF7F8F841220021DC
:104D8000434809F08DFE46420746F6B16B889BB159
:104D90003046FCF7B1F9344D324B3949ED1AED0884
:104DA00040F2ED132D040193364B00933246034637
:104DB00045F00100FBF7DCFEFBF72AFD0028FBD1E4
:104DC000C7F59C402030FCF7AFFD002CC6D040F268
:104DD00015220021204606F01BFD06F0F9FABDE77A
:104DE000E2B90220FCF7C2F86B88039E022B0AD9B5
:104DF0001C4B1D4832792749C01AC008000440F0F6
:104E00000300FBF795FE3379002BDED1022000F082
:104E1000E1FC0128D9D0FFF73BFED6E76B88002BD9
:104E2000D3D0104B10481C49C01AC008000440F0F1
:104E30000100FBF77DFEC8E7094B5B88022B0BD90D
:104E4000084B09481549C01AC008039B00045A685A
:104E500040F00300FBF76CFE0AF0E2F9B5E700BF93
:104E6000D4030020F4BC02002CBD0200ADA402005B
:104E700081A40200ECA30200CC1D0020F14500003B
:104E800066A302007DA30200B944000008A402004A
:104E9000D14B00002BA4020048A402006CA4020025
:104EA0007FB5FCF753FF08B1FCF73EFD4FF400411E
:104EB0000020FBF7F9FB08B1FCF736FDFBF712FB0E
:104EC00030490320FFF7AAFA08B1FCF72DFDFCF7E3
:104ED00061F82D4B00241C702C4B1C802C4B1C703B
:104EE00006F0F2FD06F0F2FD02A8FCF765F902A853
:104EF0000AF088FA4FF480300AF0AAFA20460AF045
:104F000089FA062009F0AAFAC32009F0ADFA0220B6
:104F1000FFF77EFA80F00100C0B20AF067FA0C22B7
:104F200021461C4823F0D8F91B4800F019FA0AF072
:104F300092FA45420646FDB1184B5B889BB1284664
:104F4000FCF7DAF8164C174B1749E41AE4084FF44B
:104F5000107324040193154B00932A46034644F032
:104F60000100FBF705FEFBF753FC0028FBD1C6F55B
:104F70009C402030FCF7D8FC0AF06FFAFBF748FCA5
:104F8000FAE700BF094B0000290100202A01002098
:104F90002C010020CC1D0020A9000020D4030020FB
:104FA0002CBD0200F4BC020066A302007DA3020037
:104FB000054B1B68082B01BF044B1868B0FA80F042
:104FC000400918BF00207047300100103401001064
:104FD00008B54FF080430022C3F80C21C3F810211C
:104FE000C3F838254FF0805203F54043D2F804143B
:104FF000C3F82015D2F80814C3F82415D2F80C14FD
:10500000C3F82815D2F81014C3F82C15D2F81414CC
:10501000C3F83015D2F81814C3F83415D2F81C149C
:10502000C3F84015D2F82014C3F84415D2F824145C
:10503000C3F84815D2F82814C3F84C15D2F82C142C
:10504000C3F85015D2F83014C3F85415D2F83414FC
:10505000C3F86015D2F83814C3F86415D2F83C14BC
:10506000C3F86815D2F84014C3F86C15D2F844247C
:10507000C3F87025FFF79CFF10B1384B384A1A600F
:10508000FFF796FF18B1374BFB22C3F81825FFF73F
:105090008FFF48B13449354B0A681B6822F00F0274
:1050A00003F00F0313430B60FFF782FF18B1304B7F
:1050B0004FF400721A604FF08043D3F80024D207F7
:1050C00044BF6FF00102C3F800242A4AD2F88830A6
:1050D00043F47003C2F88830BFF34F8FBFF36F8F74
:1050E0004FF01023D3F80022002A03DBD3F8043258
:1050F000002B2FDA204B0122C3F80425D3F800241B
:10510000002AFBD04FF010221221C2F80012D3F86F
:105110000024002AFBD04FF010231222C3F80422EF
:10512000154B1A46D3F800140029FBD00021C3F810
:105130000415D2F80034002BFBD0BFF34F8F0D497C
:105140000E4BCA6802F4E0621343CB60BFF34F8F8B
:1051500000BFFDE70A4B0B4A1A6008BD8C560040A1
:105160004881030000F00040E40E004058020010A7
:105170004096024000ED00E000E001400400FA0526
:10518000240100200090D00370B5194CB4F8725679
:1051900084F87E3625F00705054305F0E70545F45C
:1051A0008045A4F87256DD01022845EA810134BF2A
:1051B0000226002641EAC2013143342284F87416E3
:1051C00084F875260021122284F8762688424FF052
:1051D0006C0284F8772642F6412218BF4FF4285219
:1051E000A4F87816A4F87A26A4F87C1670BD00BF3F
:1051F000D81F002030B50A4DB5F87F4624F00F04C3
:10520000204320F0F00040EA011020F4706040EAF2
:105210000220C0F30B0040EA0330A5F87F0630BD42
:10522000D81F002070B583798B4205460C46164680
:1052300004D8A9214FF4496006F01CFB043425F87A
:10524000146070BD70B5C3798B4205460C46164696
:1052500004D8B7214FF4496006F00CFBAB791C442D
:10526000043425F8146070BD70B51C4D1C4E95F8C3
:1052700086260023082102F0F00285F8871663F3E2
:105280000712092185F88136A5F88236A5F88436FB
:1052900085F8881685F8862685F8C4361C4605F2FA
:1052A000816536F81420E1B228460134FFF7BAFFD1
:1052B000082CF6D10B4E0C4D0024325DE1B228468D
:1052C0000134FFF7BFFF092CF7D10C23032207217C
:1052D0000020BDE87040FFF78DBF00BFD81F002041
:1052E000CEA40200DEA402005926002008B50A4B15
:1052F00093F87121003218BF0122114601230220C8
:10530000FFF742FF01220C2311460020FFF772FF36
:10531000BDE80840FFF7A8BFD81F002007B50F4B16
:1053200093F8C426052A0AD8511C83F8C41603EB47
:105330008203C3F8AC06002003B05DF804FB04232D
:10534000019200934FF0FF3040F219134FF449627D
:10535000012109F0ADFE6FF01C00EDE7D81F002021
:10536000F7B50AF037F90AF0C9FE83681B78019394
:10537000042300934FF4496240F2271301214FF0B8
:10538000FF3009F095FE00250AF0B8FE83681B780F
:10539000ECB2A3420CD80AF041F900284FD14FF4E7
:1053A0009D714FF4496003B0BDE8F04006F062BA69
:1053B0000AF0A4FE8368D3F8013053F82430D3F800
:1053C0001500FFF7ABFF0AF099FED0F8B030A70048
:1053D00063B10AF093FED0F8B0600AF08FFE8368E4
:1053E000D3F8013053F824301878B04700260AF07B
:1053F00085FE8368D3F80130DB591B7CF4B2A342ED
:1054000001D80135C0E70AF079FE8368D3F801308E
:10541000DB59D3F81130C4EB04142344D3F80B3018
:105420005BB10AF06BFE8368D3F80130DB59D3F827
:1054300011301C44D4F80B3098470136D7E703B03D
:10544000F0BD000013B540F217224FF4D5710446A9
:1054500006F0DEF9052106F017F90A4BD3F8C82249
:10546000026093F8D022027193F8C52683F8C8260B
:10547000002300931A462146034809F097FA02B028
:1054800010BD00BFD81F0020C96000002DE9F34106
:10549000684D95F8D13204462E46F3B995F8BA22F4
:1054A000402A13D095F8D922C5F8C832012161F3FA
:1054B000430285F8BB1201465F4885F8D922009364
:1054C0001A4609F073FA02B0BDE8F08185F8D122DE
:1054D00000931A4621465948F3E7402B05D1002393
:1054E000014600931A465648EBE7102B1ED12023A5
:1054F00085F8D13295F8BB32012B08D195F8DF320F
:10550000002262F3000385F8BB2285F8DF3296F8AB
:10551000BB2296F8DB120023524220460FF064FDB6
:10552000002300931A4621464648CAE795F8BA2256
:105530001A40D10705D50023014600931A46424878
:10554000BFE712F0020164D013F0FEFF0746002807
:1055500053D195F8BB82B8F1030F0DD195F8BC3249
:10556000DB0727D50A230146204685F8743102B0AF
:10557000BDE8F04102F00CBCB8F10A0F1AD11023BB
:10558000D9224FF4D571204685F8D13206F040F982
:10559000414606F079F808223946064622F09CFE7C
:1055A00020463772777285F8748102B0BDE8F04109
:1055B00003F0F4BD96F8BC1211F001010AD096F880
:1055C000D13213F0020383D0002300931A46214600
:1055D0001E4876E796F8DF2212F0020308D0102367
:1055E00086F8D132032386F8BB3200910B4670E770
:1055F00000931A462146164863E74FF485724FF42C
:10560000D571204606F004F902B0BDE8F04105F07E
:10561000DFBE1F2B03D85A0085F8D122E5E72023EF
:1056200085F8D13200283FF44EAF40F22D124FF4EE
:10563000D571E7E7D81F0020A95900008D5400005C
:105640006D5F00000D620100756000004D570000A5
:105650005556000037B53A4C94F8D93203F00E0194
:105660000229054638D1D4F8C022AAB394F83922C9
:1056700012F0010230D162F3430384F8D9320123DE
:1056800084F8BB3210F0DCFE10B394F82D37012BF8
:105690001ED1D4F8C822DAB994F8722103FA02F2C2
:1056A000C4F8C82294F8D92263F3430284F8D922BB
:1056B000D4F8C8321BB9D4F8C032C4F8C8320023B9
:1056C000204800931A46294609F070F903B030BD0E
:1056D0000023C4F8C832EBE794F83932DB0719D459
:1056E00079B9D4F8C432ABB194F8D932032262F359
:1056F000430384F8D932012384F8BB32D4F8C4328E
:10570000DBE7022906D1D4F8C4321BB1D4F8C03289
:10571000002BE9D0032384F8BB3294F8D9320A482D
:10572000012262F3430384F8D93294F8D1329340D2
:1057300084F8D132002300931A462946C4E700BFFB
:10574000D81F0020455400008D54000038B54FF498
:1057500022724FF4D571054606F05AF8042105F07F
:1057600093FF00210446042222F0B6FD6FF00303EC
:1057700023704FF0FF336370B423A3700123E370F1
:1057800028460249BDE8384012F01ABE9157000081
:1057900013B540F29A224FF4D571044606F038F85A
:1057A000B0F90420094B12B1092283F8BB2293F807
:1057B000D122520083F8D12234B1002300931A463B
:1057C0002146034809F0F2F802B010BDD81F0020AE
:1057D0008D54000007B5144A92F8D13213F0DF035C
:1057E00020D182F8D13292F8BC3282F8BA0213F09A
:1057F000010309D100931A4619460C4809F0D6F85E
:10580000012003B05DF804FB022807D1012382F8D0
:10581000BB320A2382F8D10282F8DB32044805F059
:10582000D2FDEDE70020ECE7D81F0020BD540100B9
:105830008D54000008B50B4B93F83922520706D45B
:1058400014F030FB437843F00103437008BD93F834
:10585000313C9B07F4D414F025FB437823F001037B
:10586000F3E700BFD81F002070B54A4C86B0FFF7A1
:10587000E1FF94F8DF3202216FF3820304F5127026
:1058800084F8DF3214F0D2F8002864D094F8DF32C4
:1058900043F0040384F8DF3294F8D8303E493F489F
:1058A000032B08BF02234FF0080208BF84F8D8304A
:1058B00022F0DEFC002864D094F80054C5F3800583
:1058C00094F87432142B5ED8EDB26DB108223449CD
:1058D000344822F0CDFC94F8D932B0FA80F0400977
:1058E00060F3000384F8D93294F8DF3265F34103A2
:1058F00084F8DF322DB114F0D5FA437823F0010398
:10590000437094F8D9322449244894F8D86043F07D
:105910008003082284F8D93222F0AAFC94F8DF32FE
:105920000295C3F38003059394F800340196003088
:10593000C3F3800318BF0120049314230390009342
:105940004FF4D5724FF4CF7301214FF0FF3009F0BF
:10595000AFFB06B070BD082204F5B47104F51270F7
:1059600022F086FC002891D094F8D932DB078DD440
:1059700008220B4904F5127022F07AFC002885D029
:105980008AE705469CE7002D9ED094F8DF52C5F3C8
:10599000800599E7D81F00200FAB0200A820002047
:1059A00007AB02002022002037B50546FFF75CFF59
:1059B0004C4B93F8DF2212F0020F1C4630D093F8C4
:1059C000BC22D20713D593F8BA22042A0FD10B2296
:1059D00083F8DB22102283F8D122002D6BD0002324
:1059E00000931A462946404808F0E0FF63E094F827
:1059F000BA32012B0DD04FF4E8724FF4D57128461E
:105A000005F006FF0123D4F83C2238490FF0B2FE1E
:105A10000025062384F8DB32012384F8D132DCE749
:105A20000822334903F1D00022F022FC10BB94F885
:105A3000003458071ED494F8DF32590705D494F87F
:105A4000BA32042B39D10B23E4E7082204F5B471F0
:105A500004F5127022F00CFC0028F0D094F8D93232
:105A6000DA07ECD40822234904F5127022F000FC76
:105A70000028E4D008221E491C4822F0F9FBF0B1AE
:105A800094F87432142B03D994F8DF325B0716D5DF
:105A90004FF4FE724FF4D571284605F0B9FE00238D
:105AA000D4F83C2211490FF065FE062384F8DB325E
:105AB000012384F8D13203B030BD0523AAE70024C6
:105AC000009440F206234FF4D57201214FF0FF30CD
:105AD00009F0EEFA2146284603B0BDE8304002F056
