:1000000000000420E1020000090300000B030000CF
:100010000D0300000F0300001103000000000000AA
:1000200000000000000000000000000013030000BA
:100030001503000000000000170300001903000072
:10004000D126000041E30200292700001B03000025
:100050001B0300001B0300001B0300001B03000028
:100060001B0300001B0300001B0300001B03000018
:100070001B030000152800001B0300001B030000E9
:100080001B0300001B0300001B0300001B030000F8
:100090001B0300001B0300001B0300001B030000E8
:1000A0001B0300001B030000312A00001B0300009B
:1000B0001B0300001B030000000000000000000004
:1000C0001B0300001B0300001B0300001B030000B8
:1000D000A50003001B0300001B0300001B0300001E
:1000E0001B0300001B0300001B03000000000000B6
:1000F000000000001B030000000000001B030000C4
:1001000000000000000000000000000000000000EF
:1001100000000000000000000000000000000000DF
:1001200000000000000000000000000000000000CF
:1001300000000000000000000000000000000000BF
:1001400000000000000000000000000000000000AF
:10015000000000000000000000000000000000009F
:10016000000000000000000000000000000000008F
:10017000000000000000000000000000000000007F
:10018000000000000000000000000000000000006F
:10019000000000000000000000000000000000005F
:1001A000000000000000000000000000000000004F
:1001B000000000000000000000000000000000003F
:1001C000000000000000000000000000000000002F
:1001D000000000000000000000000000000000001F
:1001E000000000000000000000000000000000000F
:1001F00000000000000000000000000000000000FF
:1002000010B5054C237833B9044B13B10448AFF350
:1002100000800123237010BD800300200000000037
:10022000F44203000C4B43B10C480D4910B5AFF339
:1002300000800C48036823B910BD0A48036833B92D
:100240007047094B002BF7D0BDE810401847064B0C
:10025000002BF5D0184700BF00000000F442030057
:1002600084030020FC02002000000000154B002B3E
:1002700008BF134B9D46A3F5803A00218B460F46DD
:100280001348144A121A30F061FA0F4B002B00D0B9
:1002900098470E4B002B00D0984700200021040007
:1002A0000D000D48002802D00C48AFF3008030F05C
:1002B000D5F92000290003F001FA30F0A9F900BFB8
:1002C0000000080000000420000000000000000002
:1002D00080030020247C00200000000000000000BB
:1002E0000649074A074B9B1A03DD043BC858D05008
:1002F000FBDC03F055FAFFF7B9FF0000A843030049
:100300000000002080030020FEE7FEE7FEE7FEE796
:10031000FEE7FEE7FEE7FEE7FEE7FEE7F0B595B095
:100320001C4608460D46164601F092FE1A9B09949B
:1003300000240D930822234605A9284608960A940E
:100340008DF82C400C9401F0A1FE079B0293BDF8A0
:100350001830ADF80C30BDF81A30ADF80E309DF8FD
:1003600014308DF8114003F00302012A1DD1BDF8AD
:100370001440059EC3F3C203C4F383148DF81030F8
:10038000A20008230EA9284601F080FEC6F3952698
:1003900008AB0093224602AB0EA9304600F002FDE6
:1003A000284601F059FE15B0F0BD022AF8D1BDF87B
:1003B0001640C3F3C203C4F389148DF81030082724
:1003C000082C264628BF08263B4632460EA928465A
:1003D00001F05CFEA41B08AB02AA31460EA837440C
:1003E00000F044FD002CEBD1DAE70000014B0122C4
:1003F0001A707047DD0300207047000070B50F4D84
:1004000006460FCD88B06C460FC495E80F00002E4D
:1004100084E80F004FF006030093094A09484FF0A3
:10042000805308BF00226946069302F02DF808B1F8
:1004300001F0E4F8044B1E7008B070BDB41B03005B
:10044000ED030000000000209C03002007B5044BD2
:100450000093044A4023FFF761FF03B05DF804FBFB
:10046000690400009D03002038B50D4B0D4D0020A0
:1004700018700D4804782D5DD2B21C4665B1043069
:1004800002F072FF08B101F0B9F8084B1A7812B106
:100490002378002BFBD038BD0C3002F029FDF1E7AA
:1004A000DD030020145E0020000000209C030020DB
:1004B00008B50848084A0378D35C3BB1043002F021
:1004C000F9FE0020BDE80840FFF798BF0C3002F0AD
:1004D000B5FCF6E700000020145E00200120FFF7C5
:1004E0008DBF000008B5FFF7F9FF0421034800F0B5
:1004F000B7FB034B01225A7108BD00BF78430300CC
:1005000014000020037813F0040216D003F0030354
:10051000012B03D0022B09D0012070470A68008804
:100520000232C0F3831002440A60F5E70B68428888
:10053000023303EB92130B60EEE7104670470000A6
:100540002DE9F04F494C87B00F460646851C002028
:10055000019201F073F823683B606268A36813445A
:10056000226801339B1A04F21C4704F5836A04F2E3
:100570001448AB4219D3019A0023002A6ED00122FD
:1005800062F3010343F0040366F389132168A26850
:100590000A4003320D44002044F82230256001F067
:1005A0004FF8012007B0BDE8F08F0121384601F077
:1005B00089F8504601F0A3F8404601F0A0F80DF18B
:1005C00018096068D4F808B049F8100D00EA0B006B
:1005D000033004EB80004946FFF794FF029BB8B953
:1005E0000BEA030204EB8202D16803919A1C0133E7
:1005F00003EA0B0B04EB8B0E0292DEF80C30049333
:1006000001F00303012B21D0022B04D083460CE020
:100610000BEA0300DCE7BDF80E30BDF812B0C3F3FF
:100620008913033302EB93030293404601F06AF807
:1006300008B1029B63605946384601F043F862688E
:10064000A3681344226801339B1A92E7BDF80C306B
:10065000BDF812B0C3F383131344E5E7022262F33B
:10066000010343F0040366F39F538FE7B0040020B7
:1006700030B50A4B0A4A0B49D21AD20800239A42D3
:1006800001D1052030BD31F823500468A54202D1C4
:100690000360002030BD0133F1E700BF10430300C9
:1006A00078430300000300202DE9F84F224B234834
:1006B000FF229A600022C3F818241A605A60C3F817
:1006C000142483F8202401F07AFC804688B91C4861
:1006D0001C4E1D4DDFF874B001F0A8FDAD1BED08F8
:1006E0004446AC4208D10023184919481A469C4296
:1006F0001BD14046BDE8F88F4FF000094F4606EB8E
:10070000C40ABC420AD0142256F83710DAF80000A6
:1007100030F064FB0028C8BF09F101090137BD4270
:10072000EFD12BF824900134DBE701EB830540F88F
:1007300023206A800133DAE7B004002088430300F5
:10074000F41B030010430300784303000003002060
:100750003403002007B5019031B9074B019A53F8D3
:10076000320003B05DF804FB01A8FFF781FF002809
:10077000F3D00020F5E700BF10430300094B013917
:1007800003EBC000032909D8DFE801F00A020406E0
:100790000420704700797047407970470020704707
:1007A000022070471043030030B5124C00EB4000AC
:1007B00054F821508240072303FA00F06A400240B7
:1007C0006A40C2F3C20302F00700834238BF034607
:1007D000C2F38210834238BF0346074844F8212001
:1007E000C2F3422200EB81019A4238BF1A464A8086
:1007F00030BD00BF3403002000030020034B5868C5
:100800001B68C31A58425841704700BFB00400200B
:100810002DE9FF47FFF7F2FF0646002840F00B8165
:100820008D4DC5F81804BFF34F8F6868AC6804AFEE
:1008300047F8100D2040033005EB80003946FFF7E4
:1008400061FE009B18B1D5F81824002A62D004EA92
:10085000030205EB8202D66801969A1C01332340FD
:1008600005EB8303F6B2DB68029306F00303022B69
:10087000009261D1BDF806307848C3F389194F461C
:10088000502FA8BF502767F38F1307F10801ADF869
:10089000063001F0ACFBC6F3C2068046002800F02B
:1008A000D28001F0D5FB082201A90023404601F0C7
:1008B000E2FB009924EA010201329200974234D906
:1008C000002A00F0BA8021405FFA82FA0331A7EBD8
:1008D0000A07634C05EB8101FFB2082352464046EC
:1008E00001F0C9FB34B10AF108033A4621464046FB
:1008F00001F0C1FB009B09F1030903EB990300938D
:10090000D5F81834002B4ED1D5F81044554F4FF080
:10091000070968E02A689A4204D86A60304604B041
:10092000BDE8F08704EA030085E70C40E11C0823DA
:100930003A4605EB8101DAE7012B40F08480BDF8EF
:1009400004604648C6F38311062928BF062161F3D7
:10095000891602318900ADF8046001F048FBC6F346
:10096000C206804600286ED001F072FB00230822E8
:1009700001A9404601F07FFB0027BDF80420C2F327
:100980008312BB1C97424FEA8303B9D200994A1CD9
:1009900021400331009205EB81010422404601F021
:1009A0006AFB0137E9E7404601F056FBFFF726FFF7
:1009B00080F00100C6B2B1E7E3685A798AB11B79C9
:1009C000BDF8081003EB430257F8211009FA02F3AF
:1009D000052E03EA010323FA02F308BF0326B342FC
:1009E00034D2E3681C68002CE6D1404601F034FBA9
:1009F000204600F023FED5F818340BB9009B6B603D
:100A0000002000F01DFED1E7236820469B68984730
:100A1000E3681C68002CF7D1134B5B88012BC5D908
:100A2000124B13481349C01AC008000440F00200DA
:100A300000F07AF8BAE7002670E75FFA87FA144602
:100A40000749174649E7D5F81044E3E723684146CC
:100A50001B6820469847C4E7B00400208843030081
:100A6000BC040020340300201803002010430300BE
:100A700040430300001C03002DE9F74F284C80463B
:100A80000F46924601A9012218469B46A568FFF72A
:100A900057FD88B3DDF80490002609F102025E4597
:100AA00034D100211F4800F0CDFD80F3100009F182
:100AB00001022A4004EB8202000405EA0903033321
:100AC00040EA1840D06014F8232068F3C50204F807
:100AD000232034F8232066F3891224F8232054F8C5
:100AE0002320012167F39F2244F8232061F30102B0
:100AF0006FF3820204F8232094F820341BB1FFF72F
:100B000087FE0028FBD103B0BDE8F08F02EA0501A3
:100B100004EB81015AF82630CB6001360132BEE782
:100B2000B0040020CC08002000231A46FFF7A4BF21
:100B300013B502AC012344F8042D2246FFF79CFFB5
:100B400002B010BD07B58DE80C0002236A46FFF71E
:100B500093FF03B05DF804FB1FB50293069B01925F
:100B6000039301AA0323FFF787FF05B05DF804FB99
:100B70001FB58DE80C00069B0293079B03936A4602
:100B80000423FFF779FF05B05DF804FB2DE9F34777
:100B90008046314CD01C8A46174601A900228008A5
:100BA000A568FFF7CDFC002840D0DDF80490A668CA
:100BB00009F10200019001362840361AB600B7420A
:100BC00000F103003CD83A46514604EB80002FF078
:100BD00098FD0021214800F035FD80F3100009F157
:100BE00001032B4004EB8303000440EA1840D86063
:100BF00005EA0903033304EB830214F8231068F3B6
:100C0000C50104F8231034F823106FF38F1124F872
:100C10002310518867F38F11518014F8232002218B
:100C200061F301026FF3820204F8232094F8203468
:100C30001BB1FFF7EDFD0028FBD102B0BDE8F08746
:100C40003246514604EB80002FF05BFDBA1B0AEBE5
:100C5000060104F10C00BAE7B0040020CC08002023
:100C60002DE9F8431F4B8846D3F81014054600249D
:100C70000A469AB9E9680C71D3F81014A1B9C3F8FF
:100C80001054EB681A60184F184EF61BF6084FF018
:100C90000009B14511D12046BDE8F883D26810792A
:100CA000A04218D01268E4E7C968EA6809681160D0
:100CB000D3F81034DB681D60E5E707EBC90349464C
:100CC000DA79EB68424528BF42461879FFF76CFD98
:100CD00009F10109DDE701340A2CC9D14FF0FF34D5
:100CE000D9E700BFB004002010430300784303009D
:100CF00073B5C38804460D4633B1144A00921449B3
:100D0000144A284600F05DFD217A05291CD0637A3B
:100D10004BB1A088FFF732FD0F4B104953F820204C
:100D2000284600F04EFD227A0D4BA08853F8226031
:100D30000021FFF70FFD0B4903463246284602B05B
:100D4000BDE8704000F03DBD02B070BD7B1C0300EB
:100D5000631C03005B1C0300281C0300801C0300B1
:100D6000901C0300831C030010B5037A052B0C466E
:100D70000FD0437A23B1084A0849204600F021FDEC
:100D80000749204600F01DFD2046BDE8104000F058
:100D90000DBD002AF8D0F3E77B1C0300801C030084
:100DA000781C03002DE9F04385B01F460C9D0023FD
:100DB00006460C46904695F80C902B73294638460B
:100DC000FFF796FFB8F1060F09D8DFE808F0041224
:100DD000181F283340003146284600F0F2FC00225C
:100DE00029463846FFF7C0FF85F80C9005B0BDE8EE
:100DF000F08322683146284600F0E3FCEFE794E8F0
:100E00000C003146284600F0DCFCE8E7A3680093BC
:100E1000314694E80C00284600F0D3FCDFE7E36895
:100E20000193A3680093314694E80C00284600F033
:100E3000C8FCD4E723690293E3680193A368009395
:100E4000314694E80C00284600F0BBFCC7E7636914
:100E5000039323690293E3680193A36800933146E7
:100E600094E80C00284600F0ACFCB8E708292DE90E
:100E7000F84F80460E4617461C4638D8002593F892
:100E80000C901D7319461046FFF732FFDFF880A063
:100E9000DFF880B0AE422CD918F80520594620461C
:100EA00000F08FFC0135082DF4D11749DFF868B048
:100EB000204600F086FC0025AE421FD918F805A098
:100EC0002FF0F0FB50445946437813F0970F14BFAE
:100ED00052462E22204600F074FC0135082DEBD13D
:100EE000012221463846FFF73FFF84F80C90BDE809
:100EF000F88F5146204600F064FCD3E703492046B2
:100F000000F05FFCE9E700BF561C0300541C03001F
:100F1000521C03004C1C0300581C0300074B1B5CB5
:100F20001F2B86BF03F01F0305494FF0A04101228C
:100F300002FA03F3C1F80C35704700BFF91C030037
:100F400000030050074B1B5C1F2B86BF03F01F03E1
:100F500005494FF0A041012202FA03F3C1F8083518
:100F6000704700BFF91C03000003005008B50020C3
:100F7000FFF7E8FF0120FFF7E5FF0220FFF7E2FFA0
:100F80000320BDE80840FFF7DDBF0000C20770B5D1
:100F9000044614D5154D164E00220320535D1F2B19
:100FA00086BF03F01F0331464FF0A04103F5E07305
:100FB0000132042A41F82300F0D1FFF7D7FFA3073D
:100FC00012D50C4C0A4D00220C20135D1F2B86BF3E
:100FD00003F01F0329464FF0A04103F5E0730132EF
:100FE000042A41F82300F0D170BD00BFF91C0300B2
:100FF00000030050F51C03000D4930B5A1F50E7239
:101000000225914201D8002030BD8B1ADB1093FBE2
:10101000F5F302EBC30452F83330834205DC02DA05
:1010200004F10802EDE7606830BD2146E9E700BF42
:101030009424030008B5FFF7DFFF024B002808BF28
:10104000184608BDFD1C030008B500F097FA00F033
:1010500095F8002001F0ACF910B100F0E5F8FCE7DC
:1010600001F050FA10B900F0DFF8FCE708BD08B550
:1010700000F0DAF8FCE762B6704772B6704713B555
:1010800002AC002304F8053D01939DF80330032BC7
:1010900008D904210DEB010001F0B4F930B9019831
:1010A00002B010BD204601F0A3F9EEE70020F7E7FB
:1010B00008B50FF099FB4FF47053584308BD00007A
:1010C000034A431A934288BF0B1A1846704700BF61
:1010D000FEFFFF7F10B50446FFF7EAFF0444FFF769
:1010E000E7FF844204D2FFF7E3FF8442FBD310BD45
:1010F000FFF7DEFF8442FBD810BD38B50D4614461D
:101100005AB151B148B101F041FA2946204601F0E7
:1011100013FA10B900F088F8FCE738BDEFF305804A
:10112000003018BF0120704737B54FF08053094D8C
:101130001C6E596E00220A4304F0FF030024224370
:101140002B4302A961E9022308222FF0DAFA03B047
:1011500030BD00BF000E010B40BF20BF20BF704755
:1011600008B505F0CDFE437B33B1FFF751FB18B94D
:10117000BDE80840FFF7F0BF08BD000008B50BF060
:10118000B1FB48B9054B1B7813B9054B1B781BB154
:10119000BDE808400BF0ACBB08BD00BF4800002014
:1011A0004C0000202DE9F84307460E460BF09AFB51
:1011B00058B1184B184CDFF86890DFF86880E41AD3
:1011C000E408240444F003040EB9BDE8F883D9F818
:1011D0000000C0F10805B542A8BF35462A46394689
:1011E00040442FF08EFAD9F800202A44082AC9F882
:1011F00000202F44A6EB0506E6D1084B5B88022BA6
:1012000003D941462046FFF7C1FC0023C9F800304E
:10121000DAE700BF104303007043030030030020EF
:10122000740900206C09002010B50C4C226882B1B2
:101230000B4B5B88022B0AD90A4B0B480B49C01A8F
:10124000C008000492B240F00300FFF79FFC0023A7
:101250002360BDE81040FFF7DBBA00BF740900202F
:101260003003002010430300704303006C0900208A
:101270004FF0102358694FF08053411C1A695B6985
:1012800008BF03FB02F070470378022B01D80BF074
:101290003DBB704710B5FFF7EBFF0A4C2061FFF72D
:1012A000E7FF094B0949A0F54040E06000222046D5
:1012B000C3F8082100F03CFC18B1BDE81040FFF76E
:1012C000D6BE10BD680300207809002094260300D4
:1012D0004FF4804070470220704708B513460A4615
:1012E00031B143B1014618462FF00BFA002008BD7A
:1012F0006FF00A0008BD6FF00B0008BD0128F8B5BB
:1013000007460C4616461D4612D80B44B3F5804FCF
:1013100011D29AB1ADB1FFF7ABFFA4F5404101EB9B
:10132000873101442A4630462FF0EBF90020F8BD02
:101330006FF03800F8BD6FF01600F8BD6FF00B00CD
:10134000F8BD6FF00C00F8BD0128F7B507460C4654
:1013500016461D4626D80B44B3F5804F25D23AB326
:10136000AB0828D0FFF784FFA4F5404404EB873492
:1013700004440BF0D3FA07460028FAD10BF0BEFA6A
:10138000214600972B4632460C4800F00DFC0446DF
:101390000BF0C4FA0028FBD1201C18BF01204042EA
:1013A00003B0F0BD6FF03800FAE76FF01600F7E712
:1013B0006FF00B00F4E76FF00C00F1E7680300201A
:1013C00001282DE9F041064626D8FFF751FF00EB32
:1013D0008630A0F54044DFF8508004F580470BF0DC
:1013E0009DFA05460028FAD10BF088FA2B46012217
:1013F0002146404600F09EFC90B90BF08FFA05465E
:101400000028FAD104F58054BC42E8D130460BF0F4
:101410008DFA2846BDE8F0816FF03800BDE8F08114
:101420004FF0FF30BDE8F0816803002010B5084C94
:10143000D4F8083153B19BB22246D4F8041194F881
:101440000001FFF781FF0023C4F8083110BD00BF81
:10145000780900202DE9F8431C4C1E46D4F80831C9
:1014600081460F46904693B194F80021824207D1FD
:10147000D4F804211A44914202D1B3F5807F06D1F9
:10148000FFF7D4FF03E0FFF7D1FF2F44A844D4F8BF
:10149000080118B984F80091C4F80471C0F580758A
:1014A000B54234BFADB235464DB12A46414620441F
:1014B0002FF027F9D4F808312B44C4F80831761BF3
:1014C000B6B2002EDFD13046BDE8F883780900209F
:1014D00007B50C4B18680090FFF7CAFE0422A0F570
:1014E00080410DEB02002FF00CF9042269460DEB50
:1014F00002002FF0F7F8B0FA80F0400903B05DF871
:1015000004FB00BF9A24030070B506460D4614463E
:10151000FFF7AEFEA4F57F543C3C324629462044FA
:10152000BDE87040FFF7D9BE00487047A024030013
:101530000422032102708170002206214270C170D2
:1015400042607047B0F5A27F01D10BF0F1B970474E
:1015500008B5FFF7E9FF01F0F7F9FFF7E5FF01F044
:10156000FFF9024B00221A7008BD00BF840A002058
:10157000014B1878704700BF840A00201FB502A8ED
:10158000FFF7D6FFFFF7D0FF104A02A901F05AF982
:1015900008B1FFF76CFDFFF7C7FF0368D3F81045EC
:1015A000FFF7C2FFE2B24FF47031012421FA02F2D8
:1015B00002232146009401F022FAFFF7B5FF01F063
:1015C000B5F9034B1C7004B010BD00BF45150000F9
:1015D000840A002008B5084B1B780BB9FFF7CEFF33
:1015E000FFF7A2FF01F0E4F928B9FFF79DFFBDE87E
:1015F000084001F09BB908BD840A00201FB50021F6
:10160000039001AA44F201000191029127F0A2FD8A
:1016100005B05DF804FB000072B6024A136801339E
:1016200013607047880A0020034A1368013B136067
:1016300003B962B6704700BF880A0020FFF7ECBF0D
:10164000FFF7F2BF00B550E8002F0B4640E8003E20
:101650009EF0000FF7D110465DF804FB00B550E88E
:10166000002F42EA010340E8003E9EF0000FF6D151
:1016700010465DF804FB00B550E8003F43EA010264
:1016800040E8002E9EF0000FF6D110465DF804FBF6
:1016900000B550E8002F02EA010340E8003E9EF04A
:1016A000000FF6D110465DF804FB00B550E8003F8E
:1016B00003EA010240E8002E9EF0000FF6D110462A
:1016C0005DF804FB00B550E8003F03EB010240E881
:1016D000002E9EF0000FF6D110465DF804FB00B519
:1016E00050E8003FA3EB010240E8002E9EF0000FFF
:1016F000F6D110465DF804FB0121FFF7AFBF0121D1
:10170000FFF7B9BF0021FFF7C3BF0021FFF7CDBF2F
:1017100010B590B14268836801689B1ADBB20A6019
:10172000013BDBB2FF2B026802D10020107110BD1B
:1017300011684C1C14600B70F2E70E2010BD38B518
:1017400004460020FFF77AFF2268616813688B4225
:1017500015D9591E116013F8015CA28AE36802FBD7
:1017600005352268A36811685B1A1179DBB29942CA
:1017700000D213710020FFF763FF284638BD002513
:10178000F8E738B5054600200C46FFF757FF2A68F2
:101790001368591C1160E968641AA98AB4FBF1F452
:1017A0001C700020BDE83840FFF74ABF10B58268C2
:1017B00004462AB143690168006998470023A36081
:1017C00010BD0EB403B5039929B102AA04AB42F8C7
:1017D000043D00F06DF802B05DF804EB03B0704713
:1017E000826830B40468551C8560A15482684368DF
:1017F0009A4202D330BCFFF7D9BF30BC704700001B
:101800002DE9F84F0A9C99460B9B1746824688465D
:101810000A460126BA420FD24E4538BF4E4613F053
:10182000010B01D164B900240125B9F1010F1AD9C6
:1018300009F1FF397D43F8E7B2FBF7F20136E9E73A
:101840009B070ED5B9F1000F0CBF30252025A6420D
:10185000EAD2013C29465046FFF7C2FF002CF6D1E0
:10186000E1E72025F3E7B8FBF5F39F42E2D9DFF883
:101870003C90B8FBF5F3504619F8031005FB1388AC
:10188000FFF7AEFFB5FBF7F5002DF2D1BBF1000F6E
:101890000AD03CB9BDE8F88F013C20215046FFF743
:1018A0009FFF0CB1A642F7D3BDE8F88FA824030030
:1018B0002DE9F74F054617460C46002900F0358103
:1018C00014F8011B49B92B7B002B00F02E81284610
:1018D00003B0BDE8F04FFFF769BF252940F0218133
:1018E00023460026194611F8012B2D2A24D0302A30
:1018F00026D02B2A27D000242A2A994603F1010159
:1019000024D13B681A1D3A601B6889461C4499F82B
:1019100000302E2B25D109F101014FF00008894636
:1019200011F8012BA2F1300009281CD80A2303FB6F
:101930000823A3F13008F2E746F001060B46D1E791
:1019400046F00206FAE746F00406F7E71A780B4677
:10195000A2F130010929DAD80A2101FB0424303C24
:10196000CAE74FF0000899F8001001F0FB02682A5E
:1019700002D119F8011FF8E769290FD04BD858296F
:1019800065D007D825296ED009F101042378002BF2
:1019900096D198E7632962D06429F5D13A68111D80
:1019A0003960D2F800A08AEAEA72A2EBEA724FF03C
:1019B000010B092A5BDCC34538BFC3462CB1BAF121
:1019C000000F01DB710700D5013CB20702D5B8F169
:1019D000000F04D0F30702D4002C4ED10024BAF13A
:1019E000000F52DACAF1000A2D212846FFF7F8FE4F
:1019F00006F00302022A05D1B8F1000F02D1002C33
:101A000047D100248DE8500043460A22514628461B
:101A1000FFF7F6FEB8E773294CD014D87029B3D17C
:101A20003B681A1D3A60302128461C68FFF7D8FE33
:101A300078212846FFF7D4FE002301930823009362
:101A400010222146E3E775292BD078299CD13968EB
:101A50000A1D3A6043468DE85000102228E03B689A
:101A60001A1D3A6019782846FFF7BAFE8CE70A2358
:101A70000BF1010B92FBF3F29BE7A345AFD22021C0
:101A80002846013CFFF7ACFEA6E77007B0D52B2136
:101A9000ABE7A345B6D230212846013CFFF7A0FEB4
:101AA000ADE739680A1D3A608DE8500043460A22C6
:101AB0000968ACE73B681A1D3A60F107D3F800A04B
:101AC00012D55646A6EB0A0B16F8011B41B95C4528
:101AD0007FF65AAF20212846013CFFF781FEF6E74A
:101AE0002846FFF77DFEEDE7BAF1000F11D0504612
:101AF0002FF06CF90646B44200D964B90AF1FF3AF6
:101B00001AF8011F00293FF43FAF2846FFF768FE8F
:101B1000F6E75646EFE720212846013CFFF760FE36
:101B2000E9E72846FFF75CFE30E703B0BDE8F08F39
:101B300007B50B46A0B9154B5B886BB1144B154824
:101B4000154AC01A0E23C0080093144B0004144910
:101B500040F00100FFF700F80E2003B05DF804FB31
:101B60006BB90A4B5B88002BF6D0094B09480D4A2C
:101B7000C01AC0080E2300930004084BE7E7036077
:101B80001B68114603B05DF804EB184724030020DE
:101B9000104303005843030065250300B8240300E5
:101BA0006A250300E12503002DE9F743DDF828C08D
:101BB000B0B9534B5B88002B00F09580514B5248D5
:101BC000524AC01AC0080E24514B009400045149D7
:101BD00040F00100FEF7C0FF204603B0BDE8F083EF
:101BE0006AB9474B5B88002B7DD0464B46484A4A32
:101BF000C01AC0080E2400040094454BE7E7D0F853
:101C000000E0BEF1000F0DD13D4B5B88002B6CD086
:101C10003C4B3D48414AC01AC008082400040094C7
:101C20003B4BD4E76BB9364B5B88002B5FD0354B11
:101C300035483B4AC01AC008092400040094344BBC
:101C4000C5E74768D7F80490B3FBF9F709FB1737E6
:101C50006FB12B4B5B88002B49D02A4B2A48314A65
:101C6000C01AC008092400040094294BAFE78F076D
:101C70000DD0234B5B88002B3FD0224B22482A4AB1
:101C8000C01AC008102400040094214B9FE712F0F2
:101C9000030F0DD01A4B5B88002B2ED0194B1A481E
:101CA000224AC01AC008102400040094184B8EE782
:101CB000C768B9421DD34C1E05691C44AC4218D8F4
:101CC000CDF828C0DEF80C40A44603B0BDE8F043D0
:101CD00060470C4B0C48164AC01AC0081024000478
:101CE00000940B4B73E70E2476E7082474E709246D
:101CF00072E7034B5B88002BEBD110246CE700BF2D
:101D0000240300201043030058430300652503000B
:101D1000CA2403006A250300E7250300DB2503002E
:101D20009A250300ED250300172603002F26030044
:101D300052260300F7B5A0B9384B5B88002B60D062
:101D4000374B3848384AC01AC0080E24374B009425
:101D50000004374940F00100FEF7FEFE204603B0C4
:101D6000F0BDD0F800E0BEF1000F0DD12B4B5B8829
:101D7000002B48D02A4B2B482E4AC01AC0080824F2
:101D800000040094294BE4E76AB9244B5B88002BDC
:101D90003BD0234B2348284AC01AC008092400041A
:101DA0000094224BD5E74768D7F800C00CF1FF3705
:101DB0000F420CD0194B5B886BB3194B19481F4A63
:101DC000C01AC008102400040094184BC1E7C7686B
:101DD000B9421CD34C1E05690CFB0244AC4216D818
:101DE000DEF81040A44603B0BDE8F04060470C4B5D
:101DF0000C48134AC01AC0081024000400940B4B6E
:101E0000A7E70E24AAE70824A8E70924A6E7034BBE
:101E10005B88002BEBD11024A0E700BF2403002037
:101E2000104303005843030065250300DD2403002D
:101E30006A250300DB2503009A250300F024030034
:101E400016250300014B43600020704788260300DD
:101E50000846704700207047024B1868003018BFD2
:101E6000012070478C0A002008B50248FFF74DFC9E
:101E7000002008BD8C0A002008B510461A462EF036
:101E800040FC002008BD00002DE9F041804686B0EE
:101E900014480E4615461F46FFF72EFC0446F0B9BF
:101EA000A54214D10F48FFF730FCD8F808300024C1
:101EB0009BB1022268468DF800200194029603949B
:101EC000049505979847204606B0BDE8F08106EBDB
:101ED000043000F06BFB0134E2E71846F4E7112010
:101EE000F2E700BF8C0A00202DE9F041804686B061
:101EF00012480F4616461D46FFF7FEFB0446D8B9AA
:101F0000AA083146384600F069FB0C48FFF7FDFB94
:101F1000D8F8083073B101228DF800200C9A019492
:101F2000684602970396049505929847204606B0A6
:101F3000BDE8F0811846FAE71120F8E78C0A002086
:101F40002DE9F047B0F806804479D2F800909DF86A
:101F5000207008FB04F4043C03EB090E744538BF01
:101F6000A4EB03090E46191DC2F80090B1FBF8F569
:101F7000044608FB15114DB9A8EB010ACA4528BF54
:101F8000CA46B9F1000F04D1BDE8F0872468013DCD
:101F9000F1E704317019631852466FB11946A9EB85
:101FA0000A092EF0AEFBC84555442468C2464FF0DE
:101FB000000128BFCA46E4E701461846EFE7FFF7ED
:101FC000A7BBF8B546790446721E002393422468E5
:101FD00004D301460025B54202D3F8BD0133F5E72D
:101FE0000F682046FFF7CDFB01353946F3E72DE9B1
:101FF000F843CD1C878A8046FFF7A1FB043F3D4490
:102000000446B5FBF7F5002650B10123EDB2067189
:102010004371C780013DC0F800808146AE4202D3C3
:102020002046BDE8F8834046FFF789FB074648B1E4
:102030006379013363710136C9F80000C0F800808C
:102040008146EBE72046FFF7BCFF3846BDE8F88342
:1020500001210430FFF736BB10B5012104460430DE
:10206000FFF73DFB10F0FF0F04D12046BDE8104004
:10207000FFF7A7BF10BD1FB504AC44F8042D002224
:1020800000922246FFF75CFF04B010BD1FB504AC00
:1020900044F8042D012200922246FFF751FF04B0BC
:1020A00010BD026813685268934291BFD01A8068CD
:1020B0000130801888BFC01A70472DE9F8430368C3
:1020C0001D685C68A54284BF836801331746884653
:1020D00094BF641B5C1BC2684168BC42064602FB9D
:1020E00005110CD37A4340462EF00BFBB4683368DD
:1020F0003D44A54288BF00251D60BDE8F88302FB72
:1021000004F94A4640462EF0FCFAF26871683C1B1E
:10211000624308EB09002EF0F4FA33681C60BDE856
:10212000F883036881681A685B688B4234BF0133A7
:102130000023D31A584258417047F8B5044600208E
:102140000D46FFF77BFA2046FFF7EBFF10B1237C2B
:10215000002B3DD12168A6684B684A68B24234BF63
:10216000013200224A6038B12168A0680A688242C0
:1021700034BF013200220A60E2686068511E0729FC
:1021800020D8DFE801F004101F141F1F1F182A7841
:10219000C2542046FFF785FF23689A68904200D911
:1021A0009860002415E02A8820F81320F1E72A68B7
:1021B00040F82320EDE7D5E9006700EBC300C0E954
:1021C0000067E6E7294602FB03002EF09AFAE0E7F3
:1021D00004240020FFF734FA2046F8BD70B5054608
:1021E0000E46144682B10020FFF728FA2846FFF772
:1021F00058FF84420AD8224631462846FFF75DFF41
:1022000000240020FFF71CFA204670BD0524F8E7E3
:1022100010B504460020FFF711FA2046FFF741FFF2
:1022200004460020FFF70CFA204610BD8268002308
:10223000936082681361826853618268D3608268A8
:10224000536082681360704738B5084C04F1080386
:102250000546002818BF1C4623682BB11A68226067
:102260005B6828469847F7E738BD00BF980A00200A
:1022700020B9054B01225A70FFF7E6BF012802D1B1
:10228000014A9070F8E77047900A002038B5094C71
:1022900023786BB908486360A3602361E36000F0B2
:1022A000C7F9054600F0D2F901232370284638BD4E
:1022B0008525FBE7900A00207122000038B5134CF9
:1022C000A378054603F0FF0073B115B16B680120D8
:1022D00098470020FFF7B2F9E3680133E36000207C
:1022E000BDE83840FFF7ACB9FFF7A8F925B122697E
:1022F00013463BB92A602561E368002BECD100F05E
:10230000B9F9E9E79D42F7D01B68F2E7900A00208F
:1023100038B5134C6378054603F0FF0073B115B16F
:102320006B68002098470020FFF788F96368013345
:1023300063600020BDE83840FFF782B9FFF77EF9FF
:1023400025B1A26813463BB92A60A5606368002BDB
:10235000ECD100F09CF9E9E79D42F7D01B68F2E769
:10236000900A002038B5084C0020FFF767F9636831
:10237000013B6360656815B900F096F9657000204F
:10238000BDE83840FFF75CB9900A002007B502A904
:1023900001F8010D0548FFF7D0FE0448FFF7C1FE24
:1023A00008B100F02FFA03B05DF804FBF842030017
:1023B00038B50C4D2B7893B90B4B0C49002808BF4E
:1023C00018460388284620F8013F00F0D9F9044652
:1023D00018B900F005FA01232B70204638BD85247A
:1023E000FBE700BFF40A0020BA2603008D2300009B
:1023F00010B504460248FFF70BFF207010BD00BF68
:10240000F842030010B50A4601460448FFF7E6FE0D
:10241000044600F0E5F9204610BD00BFF842030075
:102420001FB503788DF8003043680193037A8DF867
:102430000830C3680393054A054B684653F82130BA
:1024400052F82110984705B05DF804FBF80A002007
:10245000000B00201FB503788DF80030436801930E
:1024600083688DF80830C3680393054A054B6846B6
:1024700053F8213052F82110984705B05DF804FB5D
:10248000F80A0020000B0020F0B5194B0778DFF8A0
:1024900070C043F82720174B96460A6943F8272057
:1024A0004B7F0CF807300C4606460FCC89B06D46C2
:1024B0000FC594E80F0085E80F00337804971CF8E7
:1024C000033053B1BEF1000F0B4A694608BF00222A
:1024D000301D00F0F9FD09B0F0BDBEF1000F074A54
:1024E000694608BF002206F10C0000F0B9FBF2E7D4
:1024F000000B0020F80A00202124000055240000D1
:10250000145E0020074A084B1360084A03F11001CB
:102510001160074A03F120011160064A0120C2F848
:1025200004357047400B0020100B00200C0B0020DE
:10253000080B002000E0004010B5114B044618685D
:10254000884202D010222EF0DCF80E4B0022C3F895
:10255000002101221A604FF08070D3F8002162B18F
:102560000022C3F80021084B1968A14203D01022B1
:1025700020462EF0C6F8012001E00138EDD110BD53
:102580000C0B002000E00040080B0020024B01462D
:10259000102218682EF0B5B8400B0020024AD2F87D
:1025A0000034002BFBD0704700E001400A4908B519
:1025B0000223C1F80435BFF36F8FBFF34F8FC1F80B
:1025C0000805FFF7EBFF0023C1F80435BFF36F8F59
:1025D000BFF34F8F08BD00BF00E0014070B50E4D46
:1025E00016460122C5F80425BFF36F8FBFF34F8F46
:1025F0000024B44207D10023C5F80435BFF36F8F20
:10260000BFF34F8F70BD51F8243040F82430FFF7EE
:10261000C5FF0134EDE700BF00E0014000F180405C
:102620000023036082B003680193019B02B07047EE
:10263000054A13792BB901211060117153711846A5
:1026400070478520704700BF440B0020084B1A6874
:10265000D20706D4C02283F800230122C3F88021C8
:102660001A604FF080430122C3F81825704700BF5D
:1026700000E100E008B54FF48270FFF7CFFF4FF0A4
:1026800080430222C3F8042301229A6008BD08B5E2
:102690004FF48070FFF7C2FF4FF080430122C3F870
:1026A00004231A6008BD0000074B01221A604FF096
:1026B0008042D2F80C3403F00113B3F1011FF8D0BB
:1026C000024B00225A71704704000040440B002066
:1026D00010B5124B1B6873B14FF48070FFF79EFF6B
:1026E0004FF080430122C3F808230D4B587910B9ED
:1026F0005A711B6898470B4B1B6873B14FF482707B
:10270000FFF78CFF4FF080430222C3F80823044BED
:1027100001201B68BDE81040184710BD00010040B3
:10272000440B002004010040014B1B68184700BF08
:102730004C0B002038B50A4B98420D460CD10020B6
:10274000FEF77CFF074B1C7914B901221D601A713A
:102750000020FEF775FF0CB9002038BD112038BDF0
:10276000002000404C0B0020034B984201BF034B5C
:1027700000221A601A717047002000404C0B0020A4
:1027800010B5134C22780ABB124B1960037813F072
:10279000010F114B1EBFD3F8042542F00102C3F80C
:1027A0000425D3F8002222F00102C3F80022437866
:1027B0000A4A5B01DBB282F80D334FF40053C2F8D2
:1027C0008031136001232370002010BD852010BDCF
:1027D000580B0020540B002000D0004000E100E026
:1027E000064B00221A6082B01B680193019B044BC8
:1027F0000122C3F804231A6002B0704700D10040E0
:1028000000D00040024A0123C2F8083353607047E9
:1028100000D0004007B5084B00221A601B680193E6
:10282000019B064BD3F80805054BC0B21B689847BF
:1028300003B05DF804FB00BF00D1004000D00040B1
:10284000540B0020F7B50579364C0C266E43A719BA
:102850003B7A002B63D1A2514A687A601A461F4620
:102860004379D6B2B34202F1010203684FD81A0B82
:1028700056B2CB78002E4FEA4313AFBF06F1604249
:1028800002F00F02284EDBB2A9BF02F56142B35439
:10289000DBB282F8003303681B0B03F01F0643F31F
:1028A000C40323F0604323F0030303F1604303F503
:1028B0006143012202FA06F6C3F880611E600768D0
:1028C0004B78D7F8046503F0030326F0030633437F
:1028D000C7F8043507688B78D7F8086503F0030359
:1028E00026F003063343C7F8083506680B78D6F898
:1028F000100503F00F0320F00F010B43C6F810354D
:102900000C2303FB05440020227203B0F0BDB60087
:1029100006F5A0769F519B590193019BA0E70820E3
:10292000F3E700BF5C0B002014ED00E00368012218
:102930001A600379034A0C2101FB032302221A7255
:10294000704700BF5C0B00200368044901221A6134
:1029500003790C2000FB03131A7270475C0B0020F4
:1029600038B503681B0B5AB20121520903F01F034B
:1029700001FA03F320320C4941F8223003680025A4
:10298000D3F80022C3F8005203684FF0FF32044628
:10299000C3F80823FFF7D8FF2379044A0C2101FB71
:1029A00003231D7238BD00BF00E100E05C0B002076
:1029B0000379044A0C2101FB0323187A831E584231
:1029C000584170475C0B002073B54FF480348C4045
:1029D00005688BB18B0003F5A0730026EE50EB5811
:1029E0000193019B0368C3F80443036801F5A871D0
:1029F00043F8212002B070BDC5F80843F5E7F0B5F3
:102A000007689DF814E0D7F8004240F201158D40A8
:102A100024EA0504C7F800420568D5F800422343BC
:102A2000C5F800327346BDE8F040FFF7CDBF0000A7
:102A30002DE9F341104C114F114E00254FF4803811
:102A4000236804F5C04080B26BB1D7F8043308FAAC
:102A500005F21A4207D00023236023680193019BEB
:102A60007168336898470135062D04F10404E7D1F5
:102A700002B0BDE8F08100BF40A1014000A00140CC
:102A80005C0B00200023435082B043580193019B0C
:102A900002B070470A4610B54FF48E71FFF7F2FF8F
:102AA000136A9168C95C136A01331362C0F81C157C
:102AB00010BD10B58B690A464FF4847123B9FFF736
:102AC000E1FFD0F8183510BDFFF7DCFF536AD1687D
:102AD000D0F81805C854536A0133536210BD000082
:102AE0001FB501238DF80030044B02900191684618
:102AF00093E80600904705B05DF804FB680B0020E2
:102B000030B54D4AD2F8043313F4007F85B0154632
:102B10004FD0D2F82431002B4BD04FF49271104695
:102B2000FFF7B0FF4FF40173C2F80833434B93F83B
:102B3000291009B9012151603F4902228DF8002076
:102B4000D1F88024C1F8802403929A690292DA684D
:102B5000019200229A61DA61684693E80600904784
:102B60003548D0F81C315BB134490A6A4B699A4246
:102B70000A464CD291F82830002B48D1FFF78AFF43
:102B80002D4AD2F8443193B14FF4A2711046FFF7A9
:102B900079FF2A4B93F8291009B1012111609A6934
:102BA0002AB100229A61586AD968FFF799FF05B0E7
:102BB00030BDD5F804335B07D2D5D5F80831002BEA
:102BC000CED01E4C1C482146FFF773FF636AA269F2
:102BD0009A422346C4D1E26952B12369E168E360B5
:102BE0000023606AA261E3616362FFF779FFB7E7E0
:102BF00094F829200AB901226A600F4A4FF4017142
:102C0000C2F8081300229A61586AD968EDE74FF4B8
:102C10008E710948FFF736FF51690029B0D00023B3
:102C2000029191688DF8003001915361684692E8F5
:102C30000A009847A4E700BF00200040680B00206E
:102C40001F2886BF00F01F00044B4FF0A04300F583
:102C5000E070022243F82020704700BF00030050BC
:102C60002DE9F843704B067991462C2202FB06327F
:102C7000054692F82A200C469846002A40F0D0805B
:102C80006A490068FFF756FD0746002840F0CA80F1
:102C900023685A1C19D01F2B4FF001028ABF6449C8
:102CA0004FF0A04103F01F0302FA03F3C1F8083507
:102CB00023681F2B86BF03F01F035D4A4FF0A0421D
:102CC00003F5E073032142F823106368581C0BD00E
:102CD0001F2B86BF03F01F03554A4FF0A04203F598
:102CE000E073002142F823102B68A269C3F8242561
:102CF000217D637D2A680B43C2F86C3594E8060099
:102D00002B68C3F81425C3F80C15237D012B32D191
:102D1000A368591C0BD01F2B86BF03F01F03444A26
:102D20004FF0A04203F5E073002142F82310E3685E
:102D30005A1C19D01F2B4FF001028ABF3C494FF09B
:102D4000A04103F01F0302FA03F3C1F80835E3685A
:102D50001F2B86BF03F01F03354A4FF0A04203F537
:102D6000E073032142F823102B68E268A168C3F8DE
:102D70000825C3F810152C23734308EB0302C2F88F
:102D80000490226948F80320B9F1000F35D04FF4C0
:102D90008E712868227FFFF775FE4FF4A2712868B4
:102DA000FFF770FE2B682349C3F804132868000B53
:102DB00041B200294FEA4213B7BF00F00F0001F102
:102DC00060421D4ADBB2A9BF02F561421354DBB277
:102DD00082F800332B681B0B03F01F0143F3C4037D
:102DE00023F0604323F0030303F1604303F56143E1
:102DF00001228A40C3F880211A602B680422C3F89C
:102E000000252C2303FB068300229A61DA6183F8F4
:102E100029205A61012283F82A203846BDE8F88328
:102E20000827FAE71127F8E7680B0020012B0000BC
:102E3000000300508000020014ED00E02DE9F04195
:102E400003680479274D0022C3F800252C2303FBD7
:102E5000045301465B6883B10368234AC3F808231F
:102E600003681B0B5AB20120520903F01F0300FA3A
:102E700003F320321D4840F822300B684FF0FF3238
:102E8000D3F80C05D3F81485D3F80865D3F810757A
:102E9000C3F81425C3F80C250B689042C3F8082525
:102EA000C3F8102501D0FFF7CBFEB8F1FF3F02D0E9
:102EB0004046FFF7C5FE7A1C02D03846FFF7C0FE39
:102EC000731C02D03046FFF7BBFE0868FFF74CFCCE
:102ED0002C2303FB0454002384F82A306360BDE8EC
:102EE000F08100BF680B00208402020000E100E0D6
:102EF0002DE9F843234B07794FF02C0909FB0734E0
:102F0000064665699846002D35D16261A16025624B
:102F100084F828504FF48E710068FFF7B3FD3368D2
:102F200001229A6021463068FFF7B4FD6368A1462C
:102F300023BB3568226A63699A4211D33368D3F898
:102F40001C21002AFBD00122DA6000202C2303FB85
:102F5000078700237B61BDE8F88394F8283043B9E4
:102F6000D5F81C31002BF8D049462846FFF792FDD2
:102F7000E0E70F20EAE71120BDE8F8832846BDE826
:102F8000F88300BF680B00200023435082B04358F1
:102F90000193019B02B070471FB501238DF80030EB
:102FA000054B8DF808000191684693E806009047AC
:102FB00005B05DF804FB00BF940B00207FB5384AD4
:102FC000D2F82461002E49D010464FF49271FFF7D9
:102FD000DBFF02238DF80030D2F88034C2F8803451
:102FE0000393D2F83C358DF808302E4BDA68019205
:102FF00000229A61DA61684693E806009047284A01
:10300000D2F8443173B14FF4A2711046FFF7BCFF00
:10301000244B996931B100219961D2F83C05D968F6
:10302000FFF7BAFF1E4AD2F82031ABB14FF49071CE
:103030001046FFF7A9FF1B4B596969B1D2F84C152F
:103040008DF80810002299688DF8002001915A61CE
:10305000684693E80600904704B070BDD2F810317E
:10306000002BCCD04FF488711046FFF78DFF0D4B2D
:10307000D2F83C0599698842C1D1DC696CB1D2F8BB
:103080000052D96825F02005C2F800521A699C61E7
:10309000DA60DE61FFF780FFB1E79C61D968F9E78C
:1030A00000200040940B00201F2886BF00F01F0066
:1030B000044B4FF0A04300F5E070022243F82020BB
:1030C000704700BF000300502DE9F843744B0679A8
:1030D0009146242202FB0632054692F820200C4637
:1030E0009846002A40F0D8806E490068FFF722FB1E
:1030F0000746002840F0D28023685A1C19D01F2BA5
:103100004FF001028ABF68494FF0A04103F01F034E
:1031100002FA03F3C1F8083523681F2B86BF03F0BA
:103120001F03614A4FF0A04203F5E073032142F808
:1031300023106368581C0BD01F2B86BF03F01F039E
:10314000594A4FF0A04203F5E073002142F82310E2
:103150002B68A269C3F82425217D637D2A680B436F
:10316000C2F86C352B6822686168C3F80C25C3F877
:103170001415237D012B32D1A368591C0BD01F2BB2
:1031800086BF03F01F03484A4FF0A04203F5E073E7
:10319000002142F82310E3685A1C19D01F2B4FF06E
:1031A00001028ABF40494FF0A04103F01F0302FA19
:1031B00003F3C1F80835E3681F2B86BF03F01F0334
:1031C000394A4FF0A04203F5E073032142F823107F
:1031D0002B68E268A168C3F80825C3F810152423FA
:1031E000734308EB0302C2F80490226948F80320F5
:1031F000B9F1000F3FD04FF488712868227FFFF7A4
:10320000C3FE4FF490712868FFF7BEFE4FF4927131
:103210002868FFF7B9FE4FF4A2712868FFF7B4FEE3
:103220002B682249C3F804132868000B41B2002917
:103230004FEA4213B7BF00F00F0001F160421C4A91
:10324000DBB2A9BF02F561421354DBB282F800334E
:103250002B681B0B03F01F0143F3C40323F06043EF
:1032600023F0030303F1604303F5614301228A4025
:10327000C3F880211A602B680822C3F80025242394
:1032800003FB068300229A61DA615A61012283F806
:1032900020203846BDE8F8830827FAE71127F8E729
:1032A000940B0020BD2F000000030050100302000B
:1032B00014ED00E02DE9F04103680479274D002268
:1032C000C3F80025242303FB045301465B6883B144
:1032D0000368234AC3F8082303681B0B5AB2012072
:1032E000520903F01F0300FA03F320321D4840F88F
:1032F00022300B684FF0FF32D3F80C05D3F8148559
:10330000D3F80865D3F81075C3F80C25C3F8142555
:103310000B689042C3F80825C3F8102501D0FFF7C9
:10332000C3FEB8F1FF3F02D04046FFF7BDFE7A1C56
:1033300002D03846FFF7B8FE731C02D03046FFF7C4
:10334000B3FE0868FFF710FA242303FB045400239C
:1033500084F820306360BDE8F08100BF940B00204A
:103360001003020000E100E001F06043B3F1005FF0
:103370002DE9F041064635D11F4B0779242505FB81
:10338000073598466C69002C2FD16A61A9600068E6
:103390004FF49071FFF7F8FD4FF4AC713068FFF710
:1033A000F3FD33686A69A968C3F84415C3F8482572
:1033B000336801229A606B68D3B93268D2F8201161
:1033C000D2F8583149B9002BF8D00F20242303FB41
:1033D000078700237B61BDE8F081002B14BF0F201D
:1033E0000020F3E71020BDE8F0811120BDE8F08156
:1033F0002046BDE8F08100BF940B0020022000F0C1
:10340000FFBC000008B5094B5B88022B09D9084BAB
:1034100008480949C01AC008000440F00300FDF73D
:1034200083FB0220BDE80840FDF78CBD1803002097
:103430001043030040430300F1260300F7B50021C9
:10344000044611F04DF94C2205460021204608F0B3
:1034500071FF0A2DB0F9042000F0AC8013D86B1F67
:10346000012B23D9874B5B88022B62D9864B874877
:103470008749C01AC0080004134640F003002A46DA
:10348000FDF760FB55E0142DECD1002A51D07D4BA7
:103490005B88012B4DD97C4B7C487E49C01AC00803
:1034A000000440F00200FDF73FFB42E0754D6B88E1
:1034B000002A4BD1022B09D9734B74487649C01AA4
:1034C000C008000440F00300FDF72EFB0220FDF7CA
:1034D00025FD022000F094FC01282AD06B885BB106
:1034E000694B6A486D4A6E49C01AC00800045923E6
:1034F00040F00100FDF726FB6B8893B10120FDF73A
:1035000099FD624D604B6749ED1AED0859232D0472
:1035100001930122614B0093034645EA0200FDF747
:1035200027FBFDF775F90028FBD144F62160FEF773
:1035300065F8002C00F0A48085220021204608F0C8
:10354000F9FE03B0BDE8F04008F0BEBC4BB14E4BF5
:103550004E485549C01AC008000440F00100FDF76C
:10356000E7FA0220FDF7EEFC412200214F480CF063
:1035700023FD46420746002EDBD06B8893B13046D0
:10358000FDF758FD414D404B4649ED1AED086023CB
:103590002D040193414B00933246034645F0010050
:1035A000FDF7E6FAFDF734F90028FBD1C7F59C409A
:1035B0002030BCE7334D6B887ABB022B09D9324BE4
:1035C00032483B49C01AC008000440F00300FDF730
:1035D000ABFA42F6B452002136480CF0EDFC4642FC
:1035E0000746002EA5D06B8893B13046FDF722FD2B
:1035F000264D254B2B49ED1AED086A232D04019326
:10360000264B00933246034645F00100FDF7B0FA21
:10361000FDF7FEF80028FBD1C8E7022B09D91A4BA9
:103620001A482549C01AC008000440F00300FDF7FD
:103630007FFA0220FDF786FC412200211B480CF096
:10364000BBFC46420746002E3FF473AF6B8893B134
:103650003046FDF7EFFC0D4D0B4B1249ED1AED080E
:1036600071232D0401930D4B00933246034645F020
:103670000100FDF77DFAFDF7CBF80028FBD195E7B7
:1036800003B0F0BD180300201043030040430300C3
:103690006E280300422803000B270300362703008F
:1036A000462703007127030088270300FD3300002D
:1036B000D327030005340000EC2703007FB5002169
:1036C0000846FCF7F1FF08B1FDF798FFFCF70AFF89
:1036D0000120FDF75BFC224B00241C70214B1C8059
:1036E000214B1C7008F0E2FF08F0E2FF02A8FDF792
:1036F0001BFD02A80DF0F4F84FF480300DF01CF91A
:103700000A200DF01DF920460DF0F2F80DF01EF91B
:1037100045420646F5B1154B5B8893B12846FDF747
:1037200089FC134C134B1449E41AE408A92324041C
:103730000193124B00932A46034644F00100FDF723
:1037400017FAFDF765F80028FBD1C6F59C4020303C
:10375000FDF754FF0DF0FCF8FDF75AF8FAE700BF4B
:10376000480000204A0000204C00002018030020E0
:103770004043030010430300712703003627030072
:10378000054B1B68082B01BF044B1868B0FA80F08A
:10379000400918BF002070473001001034010010AC
:1037A00008B54FF080430022C3F80C21C3F8102164
:1037B000C3F838254FF0805203F54043D2F8041483
:1037C000C3F82015D2F80814C3F82415D2F80C1445
:1037D000C3F82815D2F81014C3F82C15D2F8141415
:1037E000C3F83015D2F81814C3F83415D2F81C14E5
:1037F000C3F84015D2F82014C3F84415D2F82414A5
:10380000C3F84815D2F82814C3F84C15D2F82C1474
:10381000C3F85015D2F83014C3F85415D2F8341444
:10382000C3F86015D2F83814C3F86415D2F83C1404
:10383000C3F86815D2F84014C3F86C15D2F84424C4
:10384000C3F87025FFF79CFF10B1384B384A1A6057
:10385000FFF796FF18B1374BFB22C3F81825FFF787
:103860008FFF48B13449354B0A681B6822F00F02BC
:1038700003F00F0313430B60FFF782FF18B1304BC7
:103880004FF400721A604FF08043D3F80024D2073F
:1038900044BF6FF00102C3F800242A4AD2F88830EE
:1038A00043F47003C2F88830BFF34F8FBFF36F8FBC
:1038B0004FF01023D3F80022002A03DBD3F80432A0
:1038C000002B2FDA204B0122C3F80425D3F8002463
:1038D000002AFBD04FF010221221C2F80012D3F8B8
:1038E0000024002AFBD04FF010231222C3F8042238
:1038F000154B1A46D3F800140029FBD00021C3F859
:103900000415D2F80034002BFBD0BFF34F8F0D49C4
:103910000E4BCA6802F4E0621343CB60BFF34F8FD3
:1039200000BFFDE70A4B0B4A1A6008BD8C560040E9
:103930004881030000F00040E40E004058020010EF
:103940004096024000ED00E000E001400400FA056E
:10395000440000200090D00313B5224A92F8CD43D2
:10396000014604F00E000228134614D1D2F8B40325
:1039700090B123466FF3430382F8CD33012382F8DD
:10398000AF33C2F8BC030023174800931A460CF06B
:1039900099FA02B010BD88B9D3F8B82372B10122E8
:1039A00083F8AF2393F8CD23032060F3430283F819
:1039B000CD23D3F8B823C3F8BC23E4E7052283F86A
:1039C000AF2393F8CD23012060F3430283F8CD2386
:1039D00093F8C523824083F8C523002300931A4639
:1039E0000248D4E7185E0020253A0100393A000069
:1039F00013B540F217224FF4D571044608F09AFC33
:103A0000052108F0BDFB0A4BD3F8BC23026093F8F4
:103A1000C423027193F8A92883F8AC2800230093EB
:103A20001A46214603480CF04DFA02B010BD00BF03
:103A3000185E0020B14F00002DE9F341774E96F853
:103A4000C53305463446DBB996F8AE23402A13D079
:103A500096F8CD23C6F8BC33012161F3430286F802
:103A6000AF1301466E4886F8CD2300931A460CF03A
:103A700029FA02B0BDE8F08186F8C523009388E0FA
:103A8000402B05D10023014600931A466548EEE716
:103A9000102B1ED1202386F8C53396F8AF33012BA7
:103AA00008D196F8D333002262F3000386F8AF23DF
:103AB00086F8D33394F8AF2394F8CF1300235242FF
:103AC000284610F0F5FA002300931A462946564876
:103AD000CDE796F8AE231340DA0705D5002301465B
:103AE00000931A465148C2E79F0767D515F08AFC34
:103AF0000746002856D196F8AF83B8F1030F0DD1D1
:103B000096F8B033D80727D50A233946284686F8D1
:103B1000D03102B0BDE8F04103F074BBB8F10A0F38
:103B20001AD11023D9224FF4D571284686F8C5330F
:103B300008F000FC414608F023FB08223946044601
:103B40002CF004FE28462772677286F8D08102B0F6
:103B5000BDE8F04105F0D0BC94F8B01311F00101BC
:103B60000AD094F8C53313F0020387D000230093E2
:103B70001A4629462E487AE794F8D32312F0020316
:103B80000BD0102384F8C533032384F8AF3300919E
:103B90000B461A462946274869E700931A462946E4
:103BA000254864E74FF485724FF4D571284608F034
:103BB000C1FB02B0BDE8F04108F086B959071AD53B
:103BC00096F8B033DA0716D496F8D830012B09D01E
:103BD00094F82533DB070ED5002300931A462946B7
:103BE000164844E70822164906F54D702CF07AFD78
:103BF0000028EDD1F0E794F8C5331F2B04D85B0003
:103C000084F8C533002339E7202384F8C533002D19
:103C10003FF42FAF40F22D12C6E700BF185E002020
:103C2000DD3F000051460000B5580100614700002B
:103C30003D3D0000393A0000453C00005939000084
:103C4000AE2E030037B53A4C94F8CD3303F00E0195
:103C50000229054638D1D4F8B423AAB394F8252311
:103C600012F0010230D162F3430384F8CD33012313
:103C700084F8AF3311F038FF10B394F81139012BE9
:103C80001ED1D4F8BC23DAB994F8CE2103FA02F29B
:103C9000C4F8BC2394F8CD2363F3430284F8CD2306
:103CA000D4F8BC331BB9D4F8B433C4F8BC33002304
:103CB000204800931A4629460CF004F903B030BDA1
:103CC0000023C4F8BC33EBE794F82533DB0719D4A1
:103CD00079B9D4F8B833ABB194F8CD33032262F399
:103CE000430384F8CD33012384F8AF33D4F8B833D9
:103CF000DBE7022906D1D4F8B8331BB1D4F8B433CA
:103D0000002BE9D0032384F8AF3394F8CD330A486D
:103D1000012262F3430384F8CD3394F8C533934012
:103D200084F8C533002300931A462946C4E700BF30
:103D3000185E0020F1390000393A000038B54FF420
:103D400022724FF4D571054608F0F4FA042108F008
:103D500017FA0021044604222CF0F8FC6FF003034C
:103D600023704FF0FF336370B423A3700123E3701B
:103D700028460249BDE8384013F00ABF813D0000E3
:103D8000F7B540F29A224FF4D571044608F0D2FA02
:103D9000B0F90460184D5EBB95F8D830012B18D8E7
:103DA0004FF429724FF4D571204608F0C3FA04216C
:103DB00008F0E6F90422074631462CF0C7FCB4238C
:103DC000BB70B5F8C0313B8020460C4913F0E0FED3
:103DD000344695F8C5335B0085F8C53334B100230C
:103DE00000931A46214605480CF06CF803B0F0BD6C
:103DF000092385F8AF33ECE7185E0020393A00005C
:103E000007B5144A92F8C53313F0DF0320D182F8C6
:103E1000C53392F8B03382F8AE0313F0010309D131
:103E200000931A4619460C480CF04CF8012003B0D8
:103E30005DF804FB022807D1012382F8AF330A237F
:103E400082F8C50382F8CF33044808F038F8EDE76C
:103E50000020ECE7185E002015460100393A00000A
:103E600008B50B4B93F82523520706D41AF0FCFD36
:103E7000437843F00103437008BD93F8193E9B0754
:103E8000F4D41AF0F1FD437823F00103F3E700BF07
:103E9000185E002070B54C4C86B0FFF7E1FF94F837
:103EA000D33302216FF3820304F54D7084F8D333CA
:103EB00015F092FE002867D094F8D33343F0040342
:103EC00084F8D33394F8D830032B07D194F82533F2
:103ED000DB074CBF0023012384F8D83008223B497C
:103EE0003B482CF0FFFB002864D094F8E455C5F360
:103EF000800594F86033142B5ED8EDB26DB10822C2
:103F0000344935482CF0EEFB94F8CD33B0FA80F00C
:103F1000400960F3000384F8CD3394F8D33365F39C
:103F2000410384F8D3332DB11AF09EFD437823F07A
:103F30000103437094F8CD332449254894F8D860A0
:103F400043F08003082284F8CD332CF0CBFB94F8A7
:103F5000D3330295C3F38003059394F8E4350196B7
:103F60000030C3F3800318BF01200493142303908F
:103F700000934FF4D5724FF4CF7301214FF0FF300F
:103F80000CF0ACFB06B070BD082204F5E27104F53C
:103F90004D702CF0A7FB00288ED094F8CD33DA07B3
:103FA0008AD408220B4904F54D702CF09BFB0028A5
:103FB00082D087E705469CE7002D9ED094F8D35326
:103FC000C5F3800599E700BF185E0020B62E0300F8
:103FD000E85E0020AE2E03004C610020F7B50546D8
:103FE000FFF758FF5D4B93F8D36316F0020F1C46A2
:103FF00053D093F8B023D70714D593F8AE23042AEF
:1040000010D10B2283F8CF23102283F8C523002D73
:1040100000F08E80002300931A46294650480BF08A
:1040200051FF85E094F8D870A7B994F8B0334D48A3
:1040300043F0010384F8B0333A4600973B462946E3
:104040000BF040FF0025062384F8CF33012384F8CA
:10405000C533DCE7012F0ED116F001060BD194F821
:10406000B033414843F0010384F8B0333246009640
:1040700033462946E4E794F8AE33012BE3D04FF4FE
:10408000E8724FF4D571284608F054F90123D4F8AA
:104090002823364910F01AFCD4E70822344903F1EA
:1040A000D0002CF01FFB10BB94F8E43558071ED449
:1040B00094F8D333590705D494F8AE33042B39D18F
:1040C0000B23C1E7082204F5E27104F54D702CF0D2
:1040D00009FB0028F0D094F8CD33DA07ECD408229D
:1040E000244904F54D702CF0FDFA0028E4D0082294
:1040F0001F491E482CF0F6FAF0B194F86033142BE7
:1041000003D994F8D3335B0716D54FF4FE724FF4FE
:10411000D571284608F00EF90023D4F82823134956
:1041200010F0D4FB062384F8CF33012384F8C53381
:1041300003B0F0BD052387E70024009440F2062376
:104140004FF4D57201214FF0FF300CF0C7FA214631
:10415000284603B0BDE8F04003F054B8185E0020D4
:10416000393A0000454D000015390100E85E002095
:10417000B62E0300AE2E030038B502211B481C4C9E
:1041800015F02AFDB0B1012508221A491A482CF071
:10419000A9FA18B194F8E405C0F3800094F86033EC
:1041A000142B1ED894F8D333C0B260F3410384F8C3
:1041B000D33338BD04F5E271082201F5B8702CF054
:1041C00091FA0028DFD094F8CD33DB07DBD4082246
:1041D0000A4904F54D702CF085FAB0FA80F56D09A6
:1041E000D2E7002818BF2846DCE700BF4C6100205A
:1041F000185E0020B62E0300E85E0020AE2E0300FD
:1042000007B5124B93F8AF230A2A05D1104803B023
:104210005DF804EB07F053BE032A0CD1012283F8AA
:10422000AF23002300931A4619460A480BF04AFEB2
:1042300003B05DF804FB202283F8C523032283F832
:10424000AF2303B05DF804EB10F074BA185E0020E1
:10425000393A00001546010073B5C22240F6090143
:10426000274C054608F066F81AF0FEFB94F8CE31AC
:1042700080F8543094F8D830032B08BF01234FF056
:10428000D80240F60901284608BF84F8D83008F063
:1042900051F894F8D830022B06460ED194F8CE216E
:1042A00094F8E435012101FA02F21649C3F38003C0
:1042B00002B0BDE8704010F009BB94F8B0330E2195
:1042C00043F0010384F8B03307F05AFF0822054693
:1042D0000C492CF016FAB4F8C2312B8194F8CE3187
:1042E000AB72B4F8C031AB81304607F06DFD0023EE
:1042F000014600931A4604480BF0E4FD02B070BD7D
:10430000185E0020E85E0020311C020037B50B4C1F
:104310004FF6FF730546A4F8C0310BF0CFFB084BF6
:1043200000930130A4F8C201022304F5E172502188
:10433000284605F001FC03B030BD00BF185E002028
:1043400079EA0100F7B5704C94F8CD33C3F342031A
:104350000546052B00F2C980DFE803F04003C76083
:1043600095A294F898315B0706D0684815F038FAA2
:1043700010B1664815F084F8052384F8D13394F819
:10438000CD33002666F3430384F8CD33012784F848
:10439000AF7384F8D2631AF06BFB4FF4907231461E
:1043A0002CF0D4F91AF064FB07601AF061FB0223C9
:1043B000036194F8CE33564A13F0010F09BFD4F8C5
:1043C0002833C4F8BC231340C4F8BC33002351483D
:1043D00000931A4629460BF075FD42E094F9CD335F
:1043E000002B1BDA94F8CE334B4A13F0010F0ABFAF
:1043F000D4F82833C4F8BC23134094F8CD2308BF65
:10440000C4F8BC330321012384F8D13361F34302A0
:10441000002384F8D23384F8CD23D8E71AF028FBA0
:10442000067D06BB092384F8CF33082384F8AF3315
:1044300094F8C5335B0084F8C5331AF015FB90F887
:104440005530002B48D01AF00FFB90F8553084F807
:10445000CE31324B0093324A01233146284605F0D3
:104460006BFB03B0F0BD94F8CD33042262F3430339
:1044700084F8CD331AF0FCFA002343751A460093F2
:1044800029462848A7E794F8CD33052262F3430371
:1044900084F8CD330023014600931A4622489AE758
:1044A000092340F29D1240F6090184F8CF3307F04A
:1044B00041FFB0F90430A3B1042384F8AF3394F87A
:1044C000C5335B0084F8C53394F8CD33012262F321
:1044D000430384F8CD33002300931A4629460F483E
:1044E00079E784F8AF331023ECE7002440F2B113EE
:1044F000009440F6090201214FF0FF300CF0EEF875
:1045000000942346E9E700BF185E00204F5F0020BB
:1045100000881002594500000070EF05393A00008C
:10452000E65F00209DF201008DED010008B54FF41B
:10453000F17240F6090107F0FDFE05491BF098FCF9
:10454000102200210348BDE808400BF035BD00BF34
:104550000146000059450000F7B528B9234803B0CB
:10456000BDE8F04007F0ABBC214B93F8D12302B378
:10457000013A83F8D123D3F8BC6393F8D213002413
:104580000127CAB21F2A27D807FA01F5354201F1DF
:10459000010114D00CB183F8D22393F8CE119142CB
:1045A0000FD100230146134800931A460BF08AFCF2
:1045B00010E093F8D223013283F8D223DBE7012401
:1045C000DFE783F8CE210B4B00930B4A0123002138
:1045D00005F0B2FA03B0F0BD0CB183F8D22300238A
:1045E000014600931A460548E0E700BF5945000020
:1045F000185E00202D450000E65F0020393A0000DB
:1046000013B540F2E91240F60901044607F092FEA4
:1046100003798BB10022FF210A480BF09DFE0A4B63
:104620000A48032283F8AF23002300931A46214649
:104630000BF048FC02B010BD02B0BDE8104007F01E
:1046400043BC00BF59450000185E0020393A000005
:1046500037B50546394890F8C533402B04462DD16F
:1046600090F8AF33012B18D11AF002FA0369052B29
:104670000CBF0F230E2384F8CF3300231A4694F87F
:10468000CF1328460FF014FD00232D4800931A463F
:1046900029460BF017FC03B030BD032B0ED10123CC
:1046A00080F8AF330822274900F54D702CF029F827
:1046B000002300931A4629462348EAE7FFF7D0FB78
:1046C000402384F8C533012384F8AF3394F8B03322
:1046D000D90705D5002300931A4629461B48D8E779
:1046E00094F898315A071AD094F8D85005F0FD057F
:1046F000012D14D10822134915482CF002F894F822
:10470000253384F8D85043F0020384F8253394F815
:10471000CD3343F0010384F8CD3315F06FF81AF070
:10472000A3F943780B48DB074CBF0B4B0B4BC4F88A
:104730001632002300931A461946AAE7185E002095
:10474000B5580100AE2E0300BD190200393A000031
:104750004C610020154601000D4300005942000045
:1047600013B504461AF080F9437843F01003437000
:104770001AF07AF9437813F0010310D00BF09EF988
:104780000A4A0B4B0130A2F8C2015021009302F5F6
:10479000E1720223204605F0CFF902B010BD00936C
:1047A0001A46214602480BF08DFBF6E7185E002002
:1047B000454300001FB504AA0F2302F8013D044B36
:1047C00000934621012305F0B7F905B05DF804FB1D
:1047D0006148000073B54FF4C67240F6B801064652
:1047E00007F0A8FD072107F0CBFC08220446174973
:1047F00017482BF077FF28B916490822A1F1F400D9
:104800002BF07FFF144D0722002120462BF09EFF46
:10481000B5F8C231238095F8CE31A3700023E37040
:1048200095F82513A2790D4861F3000263F3820223
:10483000A2710F2222716271314600931A460BF069
:1048400041FB042385F8D03102B070BDB62E0300C1
:10485000E85E0020DC5F0020185E0020E17C0200A2
:1048600073B54FF40E7240F6B801064607F062FDCC
:104870001A2107F0DBFB45230446037000210F22B9
:10488000254B41708270C0F803300B302BF05EFF77
:10489000237B224D2249022262F3030362F30713B2
:1048A000237395F83621637B0F2A94BF62F3C60306
:1048B00043F078036373082204F10E002BF021FF0C
:1048C00003224FF0FF3104F116002BF03FFF95F863
:1048D000351195F8343195F8332112480B449A423A
:1048E000D8BF95F8CC21637BDDBF62F3820363738D
:1048F00095F8CC2143F08403D8BF62F3C7136373E8
:1049000095F8D9306376002300931A4631460BF0B0
:10491000D9FA02B070BD00BF29490000185E00201E
:10492000E85E0020BD97020073B5134DD5F8123232
:104930000646ABB140F27F2240F6B80107F0FAFC20
:1049400000248480D5F81202009423462246314682
:104950000BF0B8FAA5F81242A5F8144202B070BDE7
:1049600040F2852240F6B80107F0E4FC02B0BDE851
:10497000704007F0A9BA00BF185E00207FB5344C24
:1049800094F8D031064623B994F8B05315F00105D8
:1049900018D0462240F6B801304607F0CBFCC223BF
:1049A0008380462240F6B801304607F0C3FC07F08A
:1049B0000BFA0023014600931A4626480BF082FAB0
:1049C00004B070BD622240F6B80107F0B3FC0821C4
:1049D00007F0D6FB0822014604F5E9702BF091FEA2
:1049E0006F2240F6B801304607F0A4FC082107F01A
:1049F000C7FBD4F8D2314360D4F8D2315A1E1A42E0
:104A00000CBF01230023037094F8D631437094F84F
:104A1000D6310293D4F8D23101930823009340F6A3
:104A2000B802732301214FF0FF300BF057FE2B46E5
:104A30002A460095314608480BF044FAD4F8D231A2
:104A40005A1E1A420CBF0323022384F8D031B7E761
:104A5000185E0020BD4A0100399A02002DE9F34199
:104A60001721334C064607F08BFBD4F8D2310746AA
:104A700023B98A2140F6B80007F08EFC3FB9902197
:104A800040F6B80002B0BDE8F04107F085BC102246
:104A90004FF0FF3127482BF059FE002213461146F4
:104AA0004FF0FF0E4FF40060D4F8D251054210D001
:104AB00007EB020898F807C0BCF1600F33D94540F6
:104AC000C4F8D25198F80750754501D8D9B2AE460E
:104AD00001320133102B4FEA4000E5D1D4F8D23136
:104AE0002BB90B31012303FA01F1C4F8D2110821CB
:104AF000304607F045FBD4F8D23143600123037000
:104B000094F8D6314370304607F05EF900230093E5
:104B10001A46014608480BF0D5F9032384F8D03132
:104B200002B0BDE8F081E51885F8DAC1D0E700BF32
:104B3000185E0020F25F0020399A02002DE9F04F44
:104B40007A4C7B4EB4F8C25187B00522002107464B
:104B500004F5FD702BF0FAFD1022002104F5F5702C
:104B60002BF0F4FDD6F800C0002204F5FD704FF0E4
:104B7000010804F5F57E624540D10B234FF0FF0A92
:104B8000D4F8D2E16B49D14698464FF0010C0CFAAB
:104B900003F212EA0E0F0BD00A7C4A4508D80878B7
:104BA00001D1504504D85FFA83F88246914622B17C
:104BB00001331B2B01F10101E9D16B1E9BB24FF6B2
:104BC000FD72934202D90AF079FF05460C23009347
:104BD000CDF80CA040F22713CDF80890CDF8048052
:104BE00040F6B80201214FF0FF300BF077FDD4F80A
:104BF000D231002B7FD04FF000094DE002EB0211C3
:104C0000D4F8E03203EB01095B5C03F00303032BF0
:104C100020D199F80E3003F01F034FEAE30903F0A7
:104C2000070319F800A04AFA03FB1BF0010F11D18A
:104C300008FA03F343EA0A0309F80030D4F8E03233
:104C40000B44DB7B03F01F030B3B13F80E10013109
:104C500003F80E1001328EE709EB0913D4F8E012C5
:104C6000CA18CB5C03F00303032B13D1D37B03F0EF
:104C70001F0398450ED1907B0DF1160100F01F0027
:104C800006F00AFABDF81630AB4203D10AF016FF5F
:104C90000546B0E709F1010933689945DCD30126DF
:104CA0004FF6FF7004F0ACF9B8F11A0F2ED86EB3BE
:104CB00094F8D830A4F8C251032B02BF002384F823
:104CC000D83084F8363194F8D830A4F80082012B1B
:104CD00084F8CE8111D00023A4F8C031384607F003
:104CE00073F8154B0093154A0223532104F024FF57
:104CF00007B0BDE8F08F1E46D2E7B4F8C031002BF4
:104D0000ECD10AF0DBFEA4F8C001E7E7C423BB80C6
:104D1000384607F059F80025014600952B462A46EB
:104D200007480BF0CFF884F8D051E1E7185E002077
:104D300034000020F25F0020D5470000D85F00203B
:104D4000BD4A010037B5134C40F2AD1240F6B80130
:104D5000054607F0EFFA94F8CD3313F0010308D0BD
:104D6000002300931A4629460B480BF0ABF803B01A
:104D700030BD84F8363184F8D830A4F8C03107F05B
:104D800023F8054B009304F5E0720223532104F04D
:104D9000D3FEECE7185E0020D547000030B5344C58
:104DA00094F8D830012B85B0054647D14FF4E8720E
:104DB00040F6B80107F0BEFA032107F0E1F9B4F8B4
:104DC000C231ADF8083094F8CE318DF80A3003784E
:104DD0008DF80C309DF80E306FF300038DF80E3017
:104DE00043788DF80D3082789DF80E3062F34103E0
:104DF00094F8DC22C2F3001142F0100261F3820346
:104E000084F8DC2240F6B8014FF4F07228468DF8A1
:104E10000E3007F08FFA072107F0B2F9072202A936
:104E20002BF06FFC002300931A46294611480BF023
:104E300049F8052384F8D03105B030BD40F2E712BF
:104E400040F6B80107F076FAC223838040F2E712F9
:104E500040F6B801284607F06DFA06F0B5FF0023CA
:104E6000014600931A4604480BF02CF8E4E700BF13
:104E7000185E0020E17C02005D4C01001FB5124B62
:104E800093F8D820022A04460BD104AA002302F882
:104E9000013D0E4B00934621012304F04DFE04B06A
:104EA00010BD93F8350193F8342193F8331102447F
:104EB0009142BCBF002283F8CC21054B0093054AE8
:104EC000012341212046E8E7185E0020294900001F
:104ED000B5470000E45F002070B5147CC470847B8B
:104EE00061F304048473147BC17B64F30401C17314
:104EF00099780478C1F3C30161F3071404705C78F6
:104F0000C17B64F34611294CC17394F8D011072971
:104F1000417831D0957B867BED0965F300014170C6
:104F20009978C1F3800161F3451686739978F3B2DD
:104F3000C90961F3861365F3C713837394F8D830F6
:104F4000022B837B20D0C17B01F0600140291BD163
:104F5000C3F3401101EAD31161F3C71383730378DC
:104F600013F0F00F13D15178022910D1928872B941
:104F700062F38303037070BD837B41F0010143F052
:104F8000E00383734170D9E7C3F38011E2E743780C
:104F900013F0010F037803D1827B12F0600F01D070
:104FA0000122E5E743F00C03E4E700BF185E0020B0
:104FB000F0B5EA2285B040F6BC01044607F0BAF924
:104FC000052107F0DDF8014630B9ED2140F6BC00BF
:104FD00007F0E2F905B0F0BD05688DB94FF48172B4
:104FE00040F6BC01204607F0A5F94FF6E97383802F
:104FF00000952B461A46214619480AF063FFE9E757
:10500000184E96F8D051F5B9052202A82BF079FB7D
:105010004FF48B7240F6BC01204607F08BF9082153
:1050200007F0AEF80127029B436007709DF80C3033
:1050300043702A4600952B4621460B480AF042FF52
:1050400086F8D071C6E74FF48F7240F6BC01204657
:1050500007F070F94FF6FC73838000230093C9E7D3
:1050600075440100185E0020399A020030B54FF4F3
:10507000947285B040F6BC01044607F05BF9052147
:1050800007F07EF8014638B940F22B1140F6BC001B
:1050900007F082F905B030BD1E4D95F8D830032BCE
:1050A0001ED0052202A82BF02CFB4FF4997240F67B
:1050B000BC01204607F03EF9082107F061F8029B89
:1050C0004360002303709DF80C204270214600933A
:1050D0001A4611480AF0F6FE062385F8D031D9E7C2
:1050E00040F2391240F6BC01204607F023F9C223F2
:1050F000838040F2391240F6BC01204607F01AF9CD
:1051000006F062FE0023014600931A4603480AF0A7
:10511000D9FEBFE7185E0020399A0200A96201009B
:105120002DE9F04FAA4D95F8D031012B85B081467D
:105130002C4640F0F78095F8AC3813B1013B85F868
:10514000AC3894F8AC683EB340F2D12240F6BC01D2
:10515000484607F0EFF8052107F012F8D4F8283395
:10516000036094F8A433DD0754BF052394F8C433D7
:105170000371B4F854289748002384F8D0314FF4D1
:105180007A73534349464FF47052B3FBF2F205B0C1
:10519000BDE8F04F0AF010BF04F0B0F840F206325C
:1051A00040F6BC01484607F0C5F840F20932B0F9B4
:1051B000045040F6BC01484607F0BCF8622106F0F6
:1051C00035FF40F20A32824640F6BC01484607F0FD
:1051D000B1F8EDB2858002250AEB05030293013D8B
:1051E000EDB24FF0000B7C4B1B689B4515D3002D97
:1051F000F5D1002E14BF0023EA238AF800308AF884
:1052000001602B4600952A46494674480AF05AFE2A
:1052100084F8D05105B0BDE8F08F0BEB0B18D4F833
:10522000E03203EB080713F8083003F00302032A07
:1052300073D1002D49D013F00C036ED10299B34203
:1052400046D36AD106EB460302330AEB0307032277
:105250000021384603932BF079FAD4F8E022039B1F
:1052600042440136927BC2F304020AF80320D4F8C8
:10527000E032BA784344DB7BC3F304037B70D4F899
:10528000E0324344DB7BC3F3411363F30302BA70A0
:10529000D4F8E03243445A78BB7862F30413BB700D
:1052A000D4F8E032BA7843449B7BC3F3401363F3F2
:1052B0004512BA70D4F8E0324344D2B29B7BC3F3B8
:1052C000801363F38612BA7027E002992B46B6E783
:1052D0000A46B87B92F800E000F01F00704501F12B
:1052E00003011DD17B78D80717D5937843F01003BD
:1052F0009370D4F8E03243449B7B990642BF937885
:1053000043F020039370D4F8E03243449B7B5B0668
:1053100003D5937843F0400393700BF1010B62E7E0
:1053200001338CE7062B0AD1002401460094234662
:1053300022462B480AF0C6FD85F8D0416AE7022BC9
:105340000AD140F2553240F6BC0106F0F3FF05B039
:10535000BDE8F04FFFF782BB032B0AD140F2593270
:1053600040F6BC0106F0E6FF05B0BDE8F04FFFF7E0
:10537000E5BB072B04D105B0BDE8F04F00F0CABB78
:10538000082B04D105B0BDE8F04F01F089B853B93E
:1053900040F26E3240F6BC0106F0CCFF05B0BDE82D
:1053A000F04F06F091BD01930423009340F6BC0238
:1053B00040F2723301214FF0FF300BF08FF940F2D1
:1053C000733140F6BC0005B0BDE8F04F06F0E4BF15
:1053D000185E0020B14F0000340000207544010029
:1053E000A962010010B5084C94F86D3904EBC303B1
:1053F0000146082203F66E102BF083F994F86D39FC
:10540000013384F86D3910BD185E0020024B002274
:1054100083F86D29704700BF185E002070B50B4DF2
:105420000646002495F86D399C4201D3002070BDDA
:1054300005EBC401082201F66E1130462BF052F93B
:1054400008B10134EEE74FF0FF3070BD185E002068
:105450002DE9F04F4FF4A17291B040F6BC01064621
:1054600006F068FF014640F6BC0006F086FFC14D1D
:1054700000F14B03009395F8D031012B04462F46E1
:1054800072D0072B40F07C8194F84A200E2A72D902
:1054900094F84B80B8F1000F6DD194F84C2002F0D5
:1054A000F001202967D102F00F02022A63D8072BEE
:1054B00004F14E0900F086800023049397F8D03160
:1054C000072B40F088800DF10F024946608805F0F7
:1054D00009FD10F11B0F40F0878063789DF80F00E5
:1054E000022B40F0058104AAA18803F075FB10F19E
:1054F000160F40F03A81DFF884A24FF0FF09012532
:10550000DAF800008542C0F0F880049A9AB3237C50
:105510004B4530D9D7F8E0520023834240F00D814B
:10552000B8F1010F0BD1907B00F01F0005F0F2FDE8
:1055300028B14FF4047140F6BC0006F02DFF0021A5
:10554000112204982BF002F963780499022B40F0A1
:105550000781A388A1F80530009B9DF80F100498DF
:105560002246FFF7B9FC06E0027C1F2A03D990F916
:105570000E20002A88DB6378022B08A940F05581B1
:10558000A08803F0E5FD78B9089A94F84D301178B9
:10559000C3F3C30363F307111170089AA37B517817
:1055A000DB0963F300015170FF2E08D04FF42B721A
:1055B00040F6BC01304606F0BDFE06F085FC11B099
:1055C000BDE8F08F08226C4948462BF08BF8002884
:1055D0003FF472AFCFE74846FFF720FF451CCAD023
:1055E00000287FF476AF6EE710F11D0F7CD12022EA
:1055F00000210DEB02002BF0A9F8DFF880A10025B7
:10560000DAF800309D424AD36FF01B0A4FF0FF0BCF
:105610000025D7F8E02205EB05110A4406A9907B86
:1056200000F01F0005F0C4FC06A8FFF7F7FE0028F5
:1056300057D11AF11C0F0ED10190294605A805F08B
:1056400035FC40B108AB595D594504D2019A8DF83B
:105650000F508B4692460135202DDAD1BAF1000F5A
:1056600089D1227C5A4586D99DF80F0003F01CFE93
:1056700028B14FF4DE7140F6BC0006F08DFE9DF8B7
:105680000F206088494605F021FD00283FF425AF32
:1056900040F2BF1140F6BC0006F07EFE6BE705EB62
:1056A0000512D7F8E01201EB020B8A5C02F003024C
:1056B000032A14D19BF80E1005A801F01F0105F074
:1056C000FEFB9BF80E309BF8032010A903F01F038C
:1056D0000B4413F8201C914238BF03F8202C0135ED
:1056E0008EE76FF0010AB6E700287FF444AFF4E6D6
:1056F00004AA211D03F09AFAF9E6D7F8E03205EB87
:10570000051B5B4408A9987B00F01F0005F050FCC6
:1057100008A8FFF783FE70B9D7F8E03203EB0B025D
:1057200013F80B3003F00303032B04D1D37899450E
:1057300084BF049299460135E2E603EB03116F182A
:10574000695C01F00301032908D1B97B977B79409B
:10575000C90604BF08F101085FFA88F80133DCE6E6
:105760000731201D05F0E8FCF6E600283FF4F4AE12
:1057700001E700BF185E0020FA5F0020340000201F
:1057800095F8B023D2072FD595F8D820022A2BD030
:105790004288B5F8C2319A427FF4EDAE082205F195
:1057A000D0014E302AF09EFF00283FF4E4AEB5F859
:1057B0007421B5F8C0319A4211D195F8D0310B2B34
:1057C0000BD04022002105F5E9702AF0BFFF0B2322
:1057D000304685F8D03104F0D5FBFF26CBE6618852
:1057E000304604F033FCF8E7032B7FF4C4AE00230B
:1057F000089306AA04F14E01608805F073FB6378F4
:105800009DF81800022B08AA0BD1A18803F0E4F937
:1058100016303FF4B0AE009B9DF818100898224651
:105820009FE6211D03F002FAF2E7201D03F0A4FC1D
:10583000A9E600BF034B93F86D090F2894BF002021
:1058400001207047185E002073B53D220C4640F2DF
:105850004511054606F06EFD0C21064606F090FC4B
:105860000470B48094B90B4BB3F8C031A0F8013088
:105870000822094903302AF044FF002300931A4606
:10588000294606480AF01EFB02B070BD4FF6FF73B2
:10589000ECE700BF185E0020E85E0020014D01002B
:1058A0000021FFF7D1BF00002DE9F34700252B4F62
:1058B0002B4E8146C1F340082C464FF0040A3B684A
:1058C0009D4209D396F8DC3220466FF3410386F8F7
:1058D000DC3202B0BDE8F08705EB0512D6F8E01225
:1058E0008B188A5C02F00302032A22D1997B01F013
:1058F0001F024A45DA7821D108061FD55878C0071B
:105900001CD5B8F1000F16D0D87B00F060004028FD
:1059100011D111F0200F11D01F2A0FD9597B96F801
:10592000D900091A7E2909DCB4B1E178914298BF07
:105930001C460135C3E711F0400FECE71F2AF8D8E9
:105940000192CDF800A0AC2340F2451201214FF0A6
:10595000FF300AF0C3FEECE71C46EAE73400002003
:10596000185E00202DE9F043674D95F8B0238BB009
:105970000023D20781460F468DF81D300DD50093C8
:1059800040F24512E22301214FF0FF300AF0A6FE5B
:10599000C22630460BB0BDE8F0830DF11D0138463C
:1059A00005F02EFB0646002852D1397B9DF81D00DC
:1059B000FFF77AFF0446002841D00DF11E019DF843
:1059C0001D0005F069FBBDF81E30A5F8C231E37B70
:1059D0003946C3F30403102205F5E970E71D85F885
:1059E000CE312AF08EFE0622484938462AF07AFE49
:1059F00080BBB4F805300393E37B03F01F030293ED
:105A0000BDF81E3001930C2340F245120093012192
:105A100040F21D134FF0FF300AF060FE0D214846A2
:105A200006F0AEFBE37BC3F30403C3720222BDF8AE
:105A30001E30038007468272611D104441E00096CB
:105A4000F82340F2451201214FF0FF300AF046FEE4
:105A5000C3269EE706222D4938462AF043FE0DF163
:105A6000200800283FD108224FF0FF3140462AF09D
:105A70006DFE98E8030003AB83E80300E37B03F0CB
:105A80001F030293BDF81E300193102340F245120C
:105A9000009301214FF489734FF0FF300AF01EFE8E
:105AA0000D21484606F06CFBE37BC3F30403C3728D
:105AB000BDF81E3003800323074683720822414647
:105AC00002302AF01EFE95F8DE313B734846C5F8D9
:105AD000E24106F079F90023014600931A460C488A
